:04000000803116280D
:100008007E14803120007F08F5002100911E112800
:100018002000911E11288031FE2075082000FF0065
:100028007E10090080311828703084002030850047
:100038008030FE000030FF0083314A23FA01FB01C3
:10004800AB01AC01AD01AE01AF017E1020008031E3
:100058002D2821000E108E100E110E128E160D1264
:100068007230990022009D171D1573302000A000E2
:100078000030A1008131502180318031A5208031AC
:1000880022000E148E100E110D128B170030200056
:10009800A3008330A4008331382380311530200039
:1000A800AA004B30A900D130A800A80B5928A90BE9
:1000B8005928AA0B592800002000911A60288B1390
:1000C8008131DA2180312000A8001F302802031C6A
:1000D80049288131A12180312000A8002808FA0090
:1000E8007A082B3A031D64288131A1218031433AD3
:1000F800031D64288131A12180314C3A031D6428F5
:100108008131A1218031493A031D64281030200033
:10011800A3008330A40083313823803122008E1855
:10012800982822008E149A2822008E100D1A9F28D3
:1001380022000D16A12822000D128331562380318A
:10014800642822000E171A302000A600F830A500F7
:10015800A50BAC28A60BAC28000022000E13063015
:100168002000A7001330A600B130A500A50BBA28BF
:10017800A60BBA28A70BBA28003222000E17663041
:100188002000A7007730A6002430A500A50BCA28B8
:10019800A60BCA28A70BCA28000016302000A30007
:1001A8008330A40083313823803115302000A70024
:1001B8004B30A600D130A500A50BE028A60BE028FF
:1001C800A70BE028000009302000A3008330A4001A
:1001D80083313823803115302000A7004B30A6002A
:1001E800D130A500A50BF628A60BF628A70BF628F4
:1001F8000000080022000E1523001908F0007008FE
:10020800F4007F3076067704031D0E2979087804F8
:1002180003191C297608013EF0000030773DF100F3
:1002280079087106031D1A2978087006031D272905
:100238000130F8070030F93D803078067904031D55
:100248002729F801F9017F3076067704031D2F2945
:10025800F601F70133290130F6070030F73D703019
:10026800F0002030F10076087007F2007708713D41
:10027800F300720886007308870074088100FF3055
:100288007906031D4929FF307806031D4D29F80119
:10029800F90122000E110800FF30F600FF30F700C8
:1002A8007708F901F9077608F801F8076729333064
:1002B8006429403064292A306429243064291030A4
:1002C80023009B00922920002108003A031979296C
:1002D800253A03197E296E3A031983293B3A0319F3
:1002E8008829F33A03198D2992292008733A0319AA
:1002F800632992292008803A03195B29922920084A
:10030800003A03195D2992292008803A03195F29C8
:1003180092292008403A03196129922923009F1540
:100328001E139E161E121E159D171D131D169D11B8
:10033800210091160B178B170800FF307906031D53
:10034800A729FF307806031DAB290030080070305C
:100358002000A0002030A100780820078600790836
:10036800213D87000108A2002208A300770879062A
:10037800031DC02976087806031DCD29FF30F60035
:10038800FF30F7007708F901F9077608F801F80750
:10039800D8290130F8070030F93D80307806790413
:1003A800031DD829F801F90123080800FF30790650
:1003B800031DE029FF307806031DE42900300800FA
:1003C8007908803A2000A0007708803A2002031DAF
:1003D800EF29760878020318F6297803FF3A76079A
:1003E800013E08007708803A2000A0007908803A8A
:1003F8002002031D012A780876020318082A7803C8
:0C040800FF3A7607813E08000130080032
:10060000413454342B344334533451340D340A348C
:10061000003441345434453430340D340A34003419
:100620004134543448340D340A34003441345434A1
:100630000D340A340034413454340A340D34003457
:1006400020002108840022088500000800380319D2
:10065000080020002108840022088500000883315A
:100660006023833101302000A1070030A23D202B00
:100670000D308331602383310A308331602383312D
:1006800020002408A201A2072308A101A1078331A9
:10069000202308006400800101310130FE02003097
:1006A000FF3B7F087E04031900344B2B8131DA2194
:1006B00083310038031908008131A1218331562B81
:1006C0002000A000111E622B200823009A000800C1
:020000040001F9
:04000E00A4F9FFFE54
:00000001FF
