:04000000803116280D
:100008007E14803120007F08FB002100911E1128FA
:100018002000911E1128803132207B082000FF002B
:100028007E10090080311828643084002030850053
:100038008C30FE000030FF00893195218031FC01B1
:1000480053308400003085001030FE000030FF007F
:10005800893195217E1020008F310C2F22000E143B
:1000680023001908F00070082000A0006430860002
:10007800203087000130C03F5B2B64308600203081
:10008800870041310103031D632B5C08031D632BAB
:10009800643086002030870041318101632B643051
:1000A80086002030870041310108031D6228653031
:1000B80086002030870001308100382B5C08F00072
:1000C800F1018D30F2002030F300700872078600CD
:1000D8007108733D870081016430860020308700F5
:1000E800413181018D308600203087002B30010698
:1000F800031D212B8E3086002030870043300106F7
:10010800031D06298F308600203087004C300106F9
:10011800031D0629903086002030870049300106EB
:10012800031D06290830F0007008A300CE2820001F
:100138002308F000F1018D30F2002030F300700840
:10014800720786007108733D87000108F4002308D0
:10015800F83EF500FF3003180030F6006830F7006D
:100168002030F80075087707F9007608783DFA001E
:10017800790886007A088700740881000130F00049
:100188007008A3070130F000863086002030870011
:10019800700881072308F000F1018D30F20020304B
:1001A800F3007008720786007108733D87002230DB
:1001B80001060319F1282308F83EF000FF30031860
:1001C8000030F1007108803AF20080307202031D9D
:1001D800EF280F307002031C9B2820002308F83EEC
:1001E800F000FF3003180030F1006830F2002030D2
:1001F800F3007008720786007108733D870081015B
:10020800DE01DE0A8E30860020308700433001068A
:10021800031D93298F308600203087004D3001065A
:10022800031D932990308600203087005430010642
:10023800031D93299130860020308700493001063C
:10024800031D93290C30F0007008A40055292408D8
:10025800F000F1018D30F2002030F30070087207D1
:1002680086007108733D87000108F4002408F43EF5
:10027800F500FF3003180030F6008830F700203012
:10028800F80075087707F9007608783DFA007908CC
:1002980086007A088700740881000130F000700831
:1002A800A4072408F000F1018D30F2002030F3009B
:1002B8007008720786007108733D870030300102AC
:1002C800031C77292408F000F1018D30F20020305A
:1002D800F3007008720786007108733D87003A3092
:1002E8000102031C2B292408F43EF000FF300318F8
:1002F8000030F1008830F2002030F30070087207F7
:1003080086007108733D87008101873086002030A0
:100318008700013081000230F0007008DE008E3066
:1003280086002030870043300106031D012A8F30E4
:1003380086002030870053300106031D012A9030C3
:1003480086002030870051300106031D012A06303F
:10035800F0007008A500DA292508F000F1018D30B9
:10036800F2002030F3007008720786007108733DB0
:1003780087000108F4002508FA3EF500FF3003184D
:100388000030F600E630F7002030F80075087707EF
:10039800F9007608783DFA00790886007A0887001F
:1003A800740881000130F0007008A5072508F000E6
:1003B800F1018D30F2002030F300700872078600DA
:1003C8007108733D87002C3001060319EF290830A6
:1003D8002502031CB0292508FA3EF000FF30031857
:1003E8000030F100E630F2002030F30070087207A8
:1003F80086007108733D870081018E3086002030A9
:10040800870043300106031D712A8F308600203093
:1004180087004D300106031D712A90308600203078
:10042800870044300106031D712A0430F00070086B
:10043800A200492A20002208F000F1018D30F200C4
:100448002030F3007008720786007108733D87003A
:100458000108F4002208FC3EF500FF3003180030C4
:10046800F600CD30F7002030F80075087707F9005E
:100478007608783DFA00790886007A0887007408BB
:1004880081000130F0007008A2072208F000F10195
:100498008D30F2002030F300700872078600710872
:1004A800733D87002330010603196C2A2208FC3E9D
:1004B800F000FF3003180030F1007108803AF200B4
:1004C80080307202031D6A2A19307002031C1E2A2A
:1004D8000330F00070082000DE008E3086002030E7
:1004E800870043300106031D372B8F3086002030EC
:1004F80087004D300106031D372B903086002030D1
:10050800870047300106031D372B913086002030C5
:10051800870052300106031D372B1430F000700895
:10052800A600A101AE2A0130F0007008A60726082F
:10053800F000F1018D30F2002030F30070087207EE
:1005480086007108733D870022300106031DAE2A1C
:10055800A101A10A2108031DB52A28302602031C7F
:10056800972A2608F63EF0007008A600ED2A26080D
:10057800F000F1018D30F2002030F30070087207AE
:1005880086007108733D87000108F40086308600F4
:10059800203087000108F500F6017730F700203099
:1005A800F80075087707F9007608783DFA007908A9
:1005B80086007A088700740881000130F00070080E
:1005C800A6070130F00086308600203087007008CA
:1005D80081072608F000F1018D30F2002030F30089
:1005E8007008720786007108733D87002230010683
:1005F8000319092B86308600203087000F3001024E
:100608000318092B2108031DBB2A863086002030D9
:1006180087000108F000F1017730F2002030F30084
:100628007008720786007108733D87008101863063
:100638008600203087008101372B8D3086002030DE
:1006480087004F300106031D372B8E30860020307F
:1006580087004B300106031D372B6630860020309B
:10066800870001308100DC0164308600203087007B
:100678000030C03F632B3F305C020318632B5C08DB
:10068800F000F1018D30F2002030F300700872079D
:10069800F4007108733DF50074088600750887003A
:1006A800200881000130F0007008DC07632B200867
:1006B8000A3A03195328073A031941283F2B220005
:1006C8000E100800CD308600203087003A30010631
:1006D800031D0800CE302000B1002030B2008C315C
:1006E80067248331003A0319FA2DD330860020306D
:1006F800870041300106031D5E2CD430860020306F
:10070800870044300106031D5E2CD530860020305A
:10071800870044300106031D5E2C0A302000C40007
:100728004408DD0086308600203087008101CE2B0A
:100738005D08C400C501CD30C6002030C70044089C
:10074800460786004508473D87000108C8005D0840
:10075800F63EC900FF3003180030CA006830CB00ED
:100768002030CC0049084B07CD004A084C3DCE004C
:100778004D0886004E088700480881000130C400F3
:100788004408DD070130C400863086002030870029
:10079800440881075D08C400C501CD30C60020307B
:1007A800C7004408460786004508473D87003030A3
:1007B8000102031CF02B5D08C400C501CD30C60042
:1007C8002030C7004408460786004508473D870093
:1007D8003A300102031C9C2B5D08F63EC400FF3032
:1007E80003180030C5006830C6002030C700440830
:1007F800460786004508473D870081016830B100FB
:100808002030B20086308600203087000108C400FE
:100818004408B30087316827833120003108320447
:10082800031D3E2C6830BB002030BC00863086009B
:10083800203087000108C4004408BD008B3189239B
:10084800833168302000AD002030AE007130AF0039
:100858008630B0006230B1008730B2008C31BB24E2
:10086800833177302000AD002030AE00D830AF00A3
:100878008630562C68302000AD002030AE008C3019
:10088800AF008630B0006230B1008730B2008C31E2
:10089800BB24833177302000AD002030AE005530C6
:1008A800AF008630B0006830B1002030B2008C3123
:1008B800BB248331D33086002030870044300106C2
:1008C800031D282DD43086002030870045300106CE
:1008D800031D282DD5308600203087004C300106B6
:1008E800031D282D0A302000C4004408DD0086308E
:1008F8008600203087008101B32C5D08C400C50143
:10090800CD30C6002030C700440846078600450899
:10091800473D87000108C8005D08F63EC900FF3062
:1009280003180030CA006830CB002030CC004908DA
:100938004B07CD004A084C3DCE004D0886004E08B6
:100948008700480881000130C4004408DD070130F1
:10095800C4008630860020308700440881075D087F
:10096800C400C501CD30C6002030C7004408460782
:1009780086004508473D870030300102031CD52C0E
:100988005D08C400C501CD30C6002030C70044084A
:10099800460786004508473D87003A300102031C98
:1009A800812C5D08F63EC400FF3003180030C500F6
:1009B8006830C6002030C70044084607860045084E
:1009C800473D870081016830B1002030B200863091
:1009D8008600203087000108C4004408B30087312E
:1009E8006827833120003108C5004508CF004F082B
:1009F8000319282D4F08FF3EAD00FF3003180030C3
:100A0800AE008B311223833168302000AD002030D6
:100A1800AE003830AF008630B0006230B1008730A9
:100A2800B2008C31BB24833177302000AD002030F8
:100A3800AE00A730AF008630B0006830B10020307B
:100A4800B2008C31BB248331D3308600203087003C
:100A580046300106031D4B2DD43086002030870018
:100A680041300106031D4B2DD5308600203087000C
:100A780043300106031D4B2D8A310D2283315A3034
:100A88002000AB008730AC008E318E268331D33006
:100A980086002030870050300106031DD22DD43047
:100AA80086002030870041300106031DD22DD53045
:100AB80086002030870053300106031DD22D0A30EE
:100AC8002000C4004408DD00932D5D08C400C50162
:100AD800CD30C6002030C7004408460786004508C8
:100AE800473D87000108C8005D08F63EC900FF3091
:100AF80003180030CA00EB30CB002030CC00490886
:100B08004B07CD004A084C3DCE004D0886004E08E4
:100B18008700480881000130C4004408DD075D08EB
:100B2800C400C501CD30C6002030C70044084607C0
:100B380086004508473D870030300102031CB52D6B
:100B48005D08C400C501CD30C6002030C700440888
:100B5800460786004508473D87003A300102031CD6
:100B6800692D5D08F63EC400FF3003180030C5004B
:100B7800EB30C6002030C700440846078600450809
:100B8800473D870081010E305D06031DD22DEB30F5
:100B9800AB002030AC008E318E268331D3308600F6
:100BA8002030870043300106031D0800D43086003A
:100BB8002030870053300106031D0800D530860019
:100BC8002030870051300106031D080068302000DE
:100BD800AD002030AE00C030AF008630B000E63047
:100BE800B1002030B2008C31BB240800CE30860022
:100BF800203087004F300106031D342ECF30860089
:100C08002030870050300106031D342ED030860076
:100C18002030870045300106031D342E7730200030
:100C2800B1002030B20086308600203087000108ED
:100C3800C4004408B3008731682783312000310895
:100C480032040319302E22008C1609308A3185228D
:100C580022008C120E15080005308A31B1220800D6
:100C680005308A31B122080059346F347534723432
:100C780020346E3475346D34623465347234203403
:100C880068346134733420346234653465346E34C6
:100C98002034643465346C346534743465346434B5
:100CA800003454346834653420346E3475346D340B
:100CB800623465347234203461346C34723465348F
:100CC8006134643479342034653478346934733465
:100CD800743473343A342034003459346F347534EE
:100CE800723420346E3475346D3462346534723441
:100CF80020346834613473342034623465346534A4
:100D08006E342034613464346434653464340034BB
:100D180059346F347534723420346E3475346D340C
:100D2800623465347234203461346C34723465341E
:100D380061346434793420346534783469347334F4
:100D480074347334003459346F3475342034643453
:100D580065346C34653474346534643420347434E4
:100D68006834653420346E3475346D3462346534D7
:100D780072343A34203400345434683465342034BE
:100D88007334693467346E3461346C3420347134AC
:100D9800753461346C34693474347934203469348A
:100DA80073343A342034003459346F347534203471
:100DB800613464346434653464342034743468349D
:100DC800653420346E3475346D346234653472346D
:100DD8003A342034003453347934733474346534F9
:100DE8006D34203465346E34613462346C34653467
:100DF80064340034413454342B3443344D34473450
:100E0800463420343D34203431340D340A3400342F
:100E1800413454342B3443344C34493450343D3405
:100E280031340D340A340034363431343434313406
:100E38003634353434343834313438340034413489
:100E480054342B3443344D34473453343D342234F2
:100E58000034413454342B344334533451340D3436
:100E68000A340034413454342B3443344D34473439
:100E780044343D340034413454342B3443344D34F9
:100E8800473452343D3400344134543445343034DA
:100E98000D340A3400344134543448340D340A349F
:100EA8000034413454340D340A340034313432348B
:100EB80033343434003422340D340A3400342D34BD
:100EC8003E340034313400342000BE01BF01C0017B
:100ED800C101BC01BD010930BE000030CA2FC001EC
:100EE800C1014008013EB4000030413DB500B409DD
:100EF800B509B40A0319B50A3308B600B7013608AC
:100F08003107B8003708323DB90034083807860081
:100F18003508393D87004009BA004109BB00BA0AC3
:100F28000319BB0A3E083A07AD003F083B3DAE0037
:100F38008A315A2287310106031DA82F013020006B
:100F4800BC000030BD00AB2F2000BC01BD0101304A
:100F5800C0070030C13D3C083D040319C52F3308C4
:100F6800B400B50135084102031DBC2F3408400206
:100F78000318C52F003041020A3003194002031C30
:100F8800752F3E080A3EBE0000303F3DBF003C08BA
:100F98003D04031DD62F11303F028A3003193E024B
:100FA800031C732F3C033D04031DEA2F0A30A700DE
:100FB8000030A8003F08AA003E08A9008A31DD22B7
:100FC80020002808B2002708B1000800B101B201CA
:100FD800080021008D130D138E130D1623008D01AB
:100FE80021000E108E100E110E128E160E130C12FA
:040FF8008C1208004F
:1012B60024001614161C08005D2924001615161D98
:1012C6000800622924009614961C08006729240049
:1012D60096161616161E08006D29240016081F39C4
:1012E600031D7029141D080070292000A700111E77
:1012F6007A29270823009A0008002000A70027085B
:1013060024009100141885298931702108002100D4
:101316008E178D130D172400941728309500093069
:10132600920008006400800101310130FE020030A5
:10133600FF3B7F087E040319003496292400961586
:10134600141CA32911082000A7002708A80089312A
:1013560070212000280808000D3089317821893154
:101366000A3089317821893120002C08A9002B0800
:10137600A8008931BF210800200028088400290818
:101386008500120003190800200028088400290897
:101396008500000889317821893101302000A807AD
:1013A6000030A93DBF2922008D1389315B21893187
:1013B600A030893180218931200029088931802196
:1013C60089312000280889318021893120002A08A6
:1013D6008931802189318931602108002000AB01E3
:1013E600AC01271CFA292908AB072A08AC3D0130B5
:1013F600A935AA0D890BFB290130A836A70C890B44
:10140600002A27082804031DF4292C08A8002B0805
:10141600A70008002000AD01AE0103302E022030E7
:1014260003192D02031808002E08A9002D08A8008C
:10143600FF30AB002B08AA008931D6218A3134301F
:101446002000AC00F130AB00AB0B272AAC0B272AEF
:10145600003201302000AD070030AE3D102A2000DA
:10146600A70021001708C139223897004A2A6A3096
:1014760021009900080072302100990008007A3096
:101486002100990008007030210099000800200012
:101496002708043A03193A2A0C3A03193E2A183A3D
:1014A6000319422A303A0319462A592A080020000D
:1014B600B00122008D1389315B218A31A030893138
:1014C60080218A3120002E08893180218A3120002E
:1014D6002D08893180218A31893165218A31A130EF
:1014E600893180218A318931A1218A312000AF00DA
:1014F6002F08B00089316A218A31893160212000A4
:10150600300808002000AA00AB01AB012A082B0214
:101516000318080022000E1505302000A9000F3020
:10152600A800F430A700A70B962AA80B962AA90BA9
:10153600962A22000E1105302000A9000F30A800BF
:10154600F430A700A70BA52AA80BA52AA90BA52A44
:1015560001302000A7002708AB07892A2000AA002F
:10156600AB01AB012A082B020318080022008E14D7
:1015760005302000A9000F30A800F430A700A70B03
:10158600C22AA80BC22AA90BC22A22008E10053035
:101596002000A9000F30A800F430A700A70BD12A1D
:1015A600A80BD12AA90BD12A01302000A7002708B1
:1015B600AB07B52A2000AC01AD01270828040319A2
:1015C6000D2BAE01AE0AA81BF22A0130A735A80DD5
:1015D600890BE92A0130AB002B08AE07E62A013059
:1015E600AC35AD0D890BF32A28082A02031DFD2A06
:1015F60027082902031C042B2708A9022808AA3B4E
:101606002C140130A836A70C890B052B0130AE022D
:10161600031DF22A2D08A8002C08A70008002000A8
:10162600B301B101B2012E08A8002D08A7000A30A7
:10163600A9000030AA008931F1218B312000280849
:10164600B2002708B100B3010A30330203180800BC
:1016560033083107A80032080318320AA900FF3000
:10166600AF002F08AA008931D6218B3134302000F3
:10167600B000F130AF00AF0B3E2BB00B3E2B00326B
:1016860001302000AF002F08B307272B2930200098
:10169600B3009630B200A630B100B10B502BB20B9E
:1016A600502BB30B502B36302000AB008730AC00EC
:1016B6008931AF218B3120002E08A9002D08A80002
:1016C6008931BF218B312C30893178218B31200033
:1016D6003008A9002F08A8008931BF218B3160305E
:1016E6002000A8008730A9008931BF218B315230F4
:1016F6002000B3002C30B2004F30B100B10B812B6B
:10170600B20B812BB30B812B003208002000C201E3
:10171600C301BF01C001C1014308A8004208A700D8
:101726000A30A9000030AA008931F1218B3120004E
:101736002808AE002708AD008A315A228B312000D6
:10174600BE003E08C10030304102031CAE2B3A30C9
:101756004102031CB22B0130BF000030C000013033
:10176600C2070030C33D3F084004031DC12B0130B2
:101776004302C23003194202031C8F2B3C08AE0001
:101786003B08AD003D08BE003E08AF004208FF3EE4
:10179600B000FF30433DB1008D319C250800DF2BA2
:1017A600CF30DC2B4030DC2B2A30DC2B2430DC2BFA
:1017B600103023009B000A2C20002808003A031949
:1017C600F12B253A0319F62B6E3A0319FB2B3B3AFC
:1017D6000319002CF33A0319052C0A2C2708733A2F
:1017E6000319DB2B0A2C2708803A0319D32B0A2C62
:1017F6002708003A0319D52B0A2C2708803A031923
:10180600D72B0A2C2708403A0319D92B0A2C220079
:101816009D171D1523009F151E139E161E121E15BD
:101826009D171D131D169D11210091160B178B1761
:10183600080009302000B1001E30B000EB30AF00C8
:10184600AF0B232CB00B232CB10B232C0000FE3046
:101856002000AB008630AC008931AF218C310930D5
:101866002000B1001E30B000EB30AF00AF0B392CBA
:10187600B00B392CB10B392C00003F302000AB00E7
:101886008730AC008931AF218C3120002E08A900A9
:101896002D08A8008931BF218C3160302000A800B6
:1018A6008730A9008931BF218C3119302000B10061
:1018B6005A30B000C830AF00AF0B5F2CB00B5F2CB6
:1018C600B10B5F2C00320800DC302000AD001E306A
:1018D600AE008A315A228C312000B3003308D8007A
:1018E600DD30AD001E30AE008A315A228C31200028
:1018F600B3003308D900DE30AD001E30AE008A31A9
:101906005A228C312000B3003308DA00DF30AD00F4
:101916001E30AE008A315A228C312000B3003308C3
:10192600DB00310886003208870001085806031DCF
:10193600B92C310886003208870041310108590662
:10194600031DB92C31088600320887004231010890
:101956005A06031DB92C3108860032088700433128
:1019660001085B06031DB92C013008000030080091
:1019760052302000B5002C30B4004F30B300B30B0A
:10198600C22CB40BC22CB50BC22C0032FE30200088
:10199600AB008630AC008931AF218C31523020004B
:1019A600B5002C30B4004F30B300B30BD82CB40BB9
:1019B600D82CB50BD82C003223302000AB00873052
:1019C600AC008931AF218C3120002E08A9002D08EA
:1019D600A8008931BF218C315F302000A8008730F4
:1019E600A9008931BF218C3152302000B5002C303E
:1019F600B4004F30B300B30BFE2CB40BFE2CB50B6A
:101A0600FE2C003220003008A9002F08A8008931DA
:101A1600BF218C3120003208A9003108A800893185
:101A2600BF218C311A30893178218C315230200017
:101A3600B5002C30B4004F30B300B30B202DB40BDF
:101A4600202DB50B202D0032080064308600203092
:101A560087000030C03F6430860020308700413167
:101A6600810186308600203087008101643086003F
:101A760020308700423181012000AB010F302B025C
:101A86000318692D2B08A700A8016830A90020308B
:101A9600AA0027082907860028082A3D8700810111
:101AA6002B08A700A8017730A9002030AA00270834
:101AB6002907860028082A3D870081010130A700F2
:101AC6002708AB070F302B02031C452DAB01403016
:101AD6002B020318842D2B08A700A8018D30A9001E
:101AE6002030AA0027082907860028082A3D8700F3
:101AF60081010130A7002708AB0740302B02031CE9
:101B06006E2DAB0119302B02031808002B08A70015
:101B1600A801CD30A9002030AA0027082907860091
:101B260028082A3D870081010130A7002708AB0756
:101B3600852D2000B701B8010130B5000030B60090
:101B4600B901BA013108A8003008A7000A30A90077
:101B56000030AA008931F1218D3120002808BA0011
:101B66002708B9003908093EB90000303A3DBA00E5
:101B76000A30B7000030B8003708380403190800E7
:101B86002F080319F42D0130AF022F08B200B3015C
:101B960032082D07860033082E3D870030300102BB
:101BA600031CFD2D2F08B200B30132082D07860055
:101BB60033082E3D87003A3001020318FD2D3A08FE
:101BC600A9003908A8002F08B200B30132082D0772
:101BD600860033082E3D87000108B4003408AA00A9
:101BE600FA2D20003A08A9003908A800AA0189316F
:101BF600D6218D3101302000B9020030BA3B343095
:101C0600B300F130B200B20B062EB30B062E003233
:101C160001302000B7020030B83BBF2D22000E175E
:101C260068302000AE00E430AD00AD0B182EAE0BD0
:101C3600182E000022000E1315302000AF004B3086
:101C4600AE00D130AD00AD0B262EAE0B262EAF0B5F
:101C5600262E000022000E17CB302000AF00ED30FC
:101C6600AE004C30AD00AD0B362EAE0B362EAF0BA4
:101C7600362E0032CB302000AF00ED30AE004C30B7
:101C8600AD00AD0B442EAE0B442EAF0B442E0032EE
:101C960055302000AB008730AC008931AF218E3142
:101CA60052302000AF002C30AE004F30AD00AD0BEF
:101CB6005A2EAE0B5A2EAF0B5A2E00324830200049
:101CC600AB008730AC008931AF218E315230200015
:101CD600AF002C30AE004F30AD00AD0B702EAE0B0A
:101CE600702EAF0B702E00320C302000AB00873008
:101CF600AC008931AF218E3152302000AF002C303C
:101D0600AE004F30AD00AD0B862EAE0B862EAF0B60
:101D1600862E00320800DC302000A8001E30A90004
:101D26002B0884002C0885000008AD002D08AA00A9
:101D36008931D6218E3134302000AE00F130AD002D
:101D4600AD0BA32EAE0BA32E0032DD302000A80073
:101D56001E30A9002C08AE002B08AD0001302D075F
:101D660084002E0803182E0A85000008AF002F08ED
:101D7600AA008931D6218E3134302000AE00F130F0
:101D8600AD00AD0BC42EAE0BC42E0032DE302000EB
:101D9600A8001E30A9002C08AE002B08AD000230AA
:101DA6002D0784002E0803182E0A85000008AF00B0
:101DB6002F08AA008931D6218E3134302000AE009A
:101DC600F130AD00AD0BE52EAE0BE52E0032DF3067
:101DD6002000A8001E30A9002C08AE002B08AD007C
:101DE60003302D0784002E0803182E0A85000008EC
:101DF600AF002F08AA008931D6218E313430200059
:101E0600AE00F130AD00AD0B062FAE0B062F003243
:101E1600080020308A3132228F318731ED278F3109
:101E260022000C1280302000A7002530A8008B313C
:101E3600D2238F3189318A218F3122008E140E14DC
:101E46000E158E3111268F31FF302000D00050083C
:101E5600DF00FF30D0005008E000FF30D00050080F
:101E6600E100FF30D0005008E2005F30B1000030E2
:101E7600B2008C3167248F31003A03194A2F5A3049
:101E86002000AB008730AC008E318E268F312200C9
:101E96008E100E100E158B1723001D1618302000FD
:101EA600AD008730AE00EF30AF008630B000623054
:101EB600B1008730B2008C31BB248F31F02F230064
:101EC6009D1C712F1D12E4302000D000003200321C
:101ED600D00B692F0032000023001D162D30200084
:101EE600AB008730AC008931AF218F31643086007A
:101EF6002030870042310103031D792F64308600AC
:101F0600203087004231810152302000D2002C302F
:101F1600D1004F30D000D00B8E2FD10B8E2FD20B8D
:101F26008E2F00326400F02F4F302000AB00873038
:101F3600AC008931AF218F3168302000B1002030EC
:101F4600B20086308600203087000108D000500895
:101F5600B300873168278F31200031083204031916
:101F6600BE2F22000C1605308A3185228F312200C1
:101F76000C120E15C22F05308A31B1228F318D31E8
:101F860028258F31EE2F22000E1488302000AD0058
:101F96002030AE008C311C248F3122000E1003300D
:101FA6002000D0005008DE00F02F833166238F31E9
:101FB60022000E148D3128258F3166302000AD00A9
:101FC6008730AE005D30AF008730B0008B314923DB
:101FD6008F3122000E102000DE0120005E08003A3C
:101FE6000319622F013A0319972F033A0319C62FD3
:0A1FF600013A0319D82FF02FF02F45
:020000040001F9
:04000E001CFEFFDFF6
:00000001FF
