:04000000803116280D
:100008007E14803120007F08FB002100911E1128FA
:100018002000911E112880312E207B082000FF002F
:100028007E10090080311828523084002030850065
:100038009E30FE000030FF008F311027C301C4013D
:10004800C501C601C701C801C901CA017E10200047
:100058008231462A22008E1423001908F000700805
:100068002000A00052308600203087000130C03FB9
:100078003B2A523086002030870041310108013A7E
:10008800031D432AC808031D432A52308600203026
:10009800870041318101432A523086002030870091
:1000A80041310108031D5F28533086002030870046
:1000B80001308100182A4808F000F1016B30F20085
:1000C8002030F3007008720786007108733D8700BE
:1000D8008101523086002030870041318101523041
:1000E800860020308700593101082B3A031D172A52
:1000F80052308600203087005A310108433A031DE8
:10010800F62852308600203087005B3101084C3ACF
:10011800031DF62852308600203087005C31010824
:10012800493A031DF6280830F0007008A100E228BB
:100138002108F83EF000FF3003180030F100710884
:10014800803AF20080307202031DAC280F30700232
:100158000318F32820002108F000F1016B30F200A9
:100168002030F3007008720786007108733D87001D
:100178000108F4002108F83EF500FF3003180030AC
:10018800F6005530F7002030F80075087707F900B9
:100198007608783DFA00790886007A08870074089E
:1001A80081000130F0007008A1070130F0005230E2
:1001B8008600203087005231700881072108F0003E
:1001C800F1016B30F2002030F300700872078600EE
:1001D8007108733D87000108223A031D9C282000FE
:1001E800CA01CA0A52308600203087005A310108F5
:1001F800433A031D872952308600203087005B313F
:1002080001084D3A031D87295230860020308700A7
:100218005C310108543A031D87295230860020308A
:1002280087005D310108493A031D87290C30F00029
:100238007008A20049292208F000F1016B30F20091
:100248002030F3007008720786007108733D87003C
:100258000108F4002208F43EF500FF3003180030CE
:10026800F6006630F7002030F80075087707F900C7
:100278007608783DFA00790886007A0887007408BD
:1002880081000130F0007008A2072208F000F10197
:100298006B30F2002030F300700872078600710896
:1002A800733D870030300102031C6B292208F000DF
:1002B800F1016B30F2002030F300700872078600FD
:1002C8007108733D87003A300102031C1F29220878
:1002D800F43EF000FF3003180030F1006630F20001
:1002E8002030F3007008720786007108733D87009C
:1002F800810165308600203087000130810002309E
:10030800F0007008CA0052308600203087005A3149
:100318000108433A031DF82952308600203087002F
:100328005B310108533A031DF8295230860020300A
:1003380087005C310108513A031DF8290630F000A6
:100348007008A300D1292308F000F1016B30F200F6
:100358002030F3007008720786007108733D87002B
:100368000108F4002308FA3EF500FF3003180030B6
:10037800F600EB30F7002030F80075087707F90031
:100388007608783DFA00790886007A0887007408AC
:1003980081000130F0007008A3072308F000F10184
:1003A8006B30F2002030F300700872078600710885
:1003B800733D870001082C3A0319E6290830230207
:1003C800031CA7292308FA3EF000FF300318003069
:1003D800F100EB30F2002030F3007008720786005D
:1003E8007108733D870081015230860020308700F4
:1003F8005A310108543A031D172A5230860020301A
:1004080087005B310108453A031D172A52308600E0
:10041800203087005C3101084C3A031D172A03304D
:10042800F0007008CA00C8015230860020308700EA
:100438000030C03F432A7F3048020318432A480847
:10044800F000F1016B30F2002030F3007008720701
:10045800F4007108733DF50074088600750887007C
:10046800200881000130F0007008C807432A2008DE
:100478000A3A03195028073A03193D281F2A22006F
:100488008E10080008308F317327823173302000B6
:10049800A4000030A5008731062782318F311C2740
:1004A8008231863161268231843183248231383029
:1004B8002000AE008530AF000A30C0004008B00010
:1004C8000A30B1000030B2008331E2238231433078
:1004D8002000AE008530AF000A30C0004008B000F0
:1004E8000B30B1000030B2008331E2238231052B9A
:1004F800873150278231052B7A302000A7008530BC
:10050800A8008431EE24823155302000AF0020301D
:10051800B000523086002030870052310108C000F8
:100528004008B100833139238231003A0319B42AD3
:1005380022000E19A22A22000E15A42A22000E114A
:100548000C1AA92A22000C16AB2A22000C125530CC
:100558002000A9002030AA00EB30AB002030FF2A91
:1005680005308431C024823155302000A900203064
:10057800AA000030AB008530FF2AC9010A304902C1
:100588000318E42A22008E18CC2A22008E14CE2AC0
:1005980022008E1003302000C2000830C1007830DD
:1005A800C000C00BD52AC10BD52AC20BD52A0130F1
:1005B8002000C0004008C9070A304902031CC62AA7
:1005C8006630A9002030AA008731962782318E3004
:1005D8002000A9008530AA009030AB008530AC001F
:1005E8008631BA268231032B3530A9008530AA001E
:1005F8001630AB008530AC00853192258231200061
:10060800CA018B1723001D166A302000A700853009
:10061800A8008431EE24823115302000C2004B300E
:10062800C100D130C000C00B172BC10B172BC20B58
:10063800172B000052308600203087000108013A4D
:1006480003191E2B8B1323001D1220004A08003AA1
:1006580003197C2A013A0319802A033A0319C12A8B
:10066800013A0319F82A052B052B2000BC01BD010E
:10067800BB01BF01BE010530B2003208BF00BF0890
:1006880003199E2B310803198E2B0130B102310852
:10069800B200B30132082F0786003308303D8700C7
:1006A80030300102031C662B3108B200B301320856
:1006B8002F0786003308303D87000108D03EB4007C
:1006C8003408BB00310803198F2B0130B1023108FF
:1006D800B200B30132082F0786003308303D870087
:1006E80030300102031C8F2B3108B200B3013208ED
:1006F8002F0786003308303D87000108B400033017
:10070800B435FF3E031D842B34353B07B50035084F
:10071800BB008F2BBB013B08B2003F08FF3E363EB3
:100728008600870132088100BB010130BF02BF0883
:10073800031D462B0430BC000030D52BBF013F08F9
:10074800013EFF3A013E053E363E860087013F08DE
:10075800B200B301B209B309B20A0319B30A3C08DB
:100768003207AB003D08333DAC008F31572783314A
:100778000106031DC32B2000BE01BE0AC52B2000A5
:10078800BE010130B2003208BF073E080319D02B62
:1007980005303F02031CA32B3C08053EBC0000307B
:1007A8003D3DBD00BE08031DE02B02303D02533025
:1007B80003193C02031CA22B3E0808002000BA01C2
:1007C800BB01B701B70AB801B9013208A501A507ED
:1007D8003108A401A4070530A6000030A7008F3116
:1007E8008F27833120002508B901B9072408B801EB
:1007F800B8073808043EB8000030393DB900053064
:10080800B3003308BA00BA080319080030080319FE
:10081800622C0130B0022F08B4002E08B300300853
:100828003307840034080318340A85000008B5002B
:1008380030303502031C312C2F08B4002E08B300C9
:1008480030083307840034080318340A8500000888
:10085800D03EB5003508BB00322CB701300803196B
:10086800632C0130B0022F08B4002E08B300300802
:100878003307840034080318340A85000008B500DB
:1008880030303502031C602C2F08B4002E08B3004A
:1008980030083307840034080318340A8500000838
:1008A800B5000330B535FF3E031D562C35353B07E3
:1008B800B6003608BB00632CB701632CBB013908AE
:1008C800AC01AC073808AB01AB073B08B3003308F1
:1008D800AD008F31AD27833101302000B8020030E0
:1008E800B93B0D30B400FB30B300B30B792CB40B1B
:1008F800792C00322000BB010130BA02072C2200FB
:100908008D1302302000AD000430AC00BA30AB00CB
:10091800AB0B8C2CAC0B8C2CAD0B8C2C00008F31C2
:100928002C27843100302000A4000630A5000430B4
:100938008531FB2584318F31072784318F312C276E
:10094800843100302000A4000430A5000430853133
:10095800FB2584318F310727843106302000AD0014
:100968001330AC00B130AB00AB0BB82CAC0BB82CCF
:10097800AD0BB82C003208002000A700A801A80180
:10098800270828020318080022000E14023020004D
:10099800A6000430A500BA30A400A40BD12CA50BE6
:1009A800D12CA60BD12C000022000E100230200002
:1009B800A6000430A500BA30A400A40BE12CA50BB6
:1009C800E12CA60BE12C000001302000A400240833
:1009D800A807C42C0D308E31FF2684310A308E31A1
:1009E800FF26843120002808A601A6072708A501AC
:1009F800A5078F313F2708005234653463346534C6
:100A080069347634653464342D3455346E34613445
:100A18007534743468346F34723469347A346534B4
:100A28006434003443346F346D346D3461346E345F
:100A3800643420347234653463346534693476340C
:100A4800653464340034413454342B3443344D34E5
:100A58004734463420343D34203431340D340A349C
:100A680000342B3435343234363431343434313480
:100A78003634353434343834313438340034363458
:100A8800313434343534313433343634383434341E
:100A980035340034413454342B3443344D344734E2
:100AA80053343D3422340034413454342B344334E9
:100AB8004D34473444343D340034413454342B34B9
:100AC80043344D34473452343D3400344134543483
:100AD8002B344334533451340D340A340034413404
:100AE8005434453430340D340A34003441345434E9
:100AF80048340D340A340034413454340D340A3443
:100B08000034413454340A340D34003422340D3462
:100B18000A340034313400343434003415302000C1
:100B2800AF004B30AE00D130AD00AD0B992DAE0B00
:100B3800992DAF0B992D000027302000A700853094
:100B4800A8008431EE24853115302000AF004B30E9
:100B5800AE00D130AD00AD0BAF2DAE0BAF2DAF0B4E
:100B6800AF2D00004E302000A7008530A80084314A
:100B7800EE24853120002A08A601A6072908A50128
:100B8800A5078F313F2785318A302000A5008530A1
:100B9800A6008F313F27853115302000AF004B303C
:100BA800AE00D130AD00AD0BD72DAE0BD72DAF0BAE
:100BB800D72D000020002C08A601A6072B08A501A8
:100BC800A5078F313F2785311A308E31FF268531B1
:100BD80015302000AF004B30AE00D130AD00AD0B6A
:100BE800F32DAE0BF32DAF0BF32D00000800200002
:100BF800A900AA0129360139A600A60CA60C2200D4
:100C08000E08200026067F39260622008E000032B4
:100C1800003222000D17003200320032003222006A
:100C28000D1300320032200029080139A600A60C55
:100C3800A60C22000E08200026067F392606220070
:100C48008E000032003222000D17003200320032CE
:100C5800003222000D13003200320A302000A600B4
:100C68002608AA00AA1B08002508A7002408A60031
:100C78002A0A402EA736A60C890B3E2E26080139D3
:100C8800A800A80CA80C22000E08200028067F390E
:100C9800280622008E000032003222000D17003292
:100CA80000320032003222000D1300320032FF30D1
:100CB8002000A6002608AA07362E22000E171A3092
:100CC8002000AA00F830A900A90B682EAA0B682EEC
:100CD800000022000E1306302000AB001330AA00DB
:100CE800B130A900A90B762EAA0B762EAB0B762E67
:100CF800003222000E1766302000AB007730AA00C1
:100D08002430A900A90B862EAA0B862EAB0B862EA3
:100D1800000080302000A7008530A8008431EE2430
:100D2800863115302000AB004B30AA00D130A90025
:100D3800A90B9C2EAA0B9C2EAB0B9C2E000073308B
:100D48002000A7008530A8008431EE2486311530B4
:100D58002000AB004B30AA00D130A900A90BB22E5D
:100D6800AA0BB22EAB0BB22E0000080015302000E3
:100D7800AF004B30AE00D130AD00AD0BC12EAE0B85
:100D8800C12EAF0BC12E000027302000A7008530F0
:100D9800A8008431EE24863115302000AF004B3096
:100DA800AE00D130AD00AD0BD72EAE0BD72EAF0BAA
:100DB800D72E000058302000A7008530A8008431C5
:100DC800EE24863120002A08A601A6072908A501D5
:100DD800A5078F313F2786312C308E31FF2686318B
:100DE80020002C08A601A6072B08A501A5078F310E
:100DF8003F2786318B302000A5008530A6008F3133
:100E08003F270800132F3330102F4030102F2A307F
:100E1800102F2430102F103023009B003E2F20006D
:100E28002508003A0319252F253A03192A2F6E3A67
:100E380003192F2F3B3A0319342FF33A0319392F8B
:100E48003E2F2408733A03190F2F3E2F2408803AA7
:100E58000319072F3E2F2408003A0319092F3E2FA4
:100E68002408803A03190B2F3E2F2408403A03190F
:100E78000D2F3E2F22009D171D1523009F151E13B1
:100E88009E161E121E159D171D131D169D1121005D
:100E980091160B178B1708005230860020308700F8
:100EA8000030C03F52308600203087004131810138
:100EB8005230860020308700523181012000A8017D
:100EC8000F30280203187E2F2808A400A5015530EA
:100ED800A6002030A7002408260786002508273DFD
:100EE800870081010130A4002408A8070F302802D8
:100EF800031C682FA801803028020318080028085E
:100F0800A400A5016B30A6002030A70024082607FE
:100F180086002508273D870081010130A4002408A8
:100F2800A8077F2F15302000AD004B30AC00D13022
:100F3800AB00AB0B9D2FAC0B9D2FAD0B9D2F000075
:100F480027302000A7008530A8008431EE2487319F
:100F580015302000AD004B30AC00D130AB00AB0BEE
:100F6800B32FAC0BB32FAD0BB32F000061302000B3
:100F7800A7008530A8008431EE24873120002A0894
:100F8800A601A6072908A501A5078F313F278731A4
:100F98008B302000A5008530A6008F313F27080040
:100FA8002000A601A7010730A4002408A700A71B5A
:100FB800FE2F0032003222000D17003200322000CE
:100FC8000D0E0139A400270AEA2FA435890BE92F51
:100FD80024082607A5002508A600003200322200B2
:100FE8000D1300320032FF302000A4002408A707A8
:080FF800A71FDD2F26080800E9
:101DFE002000A400111E012F240823009A000800C1
:101E0E0022000D138D138E13003200320032003279
:101E1E0008006400800101310130FE020030FF3BFA
:101E2E007F087E0403190034112F21008D130D132A
:101E3E008E130D1623008D0121000E108E100E1123
:101E4E000E128E160E130C12080022000D138D1793
:101E5E008E17003200320032003222000D1700328F
:101E6E0000320032003222000D1300320032080020
:101E7E002000250884002608850000080038031974
:101E8E0008002000250884002608850000088E31F1
:101E9E00FF268F3101302000A5070030A63D3F2FD1
:101EAE002000AE018F312C278F3120002C08A50188
:101EBE00A5072B08A401A40706308531FB258F3119
:101ECE008731D4278F312000AD002D08AE008F3121
:101EDE00072720002E0808002000A400822F6A3059
:101EEE0021009900080072302100990008007A3014
:101EFE0021009900080020002408043A0319762FC7
:101F0E000C3A03197A2F183A03197E2F8E2F0800D8
:101F1E002000A801A901241C982F2608A80727082D
:101F2E00A93D0130A635A70D890B992F0130A53695
:101F3E00A40C890B9E2F25082404031D922F29081B
:101F4E00A501A5072808A401A40708008F312C2796
:101F5E008F3100302000A4000630A50004308531FA
:101F6E00FB258F318F3107278F318F312C278F3102
:101F7E0020002C08A501A5072B08A401A4070530F5
:101F8E008531FB258F3120002D088F31D2278F31DF
:101F9E008F31072708002000A600A7010730A400F4
:101FAE002408A700A71B08002608A400270AE02F74
:101FBE00A436890BDF2F2408A500A50CA50C220042
:101FCE000E08200025067F39250622008E000032DD
:101FDE00003222000D170032003200320032220091
:101FEE000D1300320032FF302000A4002408A70792
:021FFE00D92FD9
:020000040001F9
:04000E00A4F9FFFE54
:00000001FF
