:04000000803116280D
:100008007E14803120007F08FB002100911E1128FA
:100018002000911E1128803131207B082000FF002C
:100028007E1009008031182878308400203085003F
:100038007830FE000030FF008B311B2380315530B3
:100048008400003085000C30FE000030FF008B314A
:100058001B237E1020008531D02D22000E14230092
:100068001908F00070082000A000783086002030C1
:1000780087000130C03FBD2A7830860020308700D5
:1000880041310108013A031DC52ADE08031DC52AAE
:10009800783086002030870041318101C52A7830C8
:1000A80086002030870041310108031D622879301D
:1000B800860020308700013081009A2A5E08F0000F
:1000C800F1019230F2002030F300700872078600C8
:1000D8007108733D870081017830860020308700E1
:1000E8004131810178308600203087005A3101087B
:1000F8002B3A031D812A78308600203087005B3137
:100108000108433A031D0B29783086002030870008
:100118005C3101084C3A031D0B29783086002030E9
:1001280087005D310108493A031D0B290830F000AA
:100138007008A200D32820002208F000F1019230B4
:10014800F2002030F3007008720786007108733DD2
:1001580087000108F4002208F83EF500FF30031874
:100168000030F6007C30F7002030F800750877077B
:10017800F9007608783DFA00790886007A08870041
:10018800740881000130F0007008A2070130F00007
:1001980078308600203087005331700881072208A4
:1001A800F000F1019230F2002030F300700872077D
:1001B80086007108733D87000108223A0319F62862
:1001C8002208F83EF000FF3003180030F1007108F3
:1001D800803AF20080307202031DF4280F3070025A
:1001E800031C9F2820002208F83EF000FF30031867
:1001F8000030F1007C30F2002030F3007008720704
:1002080086007108733D87008101E001E00A7830BB
:100218008600203087005B310108433A031D9C2982
:1002280078308600203087005C3101084D3A031D84
:100238009C2978308600203087005D310108543AC7
:10024800031D9C2978308600203087005E31010824
:10025800493A031D9C290C30F0007008A3005E2960
:100268002308F000F1019230F2002030F30070080A
:10027800720786007108733D87000108F40023089F
:10028800F43EF500FF3003180030F6008D30F7001B
:100298002030F80075087707F9007608783DFA00ED
:1002A800790886007A088700740881000130F00018
:1002B8007008A3072308F000F1019230F200203003
:1002C800F3007008720786007108733D87003030AC
:1002D8000102031C80292308F000F1019230F2008A
:1002E8002030F3007008720786007108733D87009C
:1002F8003A300102031C34292308F43EF000FF3091
:1003080003180030F1008D30F2002030F30070083F
:10031800720786007108733D870081018C30860062
:1003280020308700013081000230F0007008E000C2
:1003380078308600203087005B310108433A031D7E
:100348000D2A78308600203087005C310108533A46
:10035800031D0D2A78308600203087005D310108A2
:10036800513A031D0D2A0630F0007008A400E62952
:100378002408F000F1019230F2002030F3007008F8
:10038800720786007108733D87000108F40024088D
:10039800FA3EF500FF3003180030F600EB30F700A6
:1003A8002030F80075087707F9007608783DFA00DC
:1003B800790886007A088700740881000130F00007
:1003C8007008A4072408F000F1019230F2002030F0
:1003D800F3007008720786007108733D87000108F2
:1003E8002C3A0319FB2908302402031CBC292408D1
:1003F800FA3EF000FF3003180030F100EB30F20055
:100408002030F3007008720786007108733D87007A
:10041800810178308600203087005B310108433A3B
:10042800031D992A78308600203087005C31010846
:100438004D3A031D992A78308600203087005D31B7
:100448000108443A031D992A0430F0007008A100FD
:10045800582A20002108F000F1019230F2002030E3
:10046800F3007008720786007108733D8700010861
:10047800F4002108FC3EF500FF3003180030F600B8
:10048800D230F7002030F80075087707F9007608B1
:10049800783DFA00790886007A0887007408810098
:1004A8000130F0007008A1072108F000F101923036
:1004B800F2002030F3007008720786007108733D5F
:1004C80087000108233A03197B2A2108FC3EF00023
:1004D800FF3003180030F1007108803AF2008030D4
:1004E8007202031D792A19307002031C2D2A033069
:1004F800F00070082000E000992A7830860020304B
:1005080087005A3101084F3A031D992A783086002E
:10051800203087005B3101084B3A031D992A7A3055
:1005280086002030870001308100DE0178308600A7
:10053800203087000030C03FC52A3F305E020318D4
:10054800C52A5E08F000F1019230F2002030F30075
:1005580070087207F4007108733DF500740886008E
:1005680075088700200881000130F0007008DE0758
:10057800C52A20080A3A03195328073A03194028BC
:10058800A12A22000E100800D230860020308700F1
:1005980001083A3A031D0800D3302000B00020308B
:1005A800B1008E316E268231003A03190800D83026
:1005B8008600203087000108413A031D9A2BD93064
:1005C8008600203087000108443A031D9A2BDA3050
:1005D8008600203087000108443A031D9A2B0A3010
:1005E8002000C6004608DF002C2B5F08C600C701A4
:1005F800D230C8002030C90046084807860047089E
:10060800493D87000108CA005F08F63ECB00FF306D
:1006180003180030CC007C30CD002030CE004B08D1
:100628004D07CF004C084E3DD0004F0886005008BB
:1006380087004A0881000130C6004608DF070130FC
:10064800C60078308600203087005331460881077D
:100658005F08C600C701D230C8002030C90046086C
:10066800480786004708493D870030300102031CCF
:100678004E2B5F08C600C701D230C8002030C90021
:100688004608480786004708493D87003A30010276
:10069800031CF92A5F08F63EC600FF300318003035
:1006A800C7007C30C8002030C900460848078600CB
:1006B8004708493D870081017C30B0002030B100F7
:1006C800783086002030870053310108C60046087C
:1006D800B200863193268231200031083004031D90
:1006E8008E2B7C30BD002030BE0078308600203054
:1006F800870053310108C6004608BF008E311F2607
:1007080082317C302000AA002030AB001D30AC00C4
:100718008530962B7C302000AA002030AB00383082
:10072800AC008530AD008F3128278231D830860063
:10073800203087000108443A031D4E2CD93086002A
:10074800203087000108453A031D4E2CDA30860018
:100758002030870001084C3A031D4E2C0A30200037
:10076800C6004608DF00EB2B5F08C600C701D23081
:10077800C8002030C9004608480786004708493D98
:1007880087000108CA005F08F63ECB00FF30031857
:100798000030CC007C30CD002030CE004B084D0717
:1007A800CF004C084E3DD0004F0886005008870007
:1007B8004A0881000130C6004608DF070130C6003C
:1007C80078308600203087005331460881075F085B
:1007D800C600C701D230C8002030C9004608480703
:1007E80086004708493D870030300102031C0D2C64
:1007F8005F08C600C701D230C8002030C9004608CB
:10080800480786004708493D87003A300102031C23
:10081800B82B5F08F63EC600FF3003180030C7004B
:100828007C30C8002030C9004608480786004708C1
:10083800493D870081017C30B0002030B10078301C
:1008480086002030870053310108C6004608B200F0
:1008580086319326823120003008C7004708D1002E
:10086800510803194E2C5108FF3EAF00FF30031802
:100878000030B0008C31CB2482317C302000AA00BB
:100888002030AB000030AC008530AD008F31282718
:1008980082312000D8308600203087000108463A8F
:1008A800031D0800D9308600203087000108413A2E
:1008B800031D0800DA308600203087000108433A1B
:1008C800031D08008D3106258231C2302000AF009B
:1008D8008530B00087311B2708002000B901BA0114
:1008E8000130B7000030B800BB01BC013308A601D5
:1008F800A6073208A501A5070A30A7000030A800FE
:100908008B319B23843120002608BC01BC072508B5
:10091800BB01BB073B08093EBB0000303C3DBC00A7
:100928000A30B9000030BA003A083904031908003F
:1009380031080319CF2C0130B1023108B400B501D8
:1009480034082F0786003508303D87003030010213
:10095800031CDA2C3108B400B50134082F078600CF
:100968003508303D87003A3001020318DA2C3C087C
:10097800AD01AD073B08AC01AC073108B400B501C7
:1009880034082F0786003508303D87000108B60077
:100998003608AE00D72C20003C08AD01AD073B0857
:1009A800AC01AC07AE018B31B92384310130200092
:1009B800BB020030BC3B0D30B500FB30B400B40BBB
:1009C800E32CB50BE32C003201302000B9020030D3
:1009D800BA3B982C0D308B310A2384310A308B3185
:1009E8000A23843120002908A701A7072808A6019F
:1009F800A6078B314B23080059346F347534723491
:100A080020346E3475346D34623465347234203475
:100A180068346134643420346234653465346E3447
:100A28002034643465346C34653474346534643427
:100A3800003459346F347534723420346E3475345C
:100A48006D3462346534723420346834613464340B
:100A580020346234653465346E342034613464344F
:100A6800643465346434003459346F347534723402
:100A780020346E3475346D34623465347234203405
:100A880061346C34723465346134643479342034BC
:100A980065347834693473347434003453347934B5
:100AA8007334743465346D34203465346E34613491
:100AB80062346C34653464340034413454342B3437
:100AC80043344D344734463420343D3420343134B3
:100AD8000D340A340034413454342B3443344C3408
:100AE800493450343D3431340D340A34003436340A
:100AF80031343434313436343534343438343134B0
:100B080038340034413454342B3443344D3447346E
:100B180053343D3422340034413454342B34433478
:100B2800533451340D340A340034413454342B34A2
:100B380043344D34473444343D3400344134543420
:100B48002B3443344D34473452343D34003441342B
:100B58005434453430340D340A3400344134543478
:100B680048340D340A340034413454340D340A34D2
:100B78000034413454340A340D34003431343234BE
:100B880033343434003422340D340A3400342D34F0
:100B98003E3400343134003408308B317F238531C2
:100BA80073302000A5000030A6008D3188258531DE
:100BB8008B31272385318F3191278531C230200031
:100BC800AF008530B00087311B27853122008E1099
:100BD8000E100E118B1723001D167B302000AA0063
:100BE8008530AB005230AC008530AD008F312827FE
:100BF8008531832E23009D1C092E1D12853020006F
:100C0800D200D20B052E23001D1690302000A8001C
:100C18008530A9008431EE24853115302000D400B8
:100C28004B30D300D130D200D20B182ED30B182E54
:100C3800D40B182E0000832EB2302000A800853077
:100C4800A9008431EE2485317C302000B0002030AA
:100C5800B100783086002030870053310108D20077
:100C68005208B200863193268531200031083004BD
:100C78000319512E22000C160B302000D400263008
:100C8800D3006630D200D20B472ED30B472ED40B9D
:100C9800472E003222000C12552E05308C31382494
:100CA8008531873199278531812E05308C310A2489
:100CB80085318D302000AA002030AB008D31D2253F
:100CC800853103302000D2005208E000832E220034
:100CD8008E148231C8228531873199278531CE30EB
:100CE8002000AA008530AB00C530AC008530AD00CF
:100CF8008D314325853122008E102000E00120002F
:100D08006008003A0319FE2D013A0319202E033A10
:100D18000319592E013A03196B2E832E832E2000B6
:100D2800BD01BE01B901BA01BB01BC010930BD005A
:100D38000030BE000B303202031CF42E0A30B30020
:100D48003308B200F42EB901BA013908013EB300E4
:100D580000303A3DB400B309B409B30A0319B40A20
:100D680033083007B5003408313DB6003508860031
:100D7800360887004A313909B7003A09B800B70A76
:100D88000319B80A3D083707AC003E08383DAD00E6
:100D98008B31632386310106031DD82E01302000D4
:100DA800BB000030BC00DB2E2000BB01BC010130C1
:100DB800B9070030BA3D3C083B040319EE2E32084F
:100DC800B300B40134083A02031DEC2E330839028B
:100DD800031CA92E3D080A3EBD0000303E3DBE0062
:100DE8003C083B04031DFF2E06303E02FE3003196B
:100DF8003D02031CA72E01303B063C04031D182F9F
:100E08000A30A5000030A6003E08A801A8073D0842
:100E1800A701A7078C31942420002608B101B10747
:100E28002508B001B0070800B001B10108006C3016
:100E38002000AC000730AD002F0884003008850082
:100E48000008B1003108AE008B31B92387310D306D
:100E58002000B200FB30B100B10B302FB20B302FA5
:100E680000326D302000AC000730AD003008B20011
:100E78002F08B10001303107840032080318320A04
:100E880085000008B3003308AE008B31B9238731E1
:100E98000D302000B200FB30B100B10B512FB20B66
:100EA800512F00326E302000AC000730AD00300802
:100EB800B2002F08B100023031078400320803184D
:100EC800320A85000008B3003308AE008B31B9231D
:100ED80087310D302000B200FB30B100B10B722F0A
:100EE800B20B722F00326F302000AC000730AD001B
:100EF8003008B2002F08B1000330310784003208EF
:100F08000318320A85000008B3003308AE008B319D
:100F1800B92387310D302000B200FB30B100B10B8E
:100F2800932FB20B932F00320800783086002030C0
:100F380087000030C03F783086002030870041317C
:100F48008101783086002030870053318101783064
:100F5800860020308700423181012000A9010F302E
:100F680029020318CD2F2908A500A6017C30A70067
:100F78002030A8002508270786002608283D870076
:100F880081010130A5002508A9070F302902031C9B
:100F9800B72FA901403029020318E82F2908A50016
:100FA800A6019230A7002030A80025082707860050
:100FB8002608283D870081010130A5002508A907DA
:100FC80040302902031CD22FA90119302902031825
:100FD80008002908A500A601D230A7002030A800E3
:100FE8002508270786002608283D8700810101304B
:080FF800A5002508A907E92F57
:101614002000A500111E0C2B250823009A000800A9
:1016240022000D138D138E1300320032003200326B
:1016340008006400800101310130FE020030FF3BEC
:101644007F087E04031900341C2B21008D130D1315
:101654008E130D1623008D0121000E108E100E1115
:101664000E128E160E130C128C12080022000D138B
:101674008D178E17003200320032003222000D170F
:10168400003200320032003222000D1300320032E8
:101694000800200026088400270885000008003878
:1016A4000319080020002608840027088500000884
:1016B4008B310A238B3101302000A6070030A73D6F
:1016C4004B2B2000AF018B3138238B3120002D08A8
:1016D400A601A6072C08A501A50706308E31C2264F
:1016E4008B318B31DE238B312000AE002E08AF000E
:1016F4008B31122320002F0808002000A5008E2B18
:101704006A30210099000800723021009900080015
:101714007A3021009900080020002508043A0319B2
:10172400822B0C3A0319862B183A03198A2B9A2B0D
:1017340008002000A901AA01251CA42B2708A90739
:101744002808AA3D0130A735A80D890BA52B013027
:10175400A636A50C890BAA2B26082504031D9E2B4F
:101764002A08A601A6072908A501A50708008B31A8
:1017740038238B3100302000A5000630A600043049
:101784008E31C2268B318B3112238B318B3138232E
:101794008B3120002D08A601A6072C08A501A5075A
:1017A40005308E31C2268B3120002E088C31662400
:1017B4008B318B31122308002000A701A8010730C8
:1017C400A5002508A800A81B082C0032003222001E
:1017D4000D170032003220000D0E0139A500280A31
:1017E400F42BA535890BF32B25082707A60026081B
:1017F400A7000032003222000D1300320032FF3005
:101804002000A5002508A807A81FE72B2708080023
:101814002000A800A901A90128082902031808002A
:1018240022000E1402302000A7000430A600BA30B3
:10183400A500A50B1B2CA60B1B2CA70B1B2C000017
:1018440022000E1002302000A7000430A600BA3097
:10185400A500A50B2B2CA60B2B2CA70B2B2C0000C7
:1018640001302000A5002508A9070E2C2000A8009F
:10187400A901A901280829020318080022008E14CE
:1018840002302000A7000430A600BA30A500A50B42
:10189400492CA60B492CA70B492C000022008E10C2
:1018A40002302000A7000430A600BA30A500A50B22
:1018B400592CA60B592CA70B592C000001302000E1
:1018C400A5002508A9073C2C2000A700A801073083
:1018D400A5002508A800A81B08002708A500280AB9
:1018E400742CA536890B732C2508A600A60CA60C0F
:1018F40022000E08200026067F39260622008E00CC
:101904000032003222000D17003200320032003261
:1019140022000D1300320032FF302000A5002508FC
:10192400A8076D2C2000AA01AB0126082504031981
:10193400C42CAC01AC0AA61BA92C0130A535A60DFC
:10194400890BA02C0130A9002908AC079D2C01307B
:10195400AA35AB0D890BAA2C26082802031DB42C2A
:1019640025082702031CBB2C2508A7022608A83B30
:101974002A140130A636A50C890BBC2C0130AC020C
:10198400031DA92C2B08A601A6072A08A501A50753
:1019940008002000B501B301B4013008A601A60770
:1019A4002F08A501A5070A30A7000030A8008B3135
:1019B4009B238C3120002608B401B4072508B30109
:1019C400B307B5010A303502031808003508330798
:1019D400AC0034080318340AAD00FF30B1003108FC
:1019E400AE008B31B9238C310D302000B200FB30B6
:1019F400B100B10BFB2CB20BFB2C003201302000E8
:101A0400B1003108B507E42C22008D130230200008
:101A1400AE000430AD00BA30AC00AC0B0F2DAD0BF2
:101A24000F2DAE0B0F2D00008B3138238D3100307C
:101A34002000A5000630A60004308E31C2268D3168
:101A44008B3112238D318B3138238D3100302000BE
:101A5400A5000430A60004308E31C2268D318B31AE
:101A640012238D3106302000AE001330AD00B130AA
:101A7400AC00AC0B3B2DAD0B3B2DAE0B3B2D003224
:101A840008000B302000B0002630AF006630AE00F6
:101A9400AE0B4A2DAF0B4A2DB00B4A2D00329930B4
:101AA4002000A8008530A9008431EE248D31200067
:101AB4002B08A701A7072A08A601A6078B314B23E9
:101AC4008D312C308B310A238D3120002D08A70154
:101AD400A7072C08A601A6078B314B238D31C830EC
:101AE4002000A6008530A7008B314B238D311530A3
:101AF4002000B0004B30AF00D130AE00AE0B802DD3
:101B0400AF0B802DB00B802D00000800952D3330D5
:101B1400922D4030922D2A30922D2430922D103067
:101B240023009B00C02D20002608003A0319A72D8E
:101B3400253A0319AC2D6E3A0319B12D3B3A03191A
:101B4400B62DF33A0319BB2DC02D2508733A03199A
:101B5400912DC02D2508803A0319892DC02D250803
:101B6400003A03198B2DC02D2508803A03198D2DB9
:101B7400C02D2508403A03198F2DC02D22009D1732
:101B84001D1523009F151E139E161E121E159D174C
:101B94001D131D169D11210091160B178B1708009C
:101BA40015302000AE004B30AD00D130AC00AC0B92
:101BB400D92DAD0BD92DAE0BD92D000061302000ED
:101BC400A8008530A9008431EE248D311530200021
:101BD400AE004B30AD00D130AC00AC0BEF2DAD0BF3
:101BE400EF2DAE0BEF2D0000A2302000A8008530B1
:101BF400A9008431EE248D3120002B08A701A7070A
:101C04002A08A601A6078B314B238D31C83020004A
:101C1400A6008530A7008B314B238D311530200071
:101C2400AE004B30AD00D130AC00AC0B172EAD0B79
:101C3400172EAE0B172E000008002000C401C501AA
:101C4400C101C201C3014508A601A6074408A501B4
:101C5400A5070A30A7000030A8008B319B238E31E2
:101C640020002608AD01AD072508AC01AC078B3177
:101C740063238E312000C0004008C300303043028B
:101C8400031C482E3A304302031C4C2E0130C10081
:101C94000030C2000130C4070030C53D4208410491
:101CA400031D5B2E00304502B43003194402031CAB
:101CB400252E3E08B001B0073D08AF01AF073F082D
:101CC400C0004008B1004408FF3EB200FF30453D6B
:101CD400B3008431712408006C302000AC0007305C
:101CE400AD008B3163238E312000B2003208DA005C
:101CF4006D30AC000730AD008B3163238E31200092
:101D0400B2003208DB006E30AC000730AD008B311E
:101D140063238E312000B2003208DC006F30AC0047
:101D24000730AD008B3163238E312000B2003208BE
:101D3400DD00300886003108870001085A06031DBB
:101D4400C02E3008860031088700413101085B0647
:101D5400031DC02E30088600310887004231010877
:101D64005C06031DC02E300886003108870043310D
:101D740001085D06031DC02E013008000030080074
:101D84002000AA00AB012A360139A700A70CA70C32
:101D940022000E08200027067F39270622008E0025
:101DA4000032003222000D170032003200320032BD
:101DB40022000D130032003220002A080139A70046
:101DC400A70CA70C22000E08200027067F3927063F
:101DD40022008E000032003222000D170032003241
:101DE4000032003222000D13003200320A3020008B
:101DF400A7002708AB00AB1B08002608A80025088D
:101E0400A7002B0A072FA836A70C890B052F270834
:101E14000139A900A90CA90C22000E0820002906EA
:101E24007F39290622008E000032003222000D176D
:101E3400003200320032003222000D130032003230
:101E4400FF302000A7002708AB07FD2E1530200027
:101E5400B0004B30AF00D130AE00AE0B2F2FAF0B24
:101E64002F2FB00B2F2F000061302000A8008530E9
:101E7400A9008431EE248F3115302000B0004B309E
:101E8400AF00D130AE00AE0B452FAF0B452FB00BDA
:101E9400452F000086302000A8008530A900843139
:101EA400EE248F3120002B08A701A7072A08A601DA
:101EB400A6078B314B238F31C7302000A600853015
:101EC400A7008B314B238F3115302000B0004B30ED
:101ED400AF00D130AE00AE0B6D2FAF0B6D2FB00B3A
:101EE4006D2F000020002D08A701A7072C08A601CC
:101EF400A6078B314B238F311A308B310A238F3154
:101F040015302000B0004B30AF00D130AE00AE0B26
:101F1400892FAF0B892FB00B892F000008002200F6
:101F24000E171A302000AB00F830AA00AA0B982F25
:101F3400AB0B982F000022000E1306302000AC00DB
:101F44001330AB00B130AA00AA0BA62FAB0BA62FFF
:101F5400AC0BA62F003222000E1766302000AC0016
:101F64007730AB002430AA00AA0BB62FAB0BB62FE8
:101F7400AC0BB62F0000B8302000A8008530A900B3
:101F84008431EE248F3115302000AC004B30AB008F
:101F9400D130AA00AA0BCC2FAB0BCC2FAC0BCC2F7F
:101FA4000000AB302000A8008530A9008431EE2465
:101FB4008F3115302000AC004B30AB00D130AA007B
:101FC400AA0BE22FAB0BE22FAC0BE22F00006F3019
:101FD4002000A8008530A9008431EE248F3115300B
:101FE4002000AC004B30AB00D130AA00AA0BF82F74
:0C1FF400AB0BF82FAC0BF82F000008001E
:020000040001F9
:04000E00A4F9FFFE54
:00000001FF
