:04000000803116280D
:100008007E14803120007F08FB002100911E1128FA
:100018002000911E1128803131207B082000FF002C
:100028007E1009008031182878308400203085003F
:100038007830FE000030FF008B316423803153306C
:100048008400003085000C30FE000030FF008B314A
:1000580064237E1020008531B32D22000E14230066
:100068001908F00070082000A000783086002030C1
:1000780087000130C03FBD2A7830860020308700D5
:1000880041310108013A031DC52ADC08031DC52AB0
:10009800783086002030870041318101C52A7830C8
:1000A80086002030870041310108031D622879301D
:1000B800860020308700013081009A2A5C08F00011
:1000C800F1019230F2002030F300700872078600C8
:1000D8007108733D870081017830860020308700E1
:1000E8004131810178308600203087005A3101087B
:1000F8002B3A031D812A78308600203087005B3137
:100108000108433A031D0B29783086002030870008
:100118005C3101084C3A031D0B29783086002030E9
:1001280087005D310108493A031D0B290830F000AA
:100138007008A200D32820002208F000F1019230B4
:10014800F2002030F3007008720786007108733DD2
:1001580087000108F4002208F83EF500FF30031874
:100168000030F6007C30F7002030F800750877077B
:10017800F9007608783DFA00790886007A08870041
:10018800740881000130F0007008A2070130F00007
:1001980078308600203087005331700881072208A4
:1001A800F000F1019230F2002030F300700872077D
:1001B80086007108733D87000108223A0319F62862
:1001C8002208F83EF000FF3003180030F1007108F3
:1001D800803AF20080307202031DF4280F3070025A
:1001E800031C9F2820002208F83EF000FF30031867
:1001F8000030F1007C30F2002030F3007008720704
:1002080086007108733D87008101DE01DE0A7830BF
:100218008600203087005B310108433A031D9C2982
:1002280078308600203087005C3101084D3A031D84
:100238009C2978308600203087005D310108543AC7
:10024800031D9C2978308600203087005E31010824
:10025800493A031D9C290C30F0007008A3005E2960
:100268002308F000F1019230F2002030F30070080A
:10027800720786007108733D87000108F40023089F
:10028800F43EF500FF3003180030F6008D30F7001B
:100298002030F80075087707F9007608783DFA00ED
:1002A800790886007A088700740881000130F00018
:1002B8007008A3072308F000F1019230F200203003
:1002C800F3007008720786007108733D87003030AC
:1002D8000102031C80292308F000F1019230F2008A
:1002E8002030F3007008720786007108733D87009C
:1002F8003A300102031C34292308F43EF000FF3091
:1003080003180030F1008D30F2002030F30070083F
:10031800720786007108733D870081018C30860062
:1003280020308700013081000230F0007008DE00C4
:1003380078308600203087005B310108433A031D7E
:100348000D2A78308600203087005C310108533A46
:10035800031D0D2A78308600203087005D310108A2
:10036800513A031D0D2A0630F0007008A400E62952
:100378002408F000F1019230F2002030F3007008F8
:10038800720786007108733D87000108F40024088D
:10039800FA3EF500FF3003180030F600EB30F700A6
:1003A8002030F80075087707F9007608783DFA00DC
:1003B800790886007A088700740881000130F00007
:1003C8007008A4072408F000F1019230F2002030F0
:1003D800F3007008720786007108733D87000108F2
:1003E8002C3A0319FB2908302402031CBC292408D1
:1003F800FA3EF000FF3003180030F100EB30F20055
:100408002030F3007008720786007108733D87007A
:10041800810178308600203087005B310108433A3B
:10042800031D992A78308600203087005C31010846
:100438004D3A031D992A78308600203087005D31B7
:100448000108443A031D992A0430F0007008A100FD
:10045800582A20002108F000F1019230F2002030E3
:10046800F3007008720786007108733D8700010861
:10047800F4002108FC3EF500FF3003180030F600B8
:10048800D230F7002030F80075087707F9007608B1
:10049800783DFA00790886007A0887007408810098
:1004A8000130F0007008A1072108F000F101923036
:1004B800F2002030F3007008720786007108733D5F
:1004C80087000108233A03197B2A2108FC3EF00023
:1004D800FF3003180030F1007108803AF2008030D4
:1004E8007202031D792A19307002031C2D2A033069
:1004F800F00070082000DE00992A7830860020304D
:1005080087005A3101084F3A031D992A783086002E
:10051800203087005B3101084B3A031D992A7A3055
:1005280086002030870001308100DC0178308600A9
:10053800203087000030C03FC52A3F305C020318D6
:10054800C52A5C08F000F1019230F2002030F30077
:1005580070087207F4007108733DF500740886008E
:1005680075088700200881000130F0007008DC075A
:10057800C52A20080A3A03195328073A03194028BC
:10058800A12A22000E100800D230860020308700F1
:1005980001083A3A031D0800D3302000B00020308B
:1005A800B1008E3176268231003A03190800D8301E
:1005B8008600203087000108413A031D992BD93065
:1005C8008600203087000108443A031D992BDA3051
:1005D8008600203087000108443A031D992B0A3011
:1005E8002000C4004408DD002C2B5D08C400C501B0
:1005F800D230C6002030C7004408460786004508A8
:10060800473D87000108C8005D08F63EC900FF3075
:1006180003180030CA007C30CB002030CC004908D9
:100628004B07CD004A084C3DCE004D0886004E08C9
:100638008700480881000130C4004408DD07013004
:10064800C400783086002030870053314408810781
:100658005D08C400C501D230C6002030C700440878
:10066800460786004508473D870030300102031CD5
:100678004E2B5D08C400C501D230C6002030C7002B
:100688004408460786004508473D87003A3001027E
:10069800031CF92A5D08F63EC400FF300318003039
:1006A800C5007C30C6002030C700440846078600D5
:1006B8004508473D870081017C30B0002030B100FB
:1006C800783086002030870053310108C400440880
:1006D800B20087315A2782310038031D8D2B7C30B8
:1006E8002000BB002030BC00783086002030870016
:1006F80053310108C4004408BD008D31962582316C
:100708007C302000AA002030AB001D30AC008530C2
:10071800952B7C302000AA002030AB003830AC008C
:100728008530AD008F3197278231D8308600203050
:1007380087000108443A031D4C2CD930860020302C
:1007480087000108453A031D4C2CDA30860020301A
:10075800870001084C3A031D4C2C0A302000C400C5
:100768004408DD00EA2B5D08C400C501D230C6008C
:100778002030C7004408460786004508473D8700E3
:100788000108C8005D08F63EC900FF3003180030B4
:10079800CA007C30CB002030CC0049084B07CD0084
:1007A8004A084C3DCE004D0886004E088700480890
:1007B80081000130C4004408DD070130C4007830EE
:1007C8008600203087005331440881075D08C40043
:1007D800C501D230C6002030C7004408460786004D
:1007E8004508473D870030300102031C0C2C5D088A
:1007F800C400C501D230C6002030C70044084607EF
:1008080086004508473D87003A300102031CB72B94
:100818005D08F63EC400FF3003180030C5007C3088
:10082800C6002030C7004408460786004508473DF3
:10083800870081017C30B0002030B100783086001C
:100848002030870053310108C4004408B2008731C2
:100858005A2782312000C5004508CF004F080319E8
:100868004C2C4F08FF3EAF00FF3003180030B0009B
:100878008C31D92482317C302000AA002030AB0092
:100888000030AC008530AD008F31972782312000D1
:10089800D8308600203087000108463A031D08003A
:1008A800D9308600203087000108413A031D08002E
:1008B800DA308600203087000108433A031D08001B
:1008C8008D3114258231A8302000AF008530B0006A
:1008D80086316526080022000E171A302000AB006A
:1008E800F830AA00AA0B762CAB0B762C000022005D
:1008F8000E1306302000AC001330AB00B130AA0054
:10090800AA0B842CAB0B842CAC0B842C0032220059
:100918000E1766302000AC007730AB002430AA00F8
:10092800AA0B942CAB0B942CAC0B942C00009E308F
:100938002000A8008530A9008B3180238431153030
:100948002000AC004B30AB00D130AA00AA0BAA2C77
:10095800AB0BAA2CAC0BAA2C000091302000A800ED
:100968008530A9008B318023843115302000AC00FC
:100978004B30AB00D130AA00AA0BC02CAB0BC02C5B
:10098800AC0BC02C000060302000A8008530A90006
:100998008B318023843115302000AC004B30AB0004
:1009A800D130AA00AA0BD62CAB0BD62CAC0BD62C6C
:1009B800000008002000A901AA01251CE72C27082F
:1009C800A9072808AA3D0130A735A80D890BE82CEE
:1009D8000130A636A50C890BED2C26082504031D2D
:1009E800E12C2A08A601A6072908A501A5070800E1
:100A000059346F347534723420346E3475346D3427
:100A10006234653472342034683461346434203490
:100A20006234653465346E342034643465346C3437
:100A30006534743465346434003459346F34753437
:100A4000723420346E3475346D34623465347234EB
:100A5000203468346134643420346234653465345D
:100A60006E34203461346434643465346434003466
:100A700059346F347534723420346E3475346D34B7
:100A8000623465347234203461346C3472346534C9
:100A9000613464347934203465347834693473349F
:100AA00074340034413454342B3443344D3447349B
:100AB000463420343D34203431340D340A3400348B
:100AC000413454342B3443344C34493450343D3461
:100AD00031340D340A340034413454342B3443342B
:100AE0004D34473453343D3422340034413454348B
:100AF0002B344334533451340D340A3400344134EC
:100B000054342B3443344D34473444343D3400346E
:100B1000413454342B3443344D34473452343D340F
:100B2000003441345434453430340D340A34003404
:100B30004134543448340D340A340034413454348C
:100B40000D340A340034413454340A340D34003442
:100B50003134323433343434003422340D340A34F2
:100B600000343134003408308B31D923853173306F
:100B70002000A5000030A6008D31DF2585318B31A6
:100B80007023853184316F248531A8302000AF0077
:100B90008530B00086316526853122000E108E101A
:100BA0008B1723001D16552E23009D1CDF2D1D12B3
:100BB00085302000D000D00BDB2D23001D167630B1
:100BC0002000A8008530A9008B31802385311530A5
:100BD0002000D2004B30D100D130D000D00BEE2D10
:100BE000D10BEE2DD20BEE2D0000552E98302000AB
:100BF000A8008530A9008B31802385317C3020000E
:100C0000B0002030B10078308600203087005331AA
:100C10000108D0005008B20087315A278531003AC8
:100C20000319252E22000C160B302000D20026308E
:100C3000D1006630D000D00B1B2ED10B1B2ED20B57
:100C40001B2E003222000C12292E05308C31742408
:100C500085318F3130278531532E05308C31462434
:100C600085318D302000AA002030AB008E3129263E
:100C7000853103302000D0005008DE00552E2200C0
:100C80000E148231C82285318F3130278531B13041
:100C90002000AA008530AB00AB30AC008530AD0041
:100CA0008D31512585312000DE0120005E08003A9B
:100CB0000319D42D013A0319F62D033A03192D2EE9
:100CC000013A03193F2E552E552EBE302000AC00A0
:100CD0000030AD002F088400300885000008B10006
:100CE0003108AE008B31F52386310D302000B20083
:100CF000FB30B100B10B7A2EB20B7A2E0032BF302E
:100D00002000AC000030AD003008B2002F08B10068
:100D100001303107840032080318320A85000008C8
:100D2000B3003308AE008B31F52386310D3020003F
:100D3000B200FB30B100B10B9B2EB20B9B2E0032E8
:100D4000C0302000AC000030AD003008B2002F08E9
:100D5000B10002303107840032080318320A8500DE
:100D60000008B3003308AE008B31F52386310D3017
:100D70002000B200FB30B100B10BBC2EB20BBC2E78
:100D80000032C1302000AC000030AD003008B200AD
:100D90002F08B10003303107840032080318320AEB
:100DA00085000008B3003308AE008B31F52386318F
:100DB0000D302000B200FB30B100B10BDD2EB20BC4
:100DC000DD2E003208002000B801B701B70AB901D2
:100DD000BA013308A601A6073208A501A5070A3003
:100DE000A7000030A8008431DE24863120002608C8
:100DF000BA01BA072508B901B9073908093EB9008F
:100E000000303A3DBA000A30B4003408B800B808DF
:100E100003190800310803193D2F0130B1023108D0
:100E2000B400B50134082F0786003508303D87002F
:100E300030300102031C482F3108B400B5013408DA
:100E40002F0786003508303D87003A30010203182D
:100E5000482F3A08AD01AD073908AC01AC0731089D
:100E6000B400B50134082F0786003508303D8700EF
:100E70000108B6003608AE00452F20003A08AD0143
:100E8000AD073908AC01AC07AE018B31F5238631D3
:100E900001302000B9020030BA3B0D30B500FB3004
:100EA000B400B40B512FB50B512F0032013020008C
:100EB000B802072F2000BB01BC01B901BA010930FB
:100EC000BB000030BC000B303202031CAF2F0A30D5
:100ED000B3003308B200AF2FB9013908013EB300A7
:100EE000003003180130B400B309B409B30A031980
:100EF000B40A33083007B5003408313DB600350870
:100F00008600360887004A313908B700B801B709AA
:100F1000B809B70A0319B80A3B083707AC003C0800
:100F2000383DAD008B31BD2387310106031D9C2F59
:100F30002000BA01BA0A9E2F2000BA010130B30086
:100F40003308B9073A080319A92F32083902031CDC
:100F50006D2F3B080A3EBB0000303C3DBC00BA0888
:100F6000031DB92F00303C02AA3003193B02031CB9
:100F70006C2F3A08013A031DCC2F0A30A50000302F
:100F8000A6003C08A801A8073B08A701A7078C31C9
:100F9000A224200025080800003008002000A70037
:100FA000A8010730A5002508A800A81B08002708ED
:100FB000A500280ADC2FA536890BDB2F2508A60003
:100FC000A60CA60C22000E08200026067F39260655
:100FD00022008E000032003222000D170032003253
:100FE0000032003222000D1300320032FF302000A8
:080FF000A5002508A807D52F74
:1016A6002000A500111E552B250823009A000800CE
:1016B60022000D138D138E130032003200320032D9
:1016C60008006400800101310130FE020030FF3B5A
:1016D6007F087E0403190034652B21008D130D133A
:1016E6008E130D1623008D0121000E108E100E1183
:1016F6000E128E160E130C1208000D308B3153236A
:101706008B310A308B3153238B3120002908A701F6
:10171600A7072808A601A6078B31A52308002200E3
:101726000D138D178E170032003200320032220060
:101736000D17003200320032003222000D13003243
:1017460000320800200026088400270885000008CB
:1017560000380319080020002608840027088500A1
:1017660000088B3153238B3101302000A60700304F
:10177600A73DA52B2000AF018B3192238B31200092
:101786002D08A601A6072C08A501A50706308E314F
:10179600CA268B318C311A248B312000AE002E08DC
:1017A600AF008B315B2320002F0808002000A50026
:1017B600E82B6A3021009900080072302100990058
:1017C60008007A3021009900080020002508043A14
:1017D6000319DC2B0C3A0319E02B183A0319E42BF6
:1017E600F42B08008B3192238B3100302000A500AA
:1017F6000630A60004308E31CA268B318B315B232E
:101806008B318B3192238B3120002D08A601A60740
:101816002C08A501A50705308E31CA268B3120007C
:101826002E088731CE278B318B315B2308002000B1
:10183600A701A8010730A5002508A800A81B442C6D
:101846000032003222000D170032003220000D0E49
:101856000139A500280A302CA535890B2F2C25081F
:101866002707A6002608A7000032003222000D1323
:1018760000320032FF302000A5002508A807A81F67
:10188600232C270808002000A800A901A901280880
:1018960029020318080022008E1402302000A70037
:1018A6000430A600BA30A500A50B572CA60B572C62
:1018B600A70B572C000022008E1002302000A70034
:1018C6000430A600BA30A500A50B672CA60B672C22
:1018D600A70B672C000001302000A5002508A907EA
:1018E6004A2C2000A800A901A901280829020318EA
:1018F600080022000E1402302000A7000430A600C3
:10190600BA30A500A50B852CA60B852CA70B852C1C
:10191600000022000E1002302000A7000430A600AE
:10192600BA30A500A50B952CA60B952CA70B952CCC
:10193600000001302000A5002508A907782C20000A
:10194600AA01AB01260825040319D22CAC01AC0A66
:10195600A61BB72C0130A535A60D890BAE2C013080
:10196600A9002908AC07AB2C0130AA35AB0D890BB1
:10197600B82C26082802031DC22C25082702031CA2
:10198600C92C2508A7022608A83B2A140130A6362A
:10199600A50C890BCA2C0130AC02031DB72C2B08F1
:1019A600A601A6072A08A501A50708002000B5017B
:1019B600B301B4013008A601A6072F08A501A507A3
:1019C6000A30A7000030A8008431DE248C312000C4
:1019D6002608B401B4072508B301B307B5010A30D8
:1019E60035020318080035083307AC00340803181D
:1019F600340AAD00FF30B1003108AE008B31F5235B
:101A06008C310D302000B200FB30B100B10B092D36
:101A1600B20B092D003201302000B1003108B507A4
:101A2600F22C22008D1302302000AE000430AD00EF
:101A3600BA30AC00AC0B1D2DAD0B1D2DAE0B1D2D04
:101A460000008B3192238D3100302000A500063036
:101A5600A60004308E31CA268D318B315B238D3141
:101A66008B3192238D3100302000A5000430A60072
:101A760004308E31CA268D318B315B238D31063091
:101A86002000AE001330AD00B130AC00AC0B492DD8
:101A9600AD0B492DAE0B492D003208000B3020004E
:101AA600B0002630AF006630AE00AE0B582DAF0B3F
:101AB600582DB00B582D00327F302000A8008530FD
:101AC600A9008B3180238D3120002B08A701A707A1
:101AD6002A08A601A6078B31A5238D312C308B3120
:101AE60053238D3120002D08A701A7072C08A60136
:101AF600A6078B31A5238D31AE302000A600853098
:101B0600A7008B31A5238D3115302000B0004B3056
:101B1600AF00D130AE00AE0B8E2DAF0B8E2DB00BBD
:101B26008E2D000008002000C301C101C201430838
:101B3600BE00BF013E08A5003F08A6000A30A70068
:101B46000030A8008431DE248D3120002608AD0146
:101B5600AD072508AC01AC078B31BD238D312000C4
:101B6600C0004008C20030304202031CBE2D3A308D
:101B76004202031CC02DC101C10A0130BE003E084D
:101B8600C307C108031DCB2DB4304302031C9A2D95
:101B96003C08B001B0073B08AF01AF073D08BE00E7
:101BA6003E08B1004308FF3EB200FF300318003084
:101BB600B3008631E3260800EC2D3330E92D4030A2
:101BC600E92D2A30E92D2430E92D103023009B0021
:101BD600172E20002608003A0319FE2D253A031970
:101BE600032E6E3A0319082E3B3A03190D2EF33ACB
:101BF6000319122E172E2508733A0319E82D172EEE
:101C06002508803A0319E02D172E2508003A0319F6
:101C1600E22D172E2508803A0319E42D172E2508E4
:101C2600403A0319E62D172E22009D171D15230095
:101C36009F151E139E161E121E159D171D131D168B
:101C46009D11210091160B178B17080015302000E7
:101C5600AE004B30AD00D130AC00AC0B302EAD0B2E
:101C6600302EAE0B302E000052302000A8008530FA
:101C7600A9008B3180238E3115302000AE004B3009
:101C8600AD00D130AC00AC0B462EAD0B462EAE0BE4
:101C9600462E000088302000A8008530A9008B3130
:101CA60080238E3120002B08A701A7072A08A6014A
:101CB600A6078B31A5238E31AE302000A6008530D5
:101CC600A7008B31A5238E3115302000AE004B3096
:101CD600AD00D130AC00AC0B6E2EAD0B6E2EAE0B44
:101CE6006E2E00000800BE302000AC000030AD00B3
:101CF6008B31BD238E312000B2003208D800BF30B0
:101D0600AC000030AD008B31BD238E312000B20017
:101D16003208D900C030AC000030AD008B31BD2395
:101D26008E312000B2003208DA00C130AC0000303B
:101D3600AD008B31BD238E312000B2003208DB00AE
:101D4600300886003108870001085806031DC82E92
:101D56003008860031088700413101085906031D05
:101D6600C82E3008860031088700423101085A061D
:101D7600031DC82E3008860031088700433101084C
:101D86005B06031DC82E0130080000300800200045
:101D9600AA00AB012A360139A700A70CA70C22001E
:101DA6000E08200027067F39270622008E00003203
:101DB600003222000D1700320032003200322200BB
:101DC6000D130032003220002A080139A700A70CA3
:101DD600A70C22000E08200027067F3927062200BE
:101DE6008E000032003222000D170032003200321F
:101DF600003222000D13003200320A302000A70004
:101E06002708AB00AB1B08002608A8002508A7007A
:101E16002B0A0F2FA836A70C890B0D2F270801397F
:101E2600A900A90CA90C22000E08200029067F395A
:101E3600290622008E000032003222000D170032E1
:101E460000320032003222000D1300320032FF3021
:101E56002000A7002708AB07052F78308600203022
:101E660087000030C03F783086002030870041313F
:101E76008101783086002030870053318101783027
:101E8600860020308700423181012000A9010F30F1
:101E960029020318642F2908A500A6017C30A70093
:101EA6002030A8002508270786002608283D870039
:101EB60081010130A5002508A9070F302902031C5E
:101EC6004E2FA9014030290203187F2F2908A500AB
:101ED600A6019230A7002030A80025082707860013
:101EE6002608283D870081010130A5002508A9079D
:101EF60040302902031C692FA90119302902031851
:101F060008002908A500A601D230A7002030A800A5
:101F16002508270786002608283D8700810101300D
:101F2600A5002508A907802F15302000B0004B30EA
:101F3600AF00D130AE00AE0B9E2FAF0B9E2FB00B75
:101F46009E2F000052302000A8008530A9008B315A
:101F560080238F3115302000B0004B30AF00D130D8
:101F6600AE00AE0BB42FAF0BB42FB00BB42F0000E6
:101F76006C302000A8008530A9008B3180238F317A
:101F860020002B08A701A7072A08A601A6078B3160
:101F9600A5238F31AD302000A6008530A7008B31F8
:101FA600A5238F3115302000B0004B30AF00D13063
:101FB600AE00AE0BDC2FAF0BDC2FB00BDC2F00001E
:101FC60020002D08A701A7072C08A601A6078B311C
:101FD600A5238F311A308B3153238F3115302000D2
:101FE600B0004B30AF00D130AE00AE0BF82FAF0BC8
:0A1FF600F82FB00BF82F00000800D0
:020000040001F9
:04000E00A4F9FFFE54
:00000001FF
