:04000000803116280D
:100008007E14803120007F08FB002100911E1128FA
:100018002000911E1128803132207B082000FF002B
:100028007E10090080311828643084002030850053
:100038008C30FE000030FF008931E7218031FC015F
:1000480052308400003085001630FE000030FF007A
:100058008931E7217E1020008631882E22000E1477
:1000680023001908F00070082000A0006430860002
:10007800203087000130C03F562B64308600203086
:10008800870041310103031D5E2B5B08031D5E2BB6
:100098006430860020308700413181015E2B643056
:1000A80086002030870041310108031D6228653031
:1000B80086002030870001308100332B5B08F00078
:1000C800F1018D30F2002030F300700872078600CD
:1000D8007108733D870081016430860020308700F5
:1000E800413181018D308600203087002B30010698
:1000F800031D1C2B8E3086002030870043300106FC
:10010800031D06298F308600203087004C300106F9
:10011800031D0629903086002030870049300106EB
:10012800031D06290830F0007008A300CE2820001F
:100138002308F000F1018D30F2002030F300700840
:10014800720786007108733D87000108F4002308D0
:10015800F83EF500FF3003180030F6006830F7006D
:100168002030F80075087707F9007608783DFA001E
:10017800790886007A088700740881000130F00049
:100188007008A3070130F000863086002030870011
:10019800700881072308F000F1018D30F20020304B
:1001A800F3007008720786007108733D87002230DB
:1001B80001060319F1282308F83EF000FF30031860
:1001C8000030F1007108803AF20080307202031D9D
:1001D800EF280F307002031C9B2820002308F83EEC
:1001E800F000FF3003180030F1006830F2002030D2
:1001F800F3007008720786007108733D870081015B
:10020800DE01DE0A8E30860020308700433001068A
:10021800031D93298F308600203087004D3001065A
:10022800031D932990308600203087005430010642
:10023800031D93299130860020308700493001063C
:10024800031D93290C30F0007008A40055292408D8
:10025800F000F1018D30F2002030F30070087207D1
:1002680086007108733D87000108F4002408F43EF5
:10027800F500FF3003180030F6008830F700203012
:10028800F80075087707F9007608783DFA007908CC
:1002980086007A088700740881000130F000700831
:1002A800A4072408F000F1018D30F2002030F3009B
:1002B8007008720786007108733D870030300102AC
:1002C800031C77292408F000F1018D30F20020305A
:1002D800F3007008720786007108733D87003A3092
:1002E8000102031C2B292408F43EF000FF300318F8
:1002F8000030F1008830F2002030F30070087207F7
:1003080086007108733D87008101873086002030A0
:100318008700013081000230F0007008DE008E3066
:1003280086002030870043300106031D012A8F30E4
:1003380086002030870053300106031D012A9030C3
:1003480086002030870051300106031D012A06303F
:10035800F0007008A500DA292508F000F1018D30B9
:10036800F2002030F3007008720786007108733DB0
:1003780087000108F4002508FA3EF500FF3003184D
:100388000030F600E630F7002030F80075087707EF
:10039800F9007608783DFA00790886007A0887001F
:1003A800740881000130F0007008A5072508F000E6
:1003B800F1018D30F2002030F300700872078600DA
:1003C8007108733D87002C3001060319EF290830A6
:1003D8002502031CB0292508FA3EF000FF30031857
:1003E8000030F100E630F2002030F30070087207A8
:1003F80086007108733D870081018E3086002030A9
:10040800870043300106031D712A8F308600203093
:1004180087004D300106031D712A90308600203078
:10042800870044300106031D712A0430F00070086B
:10043800A200492A20002208F000F1018D30F200C4
:100448002030F3007008720786007108733D87003A
:100458000108F4002208FC3EF500FF3003180030C4
:10046800F600CD30F7002030F80075087707F9005E
:100478007608783DFA00790886007A0887007408BB
:1004880081000130F0007008A2072208F000F10195
:100498008D30F2002030F300700872078600710872
:1004A800733D87002330010603196C2A2208FC3E9D
:1004B800F000FF3003180030F1007108803AF200B4
:1004C80080307202031D6A2A19307002031C1E2A2A
:1004D8000330F00070082000DE008E3086002030E7
:1004E800870043300106031D322B8F3086002030F1
:1004F80087004D300106031D322B903086002030D6
:10050800870047300106031D322B913086002030CA
:10051800870052300106031D322B1430F00070089A
:10052800A600A101AE2A0130F0007008A60726082F
:10053800F000F1018D30F2002030F30070087207EE
:1005480086007108733D870022300106031DAE2A1C
:10055800A101A10A2108031DB52A28302602031C7F
:10056800972A2608F63EF0007008A600ED2A26080D
:10057800F000F1018D30F2002030F30070087207AE
:1005880086007108733D87000108F40086308600F4
:10059800203087000108F500F6017730F700203099
:1005A800F80075087707F9007608783DFA007908A9
:1005B80086007A088700740881000130F00070080E
:1005C800A6070130F00086308600203087007008CA
:1005D80081072608F000F1018D30F2002030F30089
:1005E8007008720786007108733D87002230010683
:1005F8000319092B86308600203087000F3001024E
:100608000318092B2108031DBB2A863086002030D9
:1006180087000108F000F1017730F2002030F30084
:100628007008720786007108733D87008101322BBC
:100638008D308600203087004F300106031D322B95
:100648008E308600203087004B300106031D322B88
:10065800663086002030870001308100DB0164307D
:100668008600203087000030C03F5E2B3F305B02A1
:1006780003185E2B5B08F000F1018D30F20020308A
:10068800F30070087207F4007108733DF5007408F0
:10069800860075088700200881000130F000700886
:1006A800DB075E2B20080A3A03195328073A031977
:1006B80041283A2B22000E100800CD308600203049
:1006C80087003A300106031D0800CE302000B10033
:1006D8002030B200873199278331003A03194A2E16
:1006E800D33086002030870041300106031D592C85
:1006F800D43086002030870044300106031D592C71
:10070800D53086002030870044300106031D592C5F
:100718000A302000C4004408DD00863086002030FE
:1007280087008101C92B5D08C400C501CD30C60012
:100738002030C7004408460786004508473D870023
:100748000108C8005D08F63EC900FF3003180030F4
:10075800CA006830CB002030CC0049084B07CD00D8
:100768004A084C3DCE004D0886004E0887004808D0
:1007780081000130C4004408DD070130C400863020
:10078800860020308700440881075D08C400C50141
:10079800CD30C6002030C70044084607860045080B
:1007A800473D870030300102031CEB2B5D08C40075
:1007B800C501CD30C6002030C70044084607860072
:1007C8004508473D87003A300102031C972B5D0816
:1007D800F63EC400FF3003180030C5006830C6007C
:1007E8002030C7004408460786004508473D870073
:1007F80081016830B1002030B20086308600203098
:1008080087000108C4004408B3008F317B27833177
:10081800200031083204031D392C6830BB00203019
:10082800BC0086308600203087000108C4004408D8
:10083800BD008C312C24833168302000AD0020307D
:10084800AE00ED30AF008730B0000D30B100893018
:10085800B2008C31BF24833177302000AD002030C6
:10086800AE003C30AF008830512C68302000AD001D
:100878002030AE009B30AF008830B0000D30B100A2
:100888008930B2008C31BF24833177302000AD002D
:100898002030AE008530AF008830B0006830B1003D
:1008A8002030B2008C31BF248331D3308600203011
:1008B800870044300106031D232DD43086002030E4
:1008C800870045300106031D232DD53086002030D2
:1008D80087004C300106031D232D0A302000C40078
:1008E8004408DD0086308600203087008101AE2C68
:1008F8005D08C400C501CD30C6002030C7004408DB
:10090800460786004508473D87000108C8005D087E
:10091800F63EC900FF3003180030CA006830CB002B
:100928002030CC0049084B07CD004A084C3DCE008A
:100938004D0886004E088700480881000130C40031
:100948004408DD070130C400863086002030870067
:10095800440881075D08C400C501CD30C6002030B9
:10096800C7004408460786004508473D87003030E1
:100978000102031CD02C5D08C400C501CD30C6009F
:100988002030C7004408460786004508473D8700D1
:100998003A300102031C7C2C5D08F63EC400FF308F
:1009A80003180030C5006830C6002030C70044086E
:1009B800460786004508473D870081016830B10039
:1009C8002030B20086308600203087000108C4003D
:1009D8004408B3008F317B27833120003108C500DC
:1009E8004508CF004F080319232D4F08FF3EAD00DF
:1009F800FF3003180030AE008B317023833168302C
:100A08002000AD002030AE002230AF008830B000AA
:100A18000D30B1008930B2008C31BF24833177307A
:100A28002000AD002030AE005530AF008830B00057
:100A38006830B1002030B2008C31BF248331D3300C
:100A480086002030870046300106031D462DD4302D
:100A580086002030870041300106031D462DD53021
:100A680086002030870043300106031D462D8A3159
:100A78007022833105302000AB008930AC008F3103
:100A880001278331D330860020308700503001069B
:100A9800031DCD2DD430860020308700413001065B
:100AA800031DCD2DD5308600203087005330010638
:100AB800031DCD2D0A302000C4004408DD008E2D12
:100AC8005D08C400C501CD30C6002030C700440809
:100AD800460786004508473D87000108C8005D08AD
:100AE800F63EC900FF3003180030CA00EB30CB00D7
:100AF8002030CC0049084B07CD004A084C3DCE00B9
:100B08004D0886004E088700480881000130C4005F
:100B18004408DD075D08C400C501CD30C60020309B
:100B2800C7004408460786004508473D870030301F
:100B38000102031CB02D5D08C400C501CD30C600FC
:100B48002030C7004408460786004508473D87000F
:100B58003A300102031C642D5D08F63EC400FF30E4
:100B680003180030C500EB30C6002030C700440829
:100B7800460786004508473D870081010E305D061F
:100B8800031DCD2DEB30AB002030AC008F31012799
:100B98008331D33086002030870043300106031D9F
:100BA800F52DD43086002030870053300106031D10
:100BB800F52DD53086002030870051300106031D01
:100BC800F52D77302000AD002030AE006D30AF003D
:100BD8008830B000E630B1002030B2008C31BF243C
:100BE8008331D33086002030870056300106031D3C
:100BF8000800D43086002030870045300106031DE8
:100C08000800D53086002030870052300106031DC9
:100C18000800E0302000AD001E30AE008B311023FC
:100C280083312000C4004408DF00E130AD001E30ED
:100C3800AE008B31102383312000C4004408E0004B
:100C4800E230AD001E30AE008B311023833120001E
:100C5800C4004408E100E330AD001E30AE008B3123
:100C6800102383312000C4004408E200E3017730F8
:100C7800AD002030AE000830AF008830B0005F30E3
:100C8800B1000030B2008C31BF240800CE3086009D
:100C9800203087004F300106031D842ECF30860098
:100CA8002030870050300106031D842ED030860086
:100CB8002030870045300106031D842E7730200040
:100CC800B1002030B200863086002030870001084D
:100CD800C4004408B3008F317B27833120003108DA
:100CE80032040319802E22008C1606308A31BC2269
:100CF80022008C120E15080005308A31E622080001
:100D080005308A31E622080020308A319422863163
:100D18008A311122863122000C1280302000A7006F
:100D28002530A8008C31752486318931DC21863143
:100D380022008E140E140E158E3111268631FB30CA
:100D48002000AB008830AC008E3187268631FF301A
:100D58002000D0005008E400FF30D0005008E50023
:100D6800FF30D0005008E600FF30D0005008E70000
:100D78006430B1000030B200873199278631003ADB
:100D88000319CE2E05302000AB008930AC008F311E
:100D98000127863122008E100E100E158B172300A6
:100DA8001D16892F23009D1CE32E1D12E4300032EE
:100DB8000032890BDB2E0032003223001D16093069
:100DC8002000D1001E30D000E430890BE92ED00B72
:100DD800E92ED10BE92E0000C83020005C02031870
:100DE800FA2E0130D0005008DC072E2FDC01D3305A
:100DF800AB008830AC008A310122863115302000E2
:100E0800D1004B30D000BE30890B082FD00B082FF3
:100E1800D10B082F00006430860020308700423153
:100E280001030319282FD3302000AB008830AC0011
:100E38008A310122863164308600203087004231B1
:100E4800010303192E2F1F2F6430860020308700DE
:100E5800423181016400892FF5302000AB008830D1
:100E6800AC008A310122863168302000B100203080
:100E7800B20086308600203087000108D000500874
:100E8800B3008F317B2786312000310832040319E3
:100E9800572F22000C1605308A31BC2286312200D9
:100EA8000C120E155B2F05308A31E62286318D3102
:100EB80028258631872F22000E1488302000AD00A7
:100EC8002030AE008B31E423863122000E1003302F
:100ED8002000D0005008DE00892F8331612386313D
:100EE80022000E148D312825863111302000AD00E6
:100EF8008930AE00FE30AF008830B0008B31A623B9
:100F0800863122000E102000DE0120005E08003A23
:100F18000319D62E013A0319302F033A03195F2F0C
:100F2800013A0319712F892F892FDC302000AD0079
:100F38001E30AE008B31102387312000B3003308F8
:100F4800D700DD30AD001E30AE008B311023873165
:100F58002000B3003308D800DE30AD001E30AE00EC
:100F68008B31102387312000B3003308D900DF30DC
:100F7800AD001E30AE008B31102387312000B30046
:100F88003308DA003108860032088700010857065E
:100F9800031DEB2F31088600320887004131010814
:100FA8005806031DEB2F31088600320887004231AE
:100FB80001085906031DEB2F310886003208870007
:100FC800433101085A06031DEB2F01300800003099
:100FD80008005334753420346E34FA346D34653473
:100FE80072346F3420346834613420347334693493
:100FF80064346F3420346134673472346534673450
:10100800613464346F3400345434683465342034C3
:101018006634693472346D347734613472346534CB
:101028002034763465347234733469346F346E34F2
:101038002034693473343A342034003453347534EA
:1010480020346E34FA346D34653472346F3420349D
:101058006834613420347334693464346F34203430
:1010680062346F3472347234613464346F340034EF
:1010780055347334743465346434203461346734DB
:10108800723465346734F334203465346C34203476
:101098006E34FA346D34653472346F343A34203433
:1010A8000034553473347434653464342034623411
:1010B8006F3472347234F334203465346C34203431
:1010C8006E34FA346D34653472346F343A34203403
:1010D80000345434683465342034733469346734E4
:1010E8006E3461346C3420347134753461346C344A
:1010F8006934743479342034693473343A3420349C
:10110800003445346C3420346E34FA346D3465342C
:1011180072346F342034793461342034653478344F
:1011280069347334743465343A34203400345334B5
:10113800753420346E34FA346D34653472346F3457
:101148002034793461342034653478346934733424
:10115800743465340034413454342B3443344D34BE
:101168004734463420343D34203431340D340A3485
:101178000034413454342B3443344C3449345034DF
:101188003D3431340D340A340034413454342B3472
:1011980043344D34473453343D34223400344134DD
:1011A80054342B344334533451340D340A3400341A
:1011B800413454342B3443344D34473444343D346F
:1011C8000034413454342B3443344D34473452348E
:1011D8003D34003441345434453430340D340A3409
:1011E80000344134543448340D340A3400347634ED
:1011F80031342E3434340034413454340D340A3408
:1012080000343134323433343434003422340D343D
:0E1218000A3400342D343E34003431340034B6
:10135A0024001614161C0800AF2924001615161DA1
:10136A000800B42924009614961C0800B929240000
:10137A0096161616161E0800BF29240016081F39CD
:10138A00031DC229141D0800C2292000A700111E2E
:10139A00CC29270823009A0008002000A700270864
:1013AA00240091001418D7298931C221080021008C
:1013BA008E178D130D1724009417283095000930C5
:1013CA00920008006400800101310130FE02003001
:1013DA00FF3B7F087E0403190034E8292400961590
:1013EA00141CF52911082000A7002708A800893134
:1013FA00C2212000280808000D308931CA218A310B
:10140A000A308931CA218A3120002C08A9002B0808
:10141A00A8008A312222080021008D130D138E1391
:10142A000D1623008D0121000E108E100E110E12C2
:10143A008E160E130C128C12080020002808840045
:10144A0029088500120003190800200028088400D2
:10145A002908850000088931CA218A310130200013
:10146A00A8070030A93D222A22008D138931AD2117
:10147A008A31A0308931D2218A3120002908893164
:10148A00D2218A31200028088931D2218A312000CC
:10149A002A088931D2218A318931B22108002000F3
:1014AA00AB01AC01271C5D2A2908AB072A08AC3D11
:1014BA000130A935AA0D890B5E2A0130A836A70C7E
:1014CA00890B632A27082804031D572A2C08A80019
:1014DA002B08A70008002000AC01AD0103302D0243
:1014EA00203003192C02031808002D08A9002C0823
:1014FA00A800FF30AB002B08AA008A3139228A31B2
:10150A0034302000AB00F130890B892AAB0B892AD1
:10151A00003201302000AC070030AD3D732A2000B4
:10152A00A70021001708C13922389700AC2A6A306F
:10153A0021009900080072302100990008007A30D1
:10154A00210099000800703021009900080020004D
:10155A002708043A03199C2A0C3A0319A02A183AB4
:10156A000319A42A303A0319A82ABB2A0800200022
:10157A00A900AA01AA0129082A02031808002200C0
:10158A000E1505302000A8000F30A700F130890B96
:10159A00CC2AA70BCC2AA80BCC2A22000E11053084
:1015AA002000A8000F30A700F130890BDA2AA70B18
:1015BA00DA2AA80BDA2A01302000A7002708AA078E
:1015CA00C02A2000A900AA01AA0129082A02031890
:1015DA00080022008E1405302000A8000F30A70052
:1015EA00F130890BF62AA70BF62AA80BF62A220055
:1015FA008E1005302000A8000F30A700F130890BAB
:10160A00042BA70B042BA80B042B01302000A700E6
:10161A002708AA07EA2A2000B00122008D1389317F
:10162A00AD218B31A0308931D2218B3120002E0897
:10163A008931D2218B3120002D088931D2218B3179
:10164A008931B7218B31A1308931D2218B3189314E
:10165A00F3218B312000AF002F08B0008931BC2163
:10166A008B318931B2212000300808002000AC01FA
:10167A00AD012708280403196B2BAE01AE0AA81B7B
:10168A00502B0130A735A80D890B472B0130AB0031
:10169A002B08AE07442B0130AC35AD0D890B512B0D
:1016AA0028082A02031D5B2B27082902031C622B28
:1016BA002708A9022808AA3B2C140130A836A70C2F
:1016CA00890B632B0130AE02031D502B2D08A80095
:1016DA002C08A70008002000B201B001B1012E08B1
:1016EA00A8002D08A7000A30A9000030AA008A31F4
:1016FA0054228B3120002808B1002708B000B2011B
:10170A000A3032020318080032083007A8003108EC
:10171A000318310AA900FF30AF002F08AA008A3146
:10172A0039228B3134302000AF00F130890B9B2BEA
:10173A00AF0B9B2B003201302000AF002F08B207FD
:10174A00852B29302000B2009630B1007F30890BFA
:10175A00AC2BB10BAC2BB20BAC2BDC302000AB00AA
:10176A008830AC008A3101228B3120002E08A90072
:10177A002D08A8008A3122228B312C308931CA21C6
:10178A008B3120003008A9002F08A8008A312222B4
:10179A008B310B302000A8008930A9008A3122221F
:1017AA008B3152302000B2002B30B1000030890B4F
:1017BA00DC2BB10BDC2BB20BDC2B00000800093050
:1017CA002000B0001E30AF00E430890BEA2BAF0BCB
:1017DA00EA2BB00BEA2B0000AF302000AB008830B8
:1017EA00AC008A3101228B3109302000B0001E3052
:1017FA00AF00E430890BFF2BAF0BFF2BB00BFF2B95
:10180A000000E5302000AB008830AC008A310122AC
:10181A008B3120002E08A9002D08A8008A31222227
:10182A008B310B302000A8008930A9008A3122228E
:10183A008B3119302000B0005A30AF00B130890B1B
:10184A00242CAF0B242CB00B242C003208002000CF
:10185A00C201C301BF01C001C1014308A800420877
:10186A00A7000A30A9000030AA008A3154228C311C
:10187A0020002808AE002708AD008B3110238C31D8
:10188A002000BE003E08C10030304102031C512C2A
:10189A003A304102031C552C0130BF000030C00011
:1018AA000130C2070030C33D3F084004031D642CC9
:1018BA0001304302C23003194202031C322C3C0895
:1018CA00AE003B08AD003D08BE003E08AF0042082E
:1018DA00FF3EB000FF30433DB1008D319C2508002A
:1018EA00822CCF307F2C40307F2C2A307F2C243022
:1018FA007F2C103023009B00AD2C20002808003AD2
:10190A000319942C253A0319992C6E3A03199E2C23
:10191A003B3A0319A32CF33A0319A82CAD2C270838
:10192A00733A03197E2CAD2C2708803A0319762CBA
:10193A00AD2C2708003A0319782CAD2C2708803AD9
:10194A0003197A2CAD2C2708403A03197C2CAD2CAC
:10195A0022009D171D1523009F151E139E161E1289
:10196A001E119D171D131D169D11210091160B178F
:10197A008B17080052302000B4002B30B30000301F
:10198A00890BC52CB30BC52CB40BC52C0000AF308A
:10199A002000AB008830AC008A3101228C315230F1
:1019AA002000B4002B30B3000030890BDA2CB30BC3
:1019BA00DA2CB40BDA2C0000C9302000AB008830D6
:1019CA00AC008A3101228C3120002E08A9002D0892
:1019DA00A8008A3122228C310A302000A8008930DE
:1019EA00A9008A3122228C3152302000B4002B30D7
:1019FA00B3000030890BFF2CB30BFF2CB40BFF2C68
:101A0A00000020003008A9002F08A8008A312222ED
:101A1A008C3120003208A9003108A8008A3122221C
:101A2A008C311A308931CA218C3152302000B400ED
:101A3A002B30B3000030890B202DB30B202DB40BB3
:101A4A00202D000008006430860020308700003016
:101A5A00C03F6430860020308700413181018630E2
:101A6A00860020308700810164308600203087009C
:101A7A00423181012000AB010F302B020318692D7E
:101A8A002B08A700A8016830A9002030AA0027085F
:101A9A002907860028082A3D870081012B08A7000C
:101AAA00A8017730A9002030AA0027082907860054
:101ABA0028082A3D870081010130A7002708AB07C3
:101ACA000F302B02031C452DAB0140302B020318AB
:101ADA00842D2B08A700A8018D30A9002030AA0068
:101AEA0027082907860028082A3D87008101013036
:101AFA00A7002708AB0740302B02031C6E2DAB0151
:101B0A0019302B02031808002B08A700A801CD30B2
:101B1A00A9002030AA0027082907860028082A3D9C
:101B2A00870081010130A7002708AB07852D200017
:101B3A00B701B8010130B5000030B600B901BA01E9
:101B4A003108A8003008A7000A30A9000030AA000E
:101B5A008A3154228D3120002808BA002708B9009A
:101B6A003908093EB90000303A3DBA000A30B700D8
:101B7A000030B80037083804031908002F08031981
:101B8A00F42D0130AF022F08B200B30132082D073D
:101B9A00860033082E3D870030300102031CFD2DDC
:101BAA002F08B200B30132082D07860033082E3DF4
:101BBA0087003A3001020318FD2D3A08A9003908B6
:101BCA00A8002F08B200B30132082D078600330897
:101BDA002E3D87000108B4003408AA00FA2D20001F
:101BEA003A08A9003908A800AA018A3139228D3198
:101BFA0001302000B9020030BA3B34302000B20074
:101C0A00F130890B062EB20B062E0032013020006D
:101C1A00B7020030B83BBF2D22000E1768302000F3
:101C2A00AD00E430890B172EAD0B172E00002200F1
:101C3A000E1315302000AE004B30AD00BE30890BBC
:101C4A00242EAD0B242EAE0B242E000022000E17DC
:101C5A00CB302000AE00EC30AD008430890B332E3F
:101C6A00AD0B332EAE0B332E0000CB302000AE006E
:101C7A00EC30AD008430890B402EAD0B402EAE0BFC
:101C8A00402E000000302000AB008930AC008A31C1
:101C9A0001228E3152302000AE002B30AD000030D0
:101CAA00890B552EAD0B552EAE0B552E0000EE307E
:101CBA002000AB008830AC008A3101228E315230CC
:101CCA002000AE002B30AD000030890B6A2EAD0B20
:101CDA006A2EAE0B6A2E0000BD302000AB008830A1
:101CEA00AC008A3101228E3152302000AE002B30F6
:101CFA00AD000030890B7F2EAD0B7F2EAE0B7F2EF1
:101D0A0000000800E0302000A8001E30A9002B08BF
:101D1A0084002C0885000008AD002D08AA008A312D
:101D2A0039228E3134302000AD00F130890B9B2EE0
:101D3A00AD0B9B2E0032E1302000A8001E30A90016
:101D4A002C08AE002B08AD0001302D0784002E08A8
:101D5A0003182E0A85000008AF002F08AA008A314E
:101D6A0039228E3134302000AD00F130890BBB2E80
:101D7A00AD0BBB2E0032E2302000A8001E30A900B5
:101D8A002C08AE002B08AD0002302D0784002E0867
:101D9A0003182E0A85000008AF002F08AA008A310E
:101DAA0039228E3134302000AD00F130890BDB2E20
:101DBA00AD0BDB2E0032E3302000A8001E30A90054
:101DCA002C08AE002B08AD0003302D0784002E0826
:101DDA0003182E0A85000008AF002F08AA008A31CE
:101DEA0039228E3134302000AD00F130890BFB2EC0
:101DFA00AD0BFB2E00320800DC302000A8001E309C
:101E0A00A9002B0884002C0885000008AD002D08C5
:101E1A00AA008A3139228F3134302000AD00F130E6
:101E2A00890B152FAD0B152F0032DD302000A800CD
:101E3A001E30A9002C08AE002B08AD0001302D077A
:101E4A0084002E0803182E0A85000008AF002F0808
:101E5A00AA008A3139228F3134302000AD00F130A6
:101E6A00890B352FAD0B352F0032DE302000A8004C
:101E7A001E30A9002C08AE002B08AD0002302D0739
:101E8A0084002E0803182E0A85000008AF002F08C8
:101E9A00AA008A3139228F3134302000AD00F13066
:101EAA00890B552FAD0B552F0032DF302000A800CB
:101EBA001E30A9002C08AE002B08AD0003302D07F8
:101ECA0084002E0803182E0A85000008AF002F0888
:101EDA00AA008A3139228F3134302000AD00F13026
:101EEA00890B752FAD0B752F003208002000BE013B
:101EFA00BF01C001C101BC01BD010930BE000030F3
:101F0A00DD2FC001C1014008013EB4000030413D4F
:101F1A00B500B409B509B40A0319B50A3308B600FD
:101F2A00B70136083107B8003708323DB90034081E
:101F3A00380786003508393D87004009BA0041094B
:101F4A00BB00BA0A0319BB0A3E083A07AD003F08AC
:101F5A003B3DAE008B3110238F310106031DBB2F91
:101F6A0001302000BC000030BD00BE2F2000BC01A3
:101F7A00BD010130C0070030C13D3C083D040319D2
:101F8A00D82F3308B400B50135084102031DCF2FFD
:101F9A00340840020318D82F003041020A300319CE
:101FAA004002031C882F3E080A3EBE0000303F3D17
:101FBA00BF003C083D04031DE92F11303F028A305F
:101FCA0003193E02031C862F3C033D04031DFD2F0B
:101FDA000A30A7000030A8003F08AA003E08A9005E
:101FEA008B313B2320002808B2002708B1000800E3
:061FFA00B101B201080074
:020000040001F9
:04000E001CFEFFDFF6
:00000001FF
