:04000000803116280D
:100008007E14803120007F08FB002100911E1128FA
:100018002000911E1128803132207B082000FF002B
:100028007E10090080311828733084002030850044
:100038007D30FE000030FF008A317F228031FC01D4
:1000480052308400003085001030FE000030FF0080
:100058008A317F227E1020008531D52D22000E1492
:1000680023001908F00070082000A00073308600F3
:10007800203087000130C03F5C2B73308600203071
:10008800870041310103031D642B5B08031D642BAA
:10009800733086002030870041318101642B733032
:1000A80086002030870041310108031D6228743022
:1000B80086002030870001308100392B5B08F00072
:1000C800F1018D30F2002030F300700872078600CD
:1000D8007108733D870081017330860020308700E6
:1000E8004131810173308600203087005A312B302E
:1000F8000106031D202B73308600203087005B31FA
:1001080043300106031D0B29733086002030870019
:100118005C314C300106031D0B29733086002030FA
:1001280087005D3149300106031D0B290830F000B6
:100138007008A300D32820002308F000F1018D30B7
:10014800F2002030F3007008720786007108733DD2
:1001580087000108F4002308F83EF500FF30031873
:100168000030F6007730F7002030F8007508770780
:10017800F9007608783DFA00790886007A08870041
:10018800740881000130F0007008A3070130F00006
:1001980073308600203087005331700881072308A8
:1001A800F000F1018D30F2002030F3007008720782
:1001B80086007108733D8700223001060319F6286E
:1001C8002308F83EF000FF3003180030F1007108F2
:1001D800803AF20080307202031DF4280F3070025A
:1001E800031C9F2820002308F83EF000FF30031866
:1001F8000030F1007730F2002030F3007008720709
:1002080086007108733D87008101DD01DD0A7330C6
:100218008600203087005B3143300106031D9C298E
:1002280073308600203087005C314D300106031D95
:100238009C2973308600203087005D3154300106D8
:10024800031D9C2973308600203087005E314930B9
:100258000106031D9C290C30F0007008A4005E29DB
:100268002408F000F1018D30F2002030F30070080E
:10027800720786007108733D87000108F40024089E
:10028800F43EF500FF3003180030F6008830F70020
:100298002030F80075087707F9007608783DFA00ED
:1002A800790886007A088700740881000130F00018
:1002B8007008A4072408F000F1018D30F200203006
:1002C800F3007008720786007108733D87003030AC
:1002D8000102031C80292408F000F1018D30F2008E
:1002E8002030F3007008720786007108733D87009C
:1002F8003A300102031C34292408F43EF000FF3090
:1003080003180030F1008830F2002030F300700844
:10031800720786007108733D870081018730860067
:1003280020308700013081000230F0007008DD00C5
:1003380073308600203087005B3143300106031D8F
:100348000D2A73308600203087005C315330010657
:10035800031D0D2A73308600203087005D3151302F
:100368000106031D0D2A0630F0007008A500E629D5
:100378002508F000F1018D30F2002030F3007008FC
:10038800720786007108733D87000108F40025088C
:10039800FA3EF500FF3003180030F600E630F700AB
:1003A8002030F80075087707F9007608783DFA00DC
:1003B800790886007A088700740881000130F00007
:1003C8007008A5072508F000F1018D30F2002030F3
:1003D800F3007008720786007108733D87002C309F
:1003E80001060319FB2908302502031CBC2925082E
:1003F800FA3EF000FF3003180030F100E630F2005A
:100408002030F3007008720786007108733D87007A
:10041800810173308600203087005B31433001064C
:10042800031D802A73308600203087005C314D30F0
:100438000106031D802A73308600203087005D3155
:1004480044300106031D802A0430F0007008A20021
:10045800582A20002208F000F1018D30F2002030E7
:10046800F3007008720786007108733D8700010861
:10047800F4002208FC3EF500FF3003180030F600B7
:10048800CD30F7002030F80075087707F9007608B6
:10049800783DFA00790886007A0887007408810098
:1004A8000130F0007008A2072208F000F1018D3039
:1004B800F2002030F3007008720786007108733D5F
:1004C80087002330010603197B2A2208FC3EF0002E
:1004D800FF3003180030F1007108803AF2008030D4
:1004E8007202031D792A19307002031C2D2A033069
:1004F800F00070082000DD0073308600203087008F
:100508005B3143300106031D382B733086002030E1
:1005180087005C314D300106031D382B733086008F
:10052800203087005D3147300106031D382B7330BA
:100538008600203087005E3152300106031D382BBB
:100548001530F0007008A1002108F000F1018D308D
:10055800F2002030F3007008720786007108733DBE
:1005680087002B300106031DF22A1830F0007008AE
:10057800A100F22A2108F000F1018D30F2002030AC
:10058800F3007008720786007108733D8700010840
:10059800F400733086002030870053310108F500DD
:1005A800F6017730F7002030F80075087707F90072
:1005B8007608783DFA00790886007A08870074087A
:1005C80081000130F0007008A1070130F00073309D
:1005D8008600203087005331700881072108F00019
:1005E800F1018D30F2002030F300700872078600A8
:1005F8007108733D87002230010603190C2B7330F4
:1006080086002030870053310F300102031CBE2AB8
:10061800733086002030870053310108F000F10163
:100628007730F2002030F3007008720786007108F6
:10063800733D87008101382B733086002030870096
:100648005A314F300106031D382B73308600203095
:1006580087005B314B300106031D382B753086004F
:100668002030870001308100DB01733086002030A4
:1006780087000030C03F642B3F305B020318642BB7
:100688005B08F000F1018D30F2002030F3007008B3
:100698007207F4007108733DF50074088600750848
:1006A8008700200881000130F0007008DB07642B08
:1006B80020080A3A03195328073A03194128402BFE
:1006C80022000E100800CD308600203087003A3016
:1006D8000106031D0800CE302000B0002030B10014
:1006E8008D3162258331003A0319962DD330860067
:1006F8002030870041300106031D392CD430860094
:100708002030870044300106031D392CD53086007F
:100718002030870044300106031D392C0A302000A0
:10072800C3004308DC00CB2B5C08C300C401CD30F8
:10073800C5002030C6004308450786004408463DEA
:1007480087000108C7005C08F63EC800FF300318A0
:100758000030C9007730CA002030CB0048084A076B
:10076800CC0049084B3DCD004C0886004D08870059
:10077800470881000130C3004308DC070130C3008B
:1007880073308600203087005331430881075C08A6
:10079800C300C401CD30C5002030C600430845075A
:1007A80086004408463D870030300102031CED2BCB
:1007B8005C08C300C401CD30C5002030C600430822
:1007C800450786004408463D87003A300102031C6D
:1007D800982B5C08F63EC300FF3003180030C400B5
:1007E8007730C5002030C600430845078600440816
:1007F800463D870081017730B0002030B10073306A
:1008080086002030870053310108C3004308B20036
:100818008F317D278331200030083104031D2D2CB2
:100828007730BA002030BB00733086002030870054
:1008380053310108C3004308BC008C318424833140
:1008480077302000AC002030AD00D530AE008630C7
:10085800352C77302000AC002030AD00F030AE00F1
:100868008630AF008D31B6258331D33086002030F5
:10087800870044300106031DEC2CD430860020305C
:10088800870045300106031DEC2CD530860020304A
:1008980087004C300106031DEC2C0A302000C300F1
:1008A8004308DC008A2C5C08C300C401CD30C500B5
:1008B8002030C6004308450786004408463D8700A7
:1008C8000108C7005C08F63EC800FF300318003076
:1008D800C9007730CA002030CB0048084A07CC004E
:1008E80049084B3DCD004C0886004D088700470855
:1008F80081000130C3004308DC070130C3007330B6
:100908008600203087005331430881075C08C30004
:10091800C401CD30C5002030C60043084507860015
:100928004408463D870030300102031CAC2C5C08AB
:10093800C300C401CD30C5002030C60043084507B8
:1009480086004408463D87003A300102031C572CB4
:100958005C08F63EC300FF3003180030C40077304F
:10096800C5002030C6004308450786004408463DB8
:10097800870081017730B0002030B10073308600E5
:100988002030870053310108C3004308B2008F317B
:100998007D27833120003008C4004408CE004E086B
:1009A8000319EC2C4E08FF3EAC00FF300318003052
:1009B800AD008C310D24833177302000AC0020301D
:1009C800AD00B830AE008630AF008D31B62583312A
:1009D800D33086002030870046300106031D0F2DD6
:1009E800D43086002030870041300106031D0F2DCA
:1009F800D53086002030870043300106031D0F2DB7
:100A08008B31082383317A302000AA008730AB006D
:100A18008E31FF268331D330860020308700503056
:100A28000106031D0800D4308600203087004130BD
:100A38000106031D0800D53086002030870053309A
:100A48000106031D08000A302000C3004308DC002B
:100A5800572D5C08C300C401CD30C5002030C60046
:100A68004308450786004408463D87000108C7003B
:100A78005C08F63EC800FF3003180030C900EB30B0
:100A8800CA002030CB0048084A07CC0049084B3D33
:100A9800CD004C0886004D088700470881000130CA
:100AA800C3004308DC075C08C300C401CD30C5009F
:100AB8002030C6004308450786004408463D8700A5
:100AC80030300102031C792D5C08C300C401CD300D
:100AD800C5002030C6004308450786004408463D47
:100AE80087003A300102031C2D2D5C08F63EC30036
:100AF800FF3003180030C400EB30C5002030C600BA
:100B08004308450786004408463D870081010E30AA
:100B18005C06031D0800EB30AA002030AB008E31C4
:100B2800FF260800CE308600203087004F300106AF
:100B3800031DD12DCF3086002030870050300106AC
:100B4800031DD12DD03086002030870045300106A6
:100B5800031DD12D77302000B0002030B100733054
:100B680086002030870053310108C3004308B200D3
:100B78008F317D2783312000300831040319CD2DB2
:100B880022008C1609308B31802322008C120E151E
:100B9800080005308B31AC23080005308B31AC23BD
:100BA800080020308B312D2385318A31A9228531E7
:100BB80022000C1280302000A6002530A7008C31BE
:100BC800CD2485318A317422853122008E140E1489
:100BD8000E158E3182268531FF302000CF004F0858
:100BE800DE00FF30CF004F08DF00FF30CF004F0896
:100BF800E000FF30CF004F08E1005E30B000003069
:100C0800B1008D3162258531003A0319132E7A30EF
:100C18002000AA008730AB008E31FF2685312200E4
:100C28008E100E100E158B1723001D163330200062
:100C3800AC008730AD000A30AE008730AF008D3190
:100C4800B6258531A82E23009D1C362E1D12E430B2
:100C58002000CF0000320032CF0B2E2E00320000D1
:100C680023001D1648302000AA008730AB008A31C7
:100C78009922853152302000D1002C30D0004F30DD
:100C8800CF00CF0B452ED00B452ED10B452E003271
:100C98006400A82E6A302000AA008730AB008A3191
:100CA8009922853177302000B0002030B1007330B0
:100CB80086002030870053310108CF004F08B2006A
:100CC8008F317D2785312000300831040319762EB5
:100CD80022000C1605308B318023853122000C123E
:100CE8000E157A2E05308B31AC2385318E311B26BB
:100CF8008531A62E22000E1488302000AC0020304A
:100D0800AD008D311725853122000E1003302000EB
:100D1800CF004F08DD00A82E8331672385312200DC
:100D28000E148E311B26853186302000AC008730AA
:100D3800AD007D30AE008730AF008C314424853162
:100D480022000E102000DD0120005D08003A031982
:100D5800272E013A03194E2E033A03197E2E013A23
:100D68000319902EA82EA82E59346F347534723476
:100D780020346E3475346D34623465347234203402
:100D880068346134643420346234653465346E34D4
:100D98002034643465346C346534743465346434B4
:100DA800003459346F347534723420346E347534E9
:100DB8006D34623465347234203468346134643498
:100DC80020346234653465346E34203461346434DC
:100DD800643465346434003459346F34753472348F
:100DE80020346E3475346D34623465347234203492
:100DF80061346C3472346534613464347934203449
:100E08006534783469347334743400345334793441
:100E18007334743465346D34203465346E3461341D
:100E280062346C34653464340034413454342B34C3
:100E380043344D344734463420343D34203431343F
:100E48000D340A340034413454342B3443344C3494
:100E5800493450343D3431340D340A340034363496
:100E6800313434343134363435343434383431343C
:100E780038340034413454342B3443344D344734FB
:100E880053343D3422340034413454342B34433405
:100E9800533451340D340A340034413454342B342F
:100EA80043344D34473444343D34003441345434AD
:100EB8002B3443344D34473452343D3400344134B8
:100EC8005434453430340D340A3400344134543405
:100ED80048340D340A340034413454340D340A345F
:100EE8000034413454340A340D340034313432344B
:100EF80033343434003422340D340A3400342D347D
:100F08003E340034313400342000B601B7010130DA
:100F1800B4000030B500B801B9013008A7002F08A7
:100F2800A6000A30A8000030A9008A31EC228731D7
:100F380020002708B9002608B8003808093EB8007C
:100F48000030393DB9000A30B6000030B700360825
:100F58003704031908002E080319E02F0130AE02E8
:100F68002E08B100B20131082C07860032082D3D49
:100F7800870030300102031CE92F2E08B100B201AE
:100F880031082C07860032082D3D87003A300102CF
:100F98000318E92F3908A8003808A7002E08B1005F
:100FA800B20131082C07860032082D3D8700010860
:100FB800B3003308A900E62F20003908A800380834
:100FC800A700A9018A31D122873101302000B80257
:100FD8000030B93B3430B200F130B100B10BF22F20
:100FE800B20BF22F003201302000B6020030B73BBE
:020FF800AB2F1D
:10148A0024001614161C0800472A24001615161DD7
:10149A0008004C2A24009614961C0800512A24009D
:1014AA0096161616161E0800572A240016081F3903
:1014BA00031D5A2A141D08005A2A2000A600111ECC
:1014CA00642A260823009A0008002000A60026089D
:1014DA002400910014186F2A8A315A220800210028
:1014EA008E178D130D172400941728309500093094
:1014FA00920008006400800101310130FE020030D0
:10150A00FF3B7F087E0403190034802A24009615C5
:10151A00141C8D2A11082000A6002608A7008A316B
:10152A005A222000270808000D308A3162228A31A7
:10153A000A308A3162228A3120002B08A8002A0840
:10154A00A7008A31BA22080021008D130D138E13C9
:10155A000D1623008D0121000E108E100E110E1291
:10156A008E160E130C128C12080020002708840015
:10157A0028088500120003190800200027088400A3
:10158A002808850000088A3162228A310130200049
:10159A00A7070030A83DBA2A22008D138A314522B6
:1015AA008A31A0308A316A228A31200028088A3199
:1015BA006A228A31200027088A316A228A31200069
:1015CA0029088A316A228A318A314A22080020008F
:1015DA00AA01AB01261CF52A2808AA072908AB3D4F
:1015EA000130A835A90D890BF62A0130A736A60CB9
:1015FA00890BFB2A26082704031DEF2A2B08A700BC
:10160A002A08A60008002000AC01AD0103302D0213
:10161A00203003192C02031808002D08A8002C08F2
:10162A00A700FF30AA002A08A9008A31D1228B31EB
:10163A0034302000AB00F130AA00AA0B222BAB0BEE
:10164A00222B003201302000AC070030AD3D0B2BBD
:10165A002000A60021001708C13922389700452B1F
:10166A006A302100990008007230210099000800B0
:10167A007A30210099000800703021009900080092
:10168A0020002608043A0319352B0C3A0319392B82
:10169A00183A03193D2B303A0319412B542B0800F1
:1016AA002000AF0122008D138A3145228B31A030F0
:1016BA008A316A228B3120002D088A316A228B31C5
:1016CA0020002C088A316A228B318A314F228B31D1
:1016DA00A1308A316A228B318A318B228B312000E8
:1016EA00AE002E08AF008A3154228B318A314A2249
:1016FA0020002F0808002000A900AA01AA01290831
:10170A002A020318080022000E1505302000A8003E
:10171A000F30A700F430A600A60B912BA70B912B34
:10172A00A80B912B22000E1105302000A8000F30C3
:10173A00A700F430A600A60BA02BA70BA02BA80B82
:10174A00A02B01302000A6002608AA07842B20001F
:10175A00A900AA01AA0129082A02031808002200DE
:10176A008E1405302000A8000F30A700F430A60020
:10177A00A60BBD2BA70BBD2BA80BBD2B22008E10D1
:10178A0005302000A8000F30A700F430A600A60BF1
:10179A00CC2BA70BCC2BA80BCC2B01302000A600FE
:1017AA002608AA07B02B2000AB01AC0126082704A3
:1017BA000319082CAD01AD0AA71BED2B0130A63584
:1017CA00A70D890BE42B0130AA002A08AD07E12BEB
:1017DA000130AB35AC0D890BEE2B27082902031D0E
:1017EA00F82B26082802031CFF2B2608A802270824
:1017FA00A93B2B140130A736A60C890B002C01300B
:10180A00AD02031DED2B2C08A7002B08A60008002B
:10181A002000B201B001B1012D08A7002C08A600D2
:10182A000A30A8000030A9008A31EC228C3120004D
:10183A002708B1002608B000B2010A3032020318A4
:10184A00080032083007A70031080318310AA80037
:10185A00FF30AE002E08A9008A31D1228C313430F3
:10186A002000AF00F130AE00AE0B392CAF0B392C93
:10187A00003201302000AE002E08B207222C293097
:10188A002000B2009630B100A630B000B00B4B2C4D
:10189A00B10B4B2CB20B4B2C51302000AA008730D5
:1018AA00AB008A3199228C3120002D08A8002C081F
:1018BA00A7008A31BA228C312C308A3162228C31CB
:1018CA0020002F08A8002E08A7008A31BA228C31DE
:1018DA0080302000A7008730A8008A31BA228C31D4
:1018EA0052302000B2002C30B1004F30B000B00BA3
:1018FA007C2CB10B7C2CB20B7C2C00320800200013
:10190A00C101C201BE01BF01C0014208A7004108CE
:10191A00A6000A30A8000030A9008A31EC228C31D6
:10192A0020002708AD002608AC008B3155238C31E6
:10193A002000BD003D08C00030304002031CA92C25
:10194A003A304002031CAD2C0130BE000030BF000B
:10195A000130C1070030C23D3E083F04031DBC2CC4
:10196A0000304202FA3003194102031C8A2C3B0858
:10197A00AD003A08AC003C08BD003D08AE00410885
:10198A00FF3EAF00FF30423DB00087318827080094
:10199A00DA2CCF30D72C4030D72C2A30D72C243011
:1019AA00D72C103023009B00052D20002708003A71
:1019BA000319EC2C253A0319F12C6E3A0319F62C6B
:1019CA003B3A0319FB2CF33A0319002D052D26087F
:1019DA00733A0319D62C052D2608803A0319CE2C02
:1019EA00052D2608003A0319D02C052D2608803A21
:1019FA000319D22C052D2608403A0319D42C052D9B
:101A0A0022009D171D1523009F151E139E161E12D8
:101A1A001E159D171D131D169D11210091160B17DA
:101A2A008B17080009302000B0001E30AF00EB30E1
:101A3A00AE00AE0B1E2DAF0B1E2DB00B1E2D0000DF
:101A4A0019302000AA008730AB008A3199228D31E3
:101A5A0009302000B0001E30AF00EB30AE00AE0BF4
:101A6A00342DAF0B342DB00B342D00005A3020002A
:101A7A00AA008730AB008A3199228D3120002D08C7
:101A8A00A8002C08A7008A31BA228D3180302000A4
:101A9A00A7008730A8008A31BA228D311930200078
:101AAA00B0005A30AF00C830AE00AE0B5A2DAF0BA3
:101ABA005A2DB00B5A2D00320800DC302000AC0041
:101ACA001E30AD008B3155238D312000B200320813
:101ADA00D700DD30AC001E30AD008B3155238D317F
:101AEA002000B2003208D800DE30AC001E30AD0053
:101AFA008B3155238D312000B2003208D900DF30F6
:101B0A00AC001E30AD008B3155238D312000B20060
:101B1A003208DA00300886003108870001085706C3
:101B2A00031DB42D300886003108870041310108B1
:101B3A005806031DB42D300886003108870042314B
:101B4A0001085906031DB42D3008860031088700A4
:101B5A00433101085A06031DB42D01300800003034
:101B6A00080052302000B2002C30B1004F30B000D3
:101B7A00B00BBD2DB10BBD2DB20BBD2D00321930EE
:101B8A002000AA008730AB008A3199228D31523069
:101B9A002000B2002C30B1004F30B000B00BD32D72
:101BAA00B10BD32DB20BD32D00323E302000AA0048
:101BBA008730AB008A3199228D3120002D08A80088
:101BCA002C08A7008A31BA228D317F302000A70065
:101BDA008730A8008A31BA228D3152302000B200F3
:101BEA002C30B1004F30B000B00BF92DB10BF92DEC
:101BFA00B20BF92D003220002F08A8002E08A700EA
:101C0A008A31BA228D311A308A3162228D315230AC
:101C1A002000B2002C30B1004F30B000B00B132EB0
:101C2A00B10B132EB20B132E00320800733086004C
:101C3A00203087000030C03F733086002030870094
:101C4A004131810173308600203087005331810190
:101C5A007330860020308700423181012000AA01BA
:101C6A000F302A0203184F2E2A08A600A701773040
:101C7A00A8002030A9002608280786002708293D41
:101C8A00870081010130A6002608AA070F302A0220
:101C9A00031C392EAA0140302A0203186A2E2A0888
:101CAA00A600A7018D30A8002030A9002608280721
:101CBA0086002708293D870081010130A6002608F1
:101CCA00AA0740302A02031C542EAA0119302A02FC
:101CDA00031808002A08A600A701CD30A800203062
:101CEA00A9002608280786002708293D87008101C0
:101CFA000130A6002608AA076B2E22000E176830AC
:101D0A002000AD00E430AC00AC0B892EAD0B892E5F
:101D1A00000022000E1315302000AE004B30AD003B
:101D2A00D130AC00AC0B972EAD0B972EAE0B972E85
:101D3A00000022000E17CB302000AE00ED30AD00BF
:101D4A004C30AC00AC0BA72EAD0BA72EAE0BA72EBA
:101D5A000032CB302000AE00ED30AD004C30AC008C
:101D6A00AC0BB52EAD0BB52EAE0BB52E00327030C6
:101D7A002000AA008730AB008A3199228E31523076
:101D8A002000AE002C30AD004F30AC00AC0BCB2E97
:101D9A00AD0BCB2EAE0BCB2E003263302000AA0047
:101DAA008730AB008A3199228E3152302000AE0042
:101DBA002C30AD004F30AC00AC0BE12EAD0BE12E58
:101DCA00AE0BE12E003227302000AA008730AB008C
:101DDA008A3199228E3152302000AE002C30AD006B
:101DEA004F30AC00AC0BF72EAD0BF72EAE0BF72E27
:101DFA0000320800DC302000A7001E30A8002A08A4
:101E0A0084002B0885000008AC002C08A9008A3140
:101E1A00D1228E3134302000AD00F130AC00AC0B51
:101E2A00142FAD0B142F0032DD302000A7001E3016
:101E3A00A8002B08AD002A08AC0001302C0784004A
:101E4A002D0803182D0A85000008AE002E08A900E7
:101E5A008A31D1228E3134302000AD00F130AC000D
:101E6A00AC0B352FAD0B352F0032DE302000A7002A
:101E7A001E30A8002B08AD002A08AC0002302C073F
:101E8A0084002D0803182D0A85000008AE002E08CC
:101E9A00A9008A31D1228E3134302000AD00F130D0
:101EAA00AC00AC0B562FAD0B562F0032DF302000A2
:101EBA00A7001E30A8002B08AD002A08AC0003308A
:101ECA002C0784002D0803182D0A85000008AE008F
:101EDA002E08A9008A31D1228E3134302000AD007B
:101EEA00F130AC00AC0B772FAD0B772F0032080026
:101EFA002000BD01BE01B901BA01BB01BC01093014
:101F0A00BD000030BE000B303202031CDE2F0A3047
:101F1A00B3003308B200DE2FB901BA013908013E15
:101F2A00B30000303A3DB400B309B409B30A031947
:101F3A00B40A33083007B5003408313DB600350815
:101F4A008600360887004A313909B7003A09B800CD
:101F5A00B70A0319B80A3D083707AC003E08383DEE
:101F6A00AD008B3155238F310106031DC22F01307D
:101F7A002000BB000030BC00C52F2000BB01BC0103
:101F8A000130B9070030BA3D3B083C040319D82F89
:101F9A003208B300B40134083A02031DD62F3308BD
:101FAA003902031C932F3D080A3EBD0000303E3D16
:101FBA00BE003B083C04031DE92F09303E02BA303B
:101FCA0003193D02031C912F3B033C04031DFD2F03
:101FDA000A30A6000030A7003E08A9003D08A80064
:101FEA008B31D82320002708B1002608B00008004A
:061FFA00B001B101080076
:020000040001F9
:04000E001CFEFFDFF6
:00000001FF
