:04000000803116280D
:100008007E14803120007F08FB002100911E1128FA
:100018002000911E1128803132207B082000FF002B
:100028007E10090080311828643084002030850053
:100038008C30FE000030FF008731F4278031FC014E
:1000480053308400003085001030FE000030FF007F
:100058008731F4277E1020008F311A2F22000E14CA
:1000680023001908F00070082000A0006430860002
:10007800203087000130C03F5B2B64308600203081
:10008800870041310103031D632B5C08031D632BAB
:10009800643086002030870041318101632B643051
:1000A80086002030870041310108031D6228653031
:1000B80086002030870001308100382B5C08F00072
:1000C800F1018D30F2002030F300700872078600CD
:1000D8007108733D870081016430860020308700F5
:1000E800413181018D308600203087002B30010698
:1000F800031D212B8E3086002030870043300106F7
:10010800031D06298F308600203087004C300106F9
:10011800031D0629903086002030870049300106EB
:10012800031D06290830F0007008A300CE2820001F
:100138002308F000F1018D30F2002030F300700840
:10014800720786007108733D87000108F4002308D0
:10015800F83EF500FF3003180030F6006830F7006D
:100168002030F80075087707F9007608783DFA001E
:10017800790886007A088700740881000130F00049
:100188007008A3070130F000863086002030870011
:10019800700881072308F000F1018D30F20020304B
:1001A800F3007008720786007108733D87002230DB
:1001B80001060319F1282308F83EF000FF30031860
:1001C8000030F1007108803AF20080307202031D9D
:1001D800EF280F307002031C9B2820002308F83EEC
:1001E800F000FF3003180030F1006830F2002030D2
:1001F800F3007008720786007108733D870081015B
:10020800DE01DE0A8E30860020308700433001068A
:10021800031D93298F308600203087004D3001065A
:10022800031D932990308600203087005430010642
:10023800031D93299130860020308700493001063C
:10024800031D93290C30F0007008A40055292408D8
:10025800F000F1018D30F2002030F30070087207D1
:1002680086007108733D87000108F4002408F43EF5
:10027800F500FF3003180030F6008830F700203012
:10028800F80075087707F9007608783DFA007908CC
:1002980086007A088700740881000130F000700831
:1002A800A4072408F000F1018D30F2002030F3009B
:1002B8007008720786007108733D870030300102AC
:1002C800031C77292408F000F1018D30F20020305A
:1002D800F3007008720786007108733D87003A3092
:1002E8000102031C2B292408F43EF000FF300318F8
:1002F8000030F1008830F2002030F30070087207F7
:1003080086007108733D87008101873086002030A0
:100318008700013081000230F0007008DE008E3066
:1003280086002030870043300106031D012A8F30E4
:1003380086002030870053300106031D012A9030C3
:1003480086002030870051300106031D012A06303F
:10035800F0007008A500DA292508F000F1018D30B9
:10036800F2002030F3007008720786007108733DB0
:1003780087000108F4002508FA3EF500FF3003184D
:100388000030F600E630F7002030F80075087707EF
:10039800F9007608783DFA00790886007A0887001F
:1003A800740881000130F0007008A5072508F000E6
:1003B800F1018D30F2002030F300700872078600DA
:1003C8007108733D87002C3001060319EF290830A6
:1003D8002502031CB0292508FA3EF000FF30031857
:1003E8000030F100E630F2002030F30070087207A8
:1003F80086007108733D870081018E3086002030A9
:10040800870043300106031D712A8F308600203093
:1004180087004D300106031D712A90308600203078
:10042800870044300106031D712A0430F00070086B
:10043800A200492A20002208F000F1018D30F200C4
:100448002030F3007008720786007108733D87003A
:100458000108F4002208FC3EF500FF3003180030C4
:10046800F600CD30F7002030F80075087707F9005E
:100478007608783DFA00790886007A0887007408BB
:1004880081000130F0007008A2072208F000F10195
:100498008D30F2002030F300700872078600710872
:1004A800733D87002330010603196C2A2208FC3E9D
:1004B800F000FF3003180030F1007108803AF200B4
:1004C80080307202031D6A2A19307002031C1E2A2A
:1004D8000330F00070082000DE008E3086002030E7
:1004E800870043300106031D372B8F3086002030EC
:1004F80087004D300106031D372B903086002030D1
:10050800870047300106031D372B913086002030C5
:10051800870052300106031D372B1430F000700895
:10052800A600A101AE2A0130F0007008A60726082F
:10053800F000F1018D30F2002030F30070087207EE
:1005480086007108733D870022300106031DAE2A1C
:10055800A101A10A2108031DB52A28302602031C7F
:10056800972A2608F63EF0007008A600ED2A26080D
:10057800F000F1018D30F2002030F30070087207AE
:1005880086007108733D87000108F40086308600F4
:10059800203087000108F500F6017730F700203099
:1005A800F80075087707F9007608783DFA007908A9
:1005B80086007A088700740881000130F00070080E
:1005C800A6070130F00086308600203087007008CA
:1005D80081072608F000F1018D30F2002030F30089
:1005E8007008720786007108733D87002230010683
:1005F8000319092B86308600203087000F3001024E
:100608000318092B2108031DBB2A863086002030D9
:1006180087000108F000F1017730F2002030F30084
:100628007008720786007108733D87008101863063
:100638008600203087008101372B8D3086002030DE
:1006480087004F300106031D372B8E30860020307F
:1006580087004B300106031D372B6630860020309B
:10066800870001308100DC0164308600203087007B
:100678000030C03F632B3F305C020318632B5C08DB
:10068800F000F1018D30F2002030F300700872079D
:10069800F4007108733DF50074088600750887003A
:1006A800200881000130F0007008DC07632B200867
:1006B8000A3A03195328073A031941283F2B220005
:1006C8000E100800CD308600203087003A30010631
:1006D800031D0800CE302000B1002030B2008C315C
:1006E80075248331003A0319FA2DD330860020305F
:1006F800870041300106031D5E2CD430860020306F
:10070800870044300106031D5E2CD530860020305A
:10071800870044300106031D5E2C0A302000C40007
:100728004408DD0086308600203087008101CE2B0A
:100738005D08C400C501CD30C6002030C70044089C
:10074800460786004508473D87000108C8005D0840
:10075800F63EC900FF3003180030CA006830CB00ED
:100768002030CC0049084B07CD004A084C3DCE004C
:100778004D0886004E088700480881000130C400F3
:100788004408DD070130C400863086002030870029
:10079800440881075D08C400C501CD30C60020307B
:1007A800C7004408460786004508473D87003030A3
:1007B8000102031CF02B5D08C400C501CD30C60042
:1007C8002030C7004408460786004508473D870093
:1007D8003A300102031C9C2B5D08F63EC400FF3032
:1007E80003180030C5006830C6002030C700440830
:1007F800460786004508473D870081016830B100FB
:100808002030B20086308600203087000108C400FE
:100818004408B3008731712783312000310832043E
:10082800031D3E2C6830BB002030BC00863086009B
:10083800203087000108C4004408BD008B3197238D
:10084800833168302000AD002030AE00AB30AF00FF
:100858008630B0006B30B1008730B2008C31C924CB
:10086800833177302000AD002030AE007330AF0008
:100878008630562C68302000AD002030AE00C630DF
:10088800AF008630B0006B30B1008730B2008C31D9
:10089800C924833177302000AD002030AE008F307E
:1008A800AF008630B0006830B1002030B2008C3123
:1008B800C9248331D33086002030870044300106B4
:1008C800031D282DD43086002030870045300106CE
:1008D800031D282DD5308600203087004C300106B6
:1008E800031D282D0A302000C4004408DD0086308E
:1008F8008600203087008101B32C5D08C400C50143
:10090800CD30C6002030C700440846078600450899
:10091800473D87000108C8005D08F63EC900FF3062
:1009280003180030CA006830CB002030CC004908DA
:100938004B07CD004A084C3DCE004D0886004E08B6
:100948008700480881000130C4004408DD070130F1
:10095800C4008630860020308700440881075D087F
:10096800C400C501CD30C6002030C7004408460782
:1009780086004508473D870030300102031CD52C0E
:100988005D08C400C501CD30C6002030C70044084A
:10099800460786004508473D87003A300102031C98
:1009A800812C5D08F63EC400FF3003180030C500F6
:1009B8006830C6002030C70044084607860045084E
:1009C800473D870081016830B1002030B200863091
:1009D8008600203087000108C4004408B30087312E
:1009E8007127833120003108C5004508CF004F0822
:1009F8000319282D4F08FF3EAD00FF3003180030C3
:100A0800AE008B312023833168302000AD002030C8
:100A1800AE005630AF008630B0006B30B100873082
:100A2800B2008C31C924833177302000AD002030EA
:100A3800AE003830AF008630B0006830B1002030EA
:100A4800B2008C31C9248331D3308600203087002E
:100A580046300106031D4B2DD43086002030870018
:100A680041300106031D4B2DD5308600203087000C
:100A780043300106031D4B2D8A311B22833163301D
:100A88002000AB008730AC008E319C268331D330F8
:100A980086002030870050300106031DD22DD43047
:100AA80086002030870041300106031DD22DD53045
:100AB80086002030870053300106031DD22D0A30EE
:100AC8002000C4004408DD00932D5D08C400C50162
:100AD800CD30C6002030C7004408460786004508C8
:100AE800473D87000108C8005D08F63EC900FF3091
:100AF80003180030CA00EB30CB002030CC00490886
:100B08004B07CD004A084C3DCE004D0886004E08E4
:100B18008700480881000130C4004408DD075D08EB
:100B2800C400C501CD30C6002030C70044084607C0
:100B380086004508473D870030300102031CB52D6B
:100B48005D08C400C501CD30C6002030C700440888
:100B5800460786004508473D87003A300102031CD6
:100B6800692D5D08F63EC400FF3003180030C5004B
:100B7800EB30C6002030C700440846078600450809
:100B8800473D870081010E305D06031DD22DEB30F5
:100B9800AB002030AC008E319C268331D3308600E8
:100BA8002030870043300106031D0800D43086003A
:100BB8002030870053300106031D0800D530860019
:100BC8002030870051300106031D080068302000DE
:100BD800AD002030AE00E030AF008630B000E63027
:100BE800B1002030B2008C31C9240800CE30860014
:100BF800203087004F300106031D342ECF30860089
:100C08002030870050300106031D342ED030860076
:100C18002030870045300106031D342E7730200030
:100C2800B1002030B20086308600203087000108ED
:100C3800C4004408B300873171278331200031088C
:100C480032040319302E22008C1609308A3193227F
:100C580022008C120E15080005308A31BF220800C8
:100C680005308A31BF22080059346F347534203476
:100C780068346134763465342034643465346C34D3
:100C880065347434653464342034743468346534B9
:100C980020346E3475346D346234653472343A34C9
:100CA8002034003459346F347534723420346E343F
:100CB80075346D3462346534723420346834613488
:100CC800643420346234653465346E3420346434DA
:100CD80065346C34653474346534643400345934A0
:100CE8006F34753420346834613476346534203494
:100CF800613464346434653464342034743468345E
:100D0800653420346E3475346D346234653472342D
:100D18003A342034003454346834653420346E3422
:100D280075346D34623465347234203461346C3413
:100D380072346534613464347934203465347834F9
:100D480069347334743473343A3420340034593485
:100D58006F347534723420346E3475346D346234C3
:100D68006534723420346834613464342034623435
:100D7800653465346E3420346134643464346534E5
:100D88006434003459346F347534723420346E341A
:100D980075346D34623465347234203461346C34A3
:100DA8007234653461346434793420346534783489
:100DB80069347334743400345434683465342034FA
:100DC8007334693467346E3461346C34203471346C
:100DD800753461346C34693474347934203469344A
:100DE80073343A34203400345334793473347434DB
:100DF80065346D34203465346E34613462346C3457
:100E0800653464340034413454342B3443344D3421
:100E18004734463420343D34203431340D340A34D8
:100E28000034413454342B3443344C344934503432
:100E38003D3431340D340A340034363431343434EA
:100E48003134363435343434383431343834003489
:100E5800413454342B3443344D34473453343D34C3
:100E680022340034413454342B3443345334513411
:100E78000D340A340034413454342B3443344D3463
:100E8800473444343D340034413454342B344334EF
:100E98004D34473452343D340034413454344534AD
:100EA80030340D340A3400344134543448340D3469
:100EB8000A340034413454340D340A3400343134A3
:100EC800323433343434003422340D340A340034A8
:100ED8002D343E340034313400342000BE01BF01CB
:100EE800BA01BB01BC01BD010930BE000030BF0022
:100EF8000B303302031CD22F0A30B4003408B3007D
:100F0800D22FBA01BB013A08013EB40000303B3D84
:100F1800B500B409B509B40A0319B50A340831078C
:100F2800B6003508323DB700360886003708870016
:100F38004A313A09B8003B09B900B80A0319B90A95
:100F48003E083807AD003F08393DAE008A316822B7
:100F580087310106031DB62F01302000BC00003088
:100F6800BD00B92F2000BC01BD010130BA07003017
:100F7800BB3D3C083D040319CC2F3308B400B50130
:100F880035083B02031DCA2F34083A02031C872F79
:100F98003E080A3EBE0000303F3DBF003C083D040D
:100FA800031DDD2F09303F02BA3003193E02031C2E
:100FB800852F3C033D04031DF12F0A30A7000030A4
:100FC800A8003F08AA003E08A9008A31EB222000A9
:100FD8002808B2002708B1000800B101B2010800D2
:100FE8006400800101310130FE020030FF3B7F08C0
:080FF8007E0403190034F52FFB
:1012C80024001614161C0800662924001615161D7D
:1012D80008006B2924009614961C08007029240025
:1012E80096161616161E08007629240016081F39A9
:1012F800031D7929141D080079292000A700111E53
:101308008329270823009A0008002000A70027083F
:101318002400910014188E298931792108002100B0
:101328008E178D130D172400941728309500093057
:101338009200080024009615141CA029110820000A
:10134800A7002708A800893179212000280808006B
:101358000D308931812189310A30893181218931E2
:1013680020002C08A9002B08A8008931CD210800ED
:1013780021008D130D138E130D1623008D012100EE
:101388000E108E100E110E128E160E130C128C12D9
:101398000800200028088400290885001200031985
:1013A80008002000280884002908850000088931E1
:1013B8008121893101302000A8070030A93DCD29BD
:1013C80022008D13893164218931A0308931892126
:1013D800893120002908893189218931200028088C
:1013E80089318921893120002A0889318921893167
:1013F8008931692108002000AB01AC01271C082AAB
:101408002908AB072A08AC3D0130A935AA0D890B7C
:10141800092A0130A836A70C890B0E2A27082804A8
:10142800031D022A2C08A8002B08A700080020008A
:10143800AD01AE0103302E02203003192D0203182E
:1014480008002E08A9002D08A800FF30AB002B08C3
:10145800AA008931E4218A3134302000AC00F1300F
:10146800AB00AB0B352AAC0B352A0032013020001B
:10147800AD070030AE3D1E2A2000A7002100170846
:10148800C13922389700582A6A302100990008008B
:1014980072302100990008007A3021009900080074
:1014A800703021009900080020002708043A031929
:1014B800482A0C3A03194C2A183A0319502A303A88
:1014C8000319542A672A08002000B00122008D134E
:1014D800893164218A31A030893189218A312000FB
:1014E8002E08893189218A3120002D0889318921E6
:1014F8008A3189316E218A31A130893189218A3135
:1015080089319E218A312000AF002F08B00089312F
:1015180073218A31893169212000300808002000B0
:10152800AA00AB01AB012A082B020318080022000D
:101538000E1505302000A9000F30A800F430A700D0
:10154800A70BA42AA80BA42AA90BA42A22000E11CF
:1015580005302000A9000F30A800F430A700A70B21
:10156800B32AA80BB32AA90BB32A01302000A7007D
:101578002708AB07972A2000AA00AB01AB012A086D
:101588002B020318080022008E1405302000A90041
:101598000F30A800F430A700A70BD02AA80BD02A38
:1015A800A90BD02A22008E1005302000A9000F3088
:1015B800A800F430A700A70BDF2AA80BDF2AA90B85
:1015C800DF2A01302000A7002708AB07C32A200024
:1015D800AC01AD012708280403191B2BAE01AE0A84
:1015E800A81B002B0130A735A80D890BF72A01305D
:1015F800AB002B08AE07F42A0130AC35AD0D890BD2
:10160800012B28082A02031D0B2B27082902031C7B
:10161800122B2708A9022808AA3B2C140130A83647
:10162800A70C890B132B0130AE02031D002B2D08CC
:10163800A8002C08A70008002000B301B101B201DE
:101648002E08A8002D08A7000A30A9000030AA001B
:101658008931FF218B3120002808B2002708B1000A
:10166800B3010A3033020318080033083107A80011
:1016780032080318320AA900FF30AF002F08AA0069
:101688008931E4218B3134302000B000F130AF00D3
:10169800AF0B4C2BB00B4C2B003201302000AF00AD
:1016A8002F08B307352B29302000B3009630B2003D
:1016B800A630B100B10B5E2BB20B5E2BB30B5E2BC9
:1016C8003F302000AB008730AC008931AC218B3132
:1016D80020002E08A9002D08A8008931CD218B31C2
:1016E8002C30893181218B3120003008A9002F0846
:1016F800A8008931CD218B3169302000A8008730BE
:10170800A9008931CD218B3152302000B3002C3013
:10171800B2004F30B100B10B8F2BB20B8F2BB30B34
:101728008F2B003208002000C201C301BF01C00195
:10173800C1014308A8004208A7000A30A9000030E8
:10174800AA008931FF218B3120002808AE00270824
:10175800AD008A3168228B312000BE003E08C100EE
:1017680030304102031CBC2B3A304102031CC02B11
:101778000130BF000030C0000130C2070030C33D57
:101788003F084004031DCF2B00304302FA300319F1
:101798004202031C9D2B3C08AE003B08AD003D08EF
:1017A800BE003E08AF004208FF3EB000FF30433D98
:1017B800B1008D31AA250800ED2BCF30EA2B40303F
:1017C800EA2B2A30EA2B2430EA2B103023009B0026
:1017D800182C20002808003A0319FF2B253A031972
:1017E800042C6E3A0319092C3B3A03190E2CF33AD0
:1017F8000319132C182C2708733A0319E92B182CF2
:101808002708803A0319E12B182C2708003A0319F6
:10181800E32B182C2708803A0319E52B182C2708E6
:10182800403A0319E72B182C22009D171D15230099
:101838009F151E139E161E121E159D171D131D168D
:101848009D11210091160B178B17080009302000F5
:10185800B1001E30B000EB30AF00AF0B312CB00B35
:10186800312CB10B312C000007302000AB00873041
:10187800AC008931AC218C3109302000B1001E3018
:10188800B000EB30AF00AF0B472CB00B472CB10BBF
:10189800472C000048302000AB008730AC0089316D
:1018A800AC218C3120002E08A9002D08A800893110
:1018B800CD218C3169302000A8008730A9008931FA
:1018C800CD218C3119302000B1005A30B000C83019
:1018D800AF00AF0B6D2CB00B6D2CB10B6D2C003223
:1018E8000800DC302000AD001E30AE008A316822CE
:1018F8008C312000B3003308D800DD30AD001E3035
:10190800AE008A3168228C312000B3003308D90038
:10191800DE30AD001E30AE008A3168228C312000E6
:10192800B3003308DA00DF30AD001E30AE008A3174
:1019380068228C312000B3003308DB0031088600B0
:101948003208870001085806031DC72C3108860095
:1019580032088700413101085906031DC72C310898
:10196800860032088700423101085A06031DC72C39
:101978003108860032088700433101085B06031DE1
:10198800C72C013008000030080052302000B50094
:101998002C30B4004F30B300B30BD02CB40BD02C88
:1019A800B50BD02C003207302000AB008730AC00DC
:1019B8008931AC218C3152302000B5002C30B40074
:1019C8004F30B300B30BE62CB40BE62CB50BE62C6A
:1019D80000322C302000AB008730AC008931AC21BC
:1019E8008C3120002E08A9002D08A8008931CD21AE
:1019F8008C3168302000A8008730A9008931CD21BA
:101A08008C3152302000B5002C30B4004F30B30078
:101A1800B30B0C2DB40B0C2DB50B0C2D0032200084
:101A28003008A9002F08A8008931CD218C31200069
:101A38003208A9003108A8008931CD218C311A302B
:101A4800893181218C3152302000B5002C30B4000E
:101A58004F30B300B30B2E2DB40B2E2DB50B2E2DFE
:101A68000032080064308600203087000030C03F14
:101A7800643086002030870041318101863086003D
:101A88002030870081016430860020308700423191
:101A980081012000AB010F302B020318772D2B0892
:101AA800A700A8016830A9002030AA002708290744
:101AB800860028082A3D870081012B08A700A80175
:101AC8007730A9002030AA002708290786002808AF
:101AD8002A3D870081010130A7002708AB070F3096
:101AE8002B02031C532DAB0140302B020318922DFF
:101AF8002B08A700A8018D30A9002030AA002708CC
:101B08002907860028082A3D870081010130A7009F
:101B18002708AB0740302B02031C7C2DAB01193082
:101B28002B02031808002B08A700A801CD30A90034
:101B38002030AA0027082907860028082A3D8700A0
:101B480081010130A7002708AB07932D2000B701BA
:101B5800B8010130B5000030B600B901BA0131084A
:101B6800A8003008A7000A30A9000030AA0089316F
:101B7800FF218D3120002808BA002708B90039084C
:101B8800093EB90000303A3DBA000A30B7000030CB
:101B9800B80037083804031908002F080319022E63
:101BA8000130AF022F08B200B30132082D078600BA
:101BB80033082E3D870030300102031C0B2E2F08FE
:101BC800B200B30132082D07860033082E3D870086
:101BD8003A30010203180B2E3A08A9003908A80068
:101BE8002F08B200B30132082D07860033082E3DB6
:101BF80087000108B4003408AA00082E20003A081B
:101C0800A9003908A800AA018931E4218D310130E1
:101C18002000B9020030BA3B3430B300F130B200D2
:101C2800B20B142EB30B142E003201302000B70271
:101C38000030B83BCD2D22000E1768302000AE00D2
:101C4800E430AD00AD0B262EAE0B262E0000220090
:101C58000E1315302000AF004B30AE00D130AD0070
:101C6800AD0B342EAE0B342EAF0B342E00002200F9
:101C78000E17CB302000AF00ED30AE004C30AD0079
:101C8800AD0B442EAE0B442EAF0B442E0032CB309E
:101C98002000AF00ED30AE004C30AD00AD0B522E41
:101CA800AE0B522EAF0B522E00325E302000AB002E
:101CB8008730AC008931AC218E3152302000AF0022
:101CC8002C30AE004F30AD00AD0B682EAE0B682E39
:101CD800AF0B682E003251302000AB008730AC00CB
:101CE8008931AC218E3152302000AF002C30AE004B
:101CF8004F30AD00AD0B7E2EAE0B7E2EAF0B7E2E81
:101D0800003215302000AB008730AC008931AC219F
:101D18008E3152302000AF002C30AE004F30AD0075
:101D2800AD0B942EAE0B942EAF0B942E0032080000
:101D3800DC302000A8001E30A9002B0884002C08E5
:101D480085000008AD002D08AA008931E4218E31F4
:101D580034302000AE00F130AD00AD0BB12EAE0B2B
:101D6800B12E0032DD302000A8001E30A9002C085A
:101D7800AE002B08AD0001302D0784002E08031893
:101D88002E0A85000008AF002F08AA008931E42137
:101D98008E3134302000AE00F130AD00AD0BD22EC4
:101DA800AE0BD22E0032DE302000A8001E30A90073
:101DB8002C08AE002B08AD0002302D0784002E0839
:101DC80003182E0A85000008AF002F08AA008931E1
:101DD800E4218E3134302000AE00F130AD00AD0B7F
:101DE800F32EAE0BF32E0032DF302000A8001E3099
:101DF800A9002C08AE002B08AD0003302D07840085
:101E08002E0803182E0A85000008AF002F08AA0024
:101E18008931E4218E3134302000AE00F130AD003C
:101E2800AD0B142FAE0B142F0032080020308A316E
:101E380040228F318931BC218F3122000C12803031
:101E48002000A7002530A8008B31E0238F3189318D
:101E580093218F3122008E140E140E158E311F26F9
:101E68008F31FF302000D0005008DF00FF30D00055
:101E78005008E000FF30D0005008E100FF30D000EB
:101E88005008E2005F30B1000030B2008C31752498
:101E98008F31003A0319582F63302000AB00873088
:101EA800AC008E319C268F3122008E100E100E153C
:101EB8008B1723001D1621302000AD008730AE009F
:101EC800F830AF008630B0006B30B1008730B20018
:101ED8008C31C9248F31F02F23009D1C7F2F1D12B8
:101EE800E4302000D00000320032D00B772F0032CF
:101EF800000023001D1636302000AB008730AC00F0
:101F08008931AC218F3152302000D2002C30D100E1
:101F18004F30D000D00B8E2FD10B8E2FD20B8E2F9F
:101F280000326400F02F58302000AB008730AC003E
:101F38008931AC218F3168302000B1002030B200E7
:101F480086308600203087000108D0005008B30092
:101F5800873171278F312000310832040319BE2FD1
:101F680022000C1605308A3193228F3122000C1280
:101F78000E15C22F05308A31BF228F318D3136259B
:101F88008F31EE2F22000E1488302000AD00203053
:101F9800AE008C312A248F3122000E10033020002D
:101FA800D0005008DE00F02F833166238F312200E5
:101FB8000E148D3136258F316F302000AD008730FB
:101FC800AE006630AF008730B0008B3157238F31B9
:101FD80022000E102000DE0120005E08003A0319DE
:101FE800702F013A0319972F033A0319C62F013AA4
:081FF8000319D82FF02FF02F80
:020000040001F9
:04000E001CFEFFDFF6
:00000001FF
