:04000000803116280D
:100008007E14803120007F08FB002100911E1128FA
:100018002000911E1128803131207B082000FF002C
:100028007E10090080311828733084002030850044
:100038007D30FE000030FF008B312E23803151309F
:100048008400003085001030FE000030FF008B3146
:100058002E237E1020008431FA2C22000E14230057
:100068001908F00070082000A000733086002030C6
:1000780087000130C03FBC2A7330860020308700DB
:1000880041310103031DC42A5A08031DC42A7330D1
:1000980086002030870041318101C42A73308600F0
:1000A8002030870041310108031D61287430860023
:1000B8002030870001308100992A5A08F000F101A8
:1000C8008D30F2002030F300700872078600710846
:1000D800733D8700810173308600203087004131ED
:1000E800810173308600203087005A312B30010699
:1000F800031D802A73308600203087005B3143302F
:100108000106031D0A2973308600203087005C3100
:100118004C300106031D0A29733086002030870001
:100128005D3149300106031D0A290830F0007008C6
:10013800A200D22820002208F000F1018D30F20040
:100148002030F3007008720786007108733D87003D
:100158000108F4002208F83EF500FF3003180030CB
:10016800F6007730F7002030F80075087707F900B7
:100178007608783DFA00790886007A0887007408BE
:1001880081000130F0007008A2070130F0007330E0
:100198008600203087005331700881072208F0005C
:1001A800F1018D30F2002030F300700872078600EC
:1001B8007108733D8700223001060319F5282208CB
:1001C800F83EF000FF3003180030F1007108803A63
:1001D800F20080307202031DF3280F307002031CF6
:1001E8009E2820002208F83EF000FF300318003057
:1001F800F1007730F2002030F300700872078600B3
:100208007108733D87008101DC01DC0A73308600C8
:10021800203087005B3143300106031D9B29733072
:100228008600203087005C314D300106031D9B2974
:1002380073308600203087005D3154300106031D7D
:100248009B2973308600203087005E3149300106D3
:10025800031D9B290C30F0007008A3005D292308BA
:10026800F000F1018D30F2002030F30070087207C1
:1002780086007108733D87000108F4002308F43EE6
:10028800F500FF3003180030F6008830F700203002
:10029800F80075087707F9007608783DFA007908BC
:1002A80086007A088700740881000130F000700821
:1002B800A3072308F000F1018D30F2002030F3008D
:1002C8007008720786007108733D8700303001029C
:1002D800031C7F292308F000F1018D30F200203043
:1002E800F3007008720786007108733D87003A3082
:1002F8000102031C33292308F43EF000FF300318E1
:100308000030F1008830F2002030F30070087207E6
:1003180086007108733D8700810187308600203090
:100328008700013081000230F0007008DC00733073
:100338008600203087005B3143300106031D0C2AFC
:1003480073308600203087005C3153300106031D6E
:100358000C2A73308600203087005D315130010649
:10036800031D0C2A0630F0007008A400E5292408B3
:10037800F000F1018D30F2002030F30070087207B0
:1003880086007108733D87000108F4002408FA3ECE
:10039800F500FF3003180030F600E630F700203093
:1003A800F80075087707F9007608783DFA007908AB
:1003B80086007A088700740881000130F000700810
:1003C800A4072408F000F1018D30F2002030F3007A
:1003D8007008720786007108733D87002C3001068B
:1003E8000319FA2908302402031CBB292408FA3E01
:1003F800F000FF3003180030F100E630F200203042
:10040800F3007008720786007108733D8700810148
:1004180073308600203087005B3143300106031DAE
:10042800982A73308600203087005C314D300106F1
:10043800031D982A73308600203087005D314430D0
:100448000106031D982A0430F0007008A100572AFD
:1004580020002108F000F1018D30F2002030F30077
:100468007008720786007108733D87000108F40060
:100478002108FC3EF500FF3003180030F600CD30AF
:10048800F7002030F80075087707F9007608783DFE
:10049800FA00790886007A0887007408810001301C
:1004A800F0007008A1072108F000F1018D30F2007A
:1004B8002030F3007008720786007108733D8700CA
:1004C8002330010603197A2A2108FC3EF000FF3088
:1004D80003180030F1007108803AF200803072028F
:1004E800031D782A19307002031C2C2A0330F000EF
:1004F80070082000DC00982A7330860020308700BE
:100508005A314F300106031D982A73308600203077
:1005180087005B314B300106031D982A7530860031
:100528002030870001308100DA01733086002030E6
:1005380087000030C03FC42A3F305A020318C42A3B
:100548005A08F000F1018D30F2002030F3007008F5
:100558007207F4007108733DF50074088600750889
:100568008700200881000130F0007008DA07C42AEB
:1005780020080A3A03195228073A03194028A02AE2
:1005880022000E100800CD308600203087003A3057
:100598000106031D0800CE302000AF002030B00057
:1005A8008D31FC258231003A0319F62CD3308600B0
:1005B8002030870041300106031D992BD430860076
:1005C8002030870044300106031D992BD530860062
:1005D8002030870044300106031D992B0A30200083
:1005E800C2004208DB002B2B5B08C200C301CD30E0
:1005F800C4002030C5004208440786004308453D32
:1006080087000108C6005B08F63EC700FF300318E4
:100618000030C8007730C9002030CA0047084907B1
:10062800CB0048084A3DCC004B0886004C088700A0
:10063800460881000130C2004208DB070130C200D1
:1006480073308600203087005331420881075B08E9
:10065800C200C301CD30C4002030C50042084407A1
:1006680086004308453D870030300102031C4D2BAE
:100678005B08C200C301CD30C4002030C500420869
:10068800440786004308453D87003A300102031CB1
:10069800F82A5B08F63EC200FF3003180030C3009A
:1006A8007730C4002030C50042084407860043085C
:1006B800453D870081017730AF002030B0007330AE
:1006C80086002030870053310108C2004208B1007B
:1006D8008631B726823120002F083004031D8D2B68
:1006E8007730B9002030BA00733086002030870098
:1006F80053310108C2004208BB008D311E258231EA
:1007080077302000AB002030AC000430AD008630DC
:10071800952B77302000AB002030AC001F30AD00A7
:100728008630AE008E3150268231D330860020309C
:10073800870044300106031D4C2CD430860020303D
:10074800870045300106031D4C2CD530860020302B
:1007580087004C300106031D4C2C0A302000C200D3
:100768004208DB00EA2B5B08C200C301CD30C4009D
:100778002030C5004208440786004308453D8700ED
:100788000108C6005B08F63EC700FF3003180030BA
:10079800C8007730C9002030CA0047084907CB0095
:1007A80048084A3DCC004B0886004C08870046089C
:1007B80081000130C2004208DB070130C2007330FB
:1007C8008600203087005331420881075B08C20049
:1007D800C301CD30C4002030C5004208440786005C
:1007E8004308453D870030300102031C0C2C5B0890
:1007F800C200C301CD30C4002030C5004208440700
:1008080086004308453D87003A300102031CB72B98
:100818005B08F63EC200FF3003180030C300773093
:10082800C4002030C5004208440786004308453DFF
:10083800870081017730AF002030B0007330860028
:100848002030870053310108C2004208B1008631C8
:10085800B726823120002F08C3004308CD004D0879
:1008680003194C2C4D08FF3EAB00FF300318003035
:10087800AC008C31E724823177302000AB00203087
:10088800AC00E730AD008530AE008E3150268231A5
:10089800D33086002030870046300106031D6F2CB8
:1008A800D43086002030870041300106031D6F2CAC
:1008B800D53086002030870043300106031D6F2C99
:1008C8008B31D8238231A9302000A9008630AA00B4
:1008D80087313A278231D330860020308700503064
:1008E8000106031D0800D4308600203087004130FF
:1008F8000106031D0800D5308600203087005330DC
:100908000106031D08000A302000C2004208DB006F
:10091800B72C5B08C200C301CD30C4002030C5002D
:100928004208440786004308453D87000108C60081
:100938005B08F63EC700FF3003180030C800EB30F4
:10094800C9002030CA0047084907CB0048084A3D7B
:10095800CC004B0886004C0887004608810001300F
:10096800C2004208DB075B08C200C301CD30C400E7
:100978002030C5004208440786004308453D8700EB
:1009880030300102031CD92C5B08C200C301CD30F2
:10099800C4002030C5004208440786004308453D8E
:1009A80087003A300102031C8D2C5B08F63EC2001A
:1009B800FF3003180030C300EB30C4002030C500FE
:1009C8004208440786004308453D870081010E30F0
:1009D8005B06031D0800EB30A9002030AA00873110
:1009E8003A27080005308C318424080008308B3100
:1009F800B72384318B315823843122000C12733091
:100A08002000A5000030A6008D31672584318B3188
:100A18002323843122008E140E140E158F311C27C7
:100A28008431FF302000CE004E08DD00FF30CE00BC
:100A38004E08DE00FF30CE004E08DF00FF30CE004B
:100A48004E08E0005D30AF000030B0008D31FC256D
:100A58008431003A0319382DA9302000A9008630C6
:100A6800AA0087313A27843122008E100E100E1505
:100A78008B1723001D1662302000AB008630AC00B7
:100A88003930AD008630AE008E3150268431D72DF6
:100A980023009D1C572D1D1285302000CE00CE0B43
:100AA800532D23001D1677302000A9008630AA0098
:100AB8008B314823843115302000D0004B30CF00D3
:100AC800D130CE00CE0B662DCF0B662DD00B662D08
:100AD80000006400D72D99302000A9008630AA00B4
:100AE8008B314823843177302000AF002030B000AC
:100AF800733086002030870053310108CE004E083D
:100B0800B1008631B726843120002F08300403193C
:100B1800A52D05308C315624843122000E150C1673
:100B28000B302000D0002630CF006630CE00CE0B30
:100B38009B2DCF0B9B2DD00B9B2D003222000C122E
:100B4800A92D05308C31842484318E31B526843129
:100B5800D52D05308C312824843188302000AB0015
:100B68002030AC008D31B125843103302000CE0017
:100B78004E08DC00D72D22000E148231C7228431A2
:100B88008E31B5268431B5302000AB008630AC00FC
:100B9800AC30AD008630AE008731B82784312200F2
:100BA8000E102000DC0120005C08003A03194C2DCF
:100BB800013A03196F2D033A0319AD2D013A0319B0
:100BC800BF2DD72DD72D59346F3475347234203456
:100BD8006E3475346D34623465347234203468345C
:100BE8006134643420346234653465346E342034BE
:100BF800643465346C346534743465346434003476
:100C080059346F347534723420346E3475346D341D
:100C18006234653472342034683461346434203486
:100C28006234653465346E34203461346434643439
:100C380065346434003459346F3475347234203474
:100C48006E3475346D3462346534723420346134F2
:100C58006C347234653461346434793420346534E6
:100C680078346934733474340034533479347334D5
:100C7800743465346D34203465346E3461346234D0
:100C88006C34653464340034413454342B34433484
:100C98004D344734463420343D34203431340D3417
:100CA8000A340034413454342B3443344C344934FA
:100CB80050343D3431340D340A3400343634313450
:100CC80034343134363435343434383431343834D7
:100CD8000034413454342B3443344D344734533482
:100CE8003D3422340034413454342B3443345334A7
:100CF80051340D340A340034413454342B344334E1
:100D08004D34473444343D340034413454342B3466
:100D180043344D34473452343D3400344134543430
:100D2800453430340D340A340034413454344834B2
:100D38000D340A340034413454340D340A34003448
:100D4800413454340A340D340034313432343334B9
:100D58003434003422340D340A3400342D343E3413
:100D68000034313400342000BC01BD01B801B901A0
:100D7800BA01BB010930BC000030BD000B303102A4
:100D8800031C182F0A30B2003208B100182FB8011E
:100D9800B9013808013EB2000030393DB300B2094C
:100DA800B309B20A0319B30A32082F07B40033088B
:100DB800303DB50034088600350887004A313809C7
:100DC800B6003909B700B60A0319B70A3C0836074E
:100DD800AB003D08373DAC008B31FD238631010661
:100DE800031DFC2E01302000BA000030BB00FF2E8E
:100DF8002000BA01BB010130B8070030B93D3A08FC
:100E08003B040319122F3108B200B3013308390229
:100E1800031D102F32083802031CCD2E3C080A3E51
:100E2800BC0000303D3DBD003A083B04031D232FA4
:100E380009303D02BA3003193C02031CCB2E3A0399
:100E48003B04031D372F0A30A5000030A6003D08DB
:100E5800A8003C08A7008C31B22420002608B00066
:100E68002508AF000800AF01B0010800DC30200001
:100E7800A6001E30A700290884002A08850000085B
:100E8800AB002B08A8008B31802387310D30200060
:100E9800AC00FB30AB00AB0B4F2FAC0B4F2F00322D
:100EA800DD302000A6001E30A7002A08AC00290863
:100EB800AB0001302B0784002C0803182C0A85008E
:100EC8000008AD002D08A8008B31802387310D3034
:100ED8002000AC00FB30AB00AB0B702FAC0B702FBD
:100EE8000032DE302000A6001E30A7002A08AC0021
:100EF8002908AB0002302B0784002C0803182C0AA1
:100F080085000008AD002D08A8008B3180238731AB
:100F18000D302000AC00FB30AB00AB0B912FAC0BBD
:100F2800912F0032DF302000A6001E30A7002A08CB
:100F3800AC002908AB0003302B0784002C080318E9
:100F48002C0A85000008AD002D08A8008B318023ED
:100F580087310D302000AC00FB30AB00AB0BB22F5B
:100F6800AC0BB22F003208000B302000B100263045
:100F7800B0006630AF00AF0BBF2FB00BBF2FB10B67
:100F8800BF2F003280302000A9008630AA008B31A4
:100F98004823873120002C08A7002B08A6008B3196
:100FA800692387312C308B311123873120002E089B
:100FB800A7002D08A6008B3169238731AF302000A8
:100FC800A6008630A7008B316923873115302000B1
:100FD800B1004B30B000D130AF00AF0BF12FB00BE8
:100FE800F12FB10BF12F00000800240096161616F9
:060FF800161E0800FC2F8C
:1015F40024001614161C0800FC2A24001615161DB7
:101604000800012B24009614961C0800062B2400C5
:1016140016081F39031D092B141D0800092B20006F
:10162400A500111E132B250823009A000800200092
:10163400A50025082400910014181E2B8B310923C2
:10164400080021008E178D130D17240094172830DD
:1016540095000930920008006400800101310130D6
:10166400FE020030FF3B7F087E04031900342F2B59
:1016740024009615141C3C2B11082000A5002508F5
:10168400A6008B3109232000260808000D308B3179
:1016940011238B310A308B3111238B3120002A081E
:1016A400A7002908A6008B316923080021008D13A7
:1016B4000D138E130D1623008D0121000E108E10B4
:1016C4000E110E128E160E130C128C12080020002E
:1016D400260884002708850012000319080020004A
:1016E400260884002708850000088B3111238B31DC
:1016F40001302000A6070030A73D692B22008D137E
:101704008A31FA228B31A0308B3119238B3120009E
:1017140027088B3119238B31200026088B3119239C
:101724008B31200028088B3119238B318A31FF2219
:1017340008002000A901AA01251CA42B2708A90739
:101744002808AA3D0130A735A80D890BA52B013027
:10175400A636A50C890BAA2B25082604031D9E2B4F
:101764002A08A6002908A50008002000A5002100D9
:101774001708C13922389700CB2B6A302100990011
:10178400080072302100990008007A302100990085
:10179400080020002508043A0319BF2B0C3A03194A
:1017A400C32B183A0319C72BD72B08002000AB0111
:1017B400AC0103302C02203003192B02031808005B
:1017C4002C08A7002B08A600FF30A9002908A800B0
:1017D4008B3180238B310D302000AA00FB30A9000F
:1017E400A90BF22BAA0BF22B003201302000AB071D
:1017F4000030AC3DDB2B2000AE0122008D138A317A
:10180400FA228B31A0308B3119238B3120002C0824
:101814008B3119238B3120002B088B3119238B3109
:101824008B3104238B31A1308B3119238B318B31D4
:101834003A238B312000AD002D08AE008731F92703
:101844008B318A31FF2220002E0808002000A800D6
:10185400A901A901280829020318080022000E146E
:1018640002302000A7000430A600BA30A500A50B62
:10187400392CA60B392CA70B392C000022000E1092
:1018840002302000A7000430A600BA30A500A50B42
:10189400492CA60B492CA70B492C00000130200031
:1018A400A5002508A9072C2C2000A800A901A9013E
:1018B400280829020318080022000E15023020000F
:1018C400A7000430A600BA30A500A50B672CA60B10
:1018D400672CA70B672C000022000E110230200099
:1018E400A7000430A600BA30A500A50B772CA60BE0
:1018F400772CA70B772C000001302000A5002508C9
:10190400A9075A2C2000A800A901A9012808290226
:101914000318080022008E1402302000A7000430AF
:10192400A600BA30A500A50B952CA60B952CA70BE9
:10193400952C000022008E1002302000A7000430F5
:10194400A600BA30A500A50BA52CA60BA52CA70BA9
:10195400A52C000001302000A5002508A907882C2B
:101964002000AA01AB01250826040319E22CAC01CE
:10197400AC0AA61BC72C0130A535A60D890BBE2CBD
:101984000130A9002908AC07BB2C0130AA35AB0DE6
:10199400890BC82C26082802031DD22C25082702EF
:1019A400031CD92C2508A7022608A83B2A140130B9
:1019B400A636A50C890BDA2C0130AC02031DC72C0A
:1019C4002B08A6002A08A50008002000B101AF01D9
:1019D400B0012C08A6002B08A5000A30A70000308F
:1019E400A8008B319B238C3120002608B0002508E9
:1019F400AF00B1010A3031020318080031082F0783
:101A0400A60030080318300AA700FF30AD002D08E7
:101A1400A8008B3180238C310D302000AE00FB30C8
:101A2400AD00AD0B132DAE0B132D00320130200091
:101A3400AD002D08B107FC2C2000C001C101BD017F
:101A4400BE01BF014108A6004008A5000A30A70056
:101A54000030A8008B319B238D3120002608AC0078
:101A64002508AB008B31FD238D312000BC003C08E0
:101A7400BF0030303F02031C432D3A303F02031CA9
:101A8400472D0130BD000030BE000130C0070030DA
:101A9400C13D3D083E04031D562D00304102FA307D
:101AA40003194002031C242D3A08AC003908AB008A
:101AB4003B08BC003C08AD004008FF3EAE00FF30D0
:101AC400413DAF008F318B270800742D3330712DC9
:101AD4004030712D2A30712D2430712D10302300A7
:101AE4009B009F2D20002608003A0319862D253AD5
:101AF40003198B2D6E3A0319902D3B3A0319952D3A
:101B0400F33A03199A2D9F2D2508733A0319702D62
:101B14009F2D2508803A0319682D9F2D2508003A2A
:101B240003196A2D9F2D2508803A03196C2D9F2DCA
:101B34002508403A03196E2D9F2D22009D171D156F
:101B440023009F151E139E161E121E159D171D138E
:101B54001D169D11210091160B178B1708001530C7
:101B64002000AF004B30AE00D130AD00AD0BB82D2E
:101B7400AE0BB82DAF0BB82D000048302000A900E3
:101B84008630AA008B3148238D3115302000AF00F8
:101B94004B30AE00D130AD00AD0BCE2DAE0BCE2D03
:101BA400AF0BCE2D000089302000A9008630AA009A
:101BB4008B3148238D3120002C08A7002B08A60068
:101BC4008B3169238D31AF302000A6008630A70009
:101BD4008B3169238D3115302000AF004B30AE00BE
:101BE400D130AD00AD0BF42DAE0BF42DAF0BF42DB5
:101BF40000000800DC302000AB001E30AC008B314C
:101C0400FD238D312000B1003108D600DD30AB005A
:101C14001E30AC008B31FD238D312000B100310822
:101C2400D700DE30AB001E30AC008B31FD238D318C
:101C34002000B1003108D800DF30AB001E30AC000A
:101C44008B31FD238D312000B1003108D9002F08DC
:101C540086003008870001085606031D4E2E2F0803
:101C6400860030088700413101085706031D4E2EB7
:101C74002F08860030088700423101085806031DEA
:101C84004E2E2F088600300887004331010859067C
:101C9400031D4E2E013008000030080015302000CE
:101CA400B1004B30B000D130AF00AF0B572EB00BAA
:101CB400572EB10B572E000048302000A900863063
:101CC400AA008B3148238E3115302000B1004B30EF
:101CD400B000D130AF00AF0B6D2EB00B6D2EB10B39
:101CE4006D2E00006D302000A9008630AA008B31D3
:101CF40048238E3120002C08A7002B08A6008B3126
:101D040069238E31AE302000A6008630A7008B31C7
:101D140069238E3115302000B1004B30B000D13032
:101D2400AF00AF0B932EB00B932EB10B932E00008C
:101D340020002E08A7002D08A6008B3169238E31C0
:101D44001A308B3111238E3115302000B1004B3005
:101D5400B000D130AF00AF0BAD2EB00BAD2EB10B38
:101D6400AD2E00000800733086002030870000305C
:101D7400C03F7330860020308700413181017330C9
:101D84008600203087005331810173308600203073
:101D94008700423181012000A9010F302902031874
:101DA400E92E2908A500A6017730A7002030A80055
:101DB4002508270786002608283D87008101013071
:101DC400A5002508A9070F302902031CD32EA90159
:101DD400403029020318042F2908A500A6018D30DC
:101DE400A7002030A8002508270786002608283DDC
:101DF400870081010130A5002508A9074030290288
:101E0400031CEE2EA9011930290203180800290821
:101E1400A500A601CD30A7002030A800250827077B
:101E240086002608283D870081010130A500250889
:101E3400A907052F22000E171A302000AC00F83035
:101E4400AB00AB0B232FAC0B232F000022000E138F
:101E540006302000AD001330AC00B130AB00AB0B4A
:101E6400312FAC0B312FAD0B312F003222000E1766
:101E740066302000AD007730AC002430AB00AB0BF3
:101E8400412FAC0B412FAD0B412F00009F302000A0
:101E9400A9008630AA008B3148238F3115302000E9
:101EA400AD004B30AC00D130AB00AB0B572FAC0BBB
:101EB400572FAD0B572F000092302000A900863019
:101EC400AA008B3148238F3115302000AD004B30F0
:101ED400AC00D130AB00AB0B6D2FAC0B6D2FAD0B49
:101EE4006D2F000056302000A9008630AA008B31E7
:101EF40048238F3115302000AD004B30AC00D13079
:101F0400AB00AB0B832FAC0B832FAD0B832F0000E7
:101F140008002000B501B6010130B3000030B40060
:101F2400B701B8012F08A6002E08A5000A30A700A3
:101F34000030A8008B319B238F3120002608B80085
:101F44002508B7003708093EB7000030383DB8000F
:101F54000A30B5000030B60035083604031908000D
:101F64002D080319E32F0130AD022D08B000B10193
:101F740030082B07860031082C3D870030300102E1
:101F8400031CEC2F2D08B000B10130082B0786008C
:101F940031082C3D87003A3001020318EC2F380831
:101FA400A7003708A6002D08B000B10130082B07A0
:101FB400860031082C3D87000108B2003208A800D1
:101FC400E92F20003808A7003708A600A8018B31A4
:101FD40080238F3101302000B7020030B83B0D3030
:101FE400B100FB30B000B00BF52FB10BF52F003270
:0C1FF40001302000B5020030B63BAE2FDB
:020000040001F9
:04000E001CFEFFFED7
:00000001FF
