:04000000803116280D
:100008007E14803120007F08FB002100911E1128FA
:100018002000911E1128803131207B082000FF002C
:100028007E10090080311828733084002030850044
:100038007D30FE000030FF008B313D238031513090
:100048008400003085000C30FE000030FF008B314A
:100058003D237E1020008431F62C22000E1423004C
:100068001908F00070082000A000733086002030C6
:1000780087000130C03FBC2A7330860020308700DB
:1000880041310103031DC42A5608031DC42A7330D5
:1000980086002030870041318101C42A73308600F0
:1000A8002030870041310108031D61287430860023
:1000B8002030870001308100992A5608F000F101AC
:1000C8008D30F2002030F300700872078600710846
:1000D800733D8700810173308600203087004131ED
:1000E800810173308600203087005A312B30010699
:1000F800031D802A73308600203087005B3143302F
:100108000106031D0A2973308600203087005C3100
:100118004C300106031D0A29733086002030870001
:100128005D3149300106031D0A290830F0007008C6
:10013800A200D22820002208F000F1018D30F20040
:100148002030F3007008720786007108733D87003D
:100158000108F4002208F83EF500FF3003180030CB
:10016800F6007730F7002030F80075087707F900B7
:100178007608783DFA00790886007A0887007408BE
:1001880081000130F0007008A2070130F0007330E0
:100198008600203087005331700881072208F0005C
:1001A800F1018D30F2002030F300700872078600EC
:1001B8007108733D8700223001060319F5282208CB
:1001C800F83EF000FF3003180030F1007108803A63
:1001D800F20080307202031DF3280F307002031CF6
:1001E8009E2820002208F83EF000FF300318003057
:1001F800F1007730F2002030F300700872078600B3
:100208007108733D87008101D801D80A73308600D0
:10021800203087005B3143300106031D9B29733072
:100228008600203087005C314D300106031D9B2974
:1002380073308600203087005D3154300106031D7D
:100248009B2973308600203087005E3149300106D3
:10025800031D9B290C30F0007008A3005D292308BA
:10026800F000F1018D30F2002030F30070087207C1
:1002780086007108733D87000108F4002308F43EE6
:10028800F500FF3003180030F6008830F700203002
:10029800F80075087707F9007608783DFA007908BC
:1002A80086007A088700740881000130F000700821
:1002B800A3072308F000F1018D30F2002030F3008D
:1002C8007008720786007108733D8700303001029C
:1002D800031C7F292308F000F1018D30F200203043
:1002E800F3007008720786007108733D87003A3082
:1002F8000102031C33292308F43EF000FF300318E1
:100308000030F1008830F2002030F30070087207E6
:1003180086007108733D8700810187308600203090
:100328008700013081000230F0007008D800733077
:100338008600203087005B3143300106031D0C2AFC
:1003480073308600203087005C3153300106031D6E
:100358000C2A73308600203087005D315130010649
:10036800031D0C2A0630F0007008A400E5292408B3
:10037800F000F1018D30F2002030F30070087207B0
:1003880086007108733D87000108F4002408FA3ECE
:10039800F500FF3003180030F600E630F700203093
:1003A800F80075087707F9007608783DFA007908AB
:1003B80086007A088700740881000130F000700810
:1003C800A4072408F000F1018D30F2002030F3007A
:1003D8007008720786007108733D87002C3001068B
:1003E8000319FA2908302402031CBB292408FA3E01
:1003F800F000FF3003180030F100E630F200203042
:10040800F3007008720786007108733D8700810148
:1004180073308600203087005B3143300106031DAE
:10042800982A73308600203087005C314D300106F1
:10043800031D982A73308600203087005D314430D0
:100448000106031D982A0430F0007008A100572AFD
:1004580020002108F000F1018D30F2002030F30077
:100468007008720786007108733D87000108F40060
:100478002108FC3EF500FF3003180030F600CD30AF
:10048800F7002030F80075087707F9007608783DFE
:10049800FA00790886007A0887007408810001301C
:1004A800F0007008A1072108F000F1018D30F2007A
:1004B8002030F3007008720786007108733D8700CA
:1004C8002330010603197A2A2108FC3EF000FF3088
:1004D80003180030F1007108803AF200803072028F
:1004E800031D782A19307002031C2C2A0330F000EF
:1004F80070082000D800982A7330860020308700C2
:100508005A314F300106031D982A73308600203077
:1005180087005B314B300106031D982A7530860031
:100528002030870001308100D601733086002030EA
:1005380087000030C03FC42A3F3056020318C42A3F
:100548005608F000F1018D30F2002030F3007008F9
:100558007207F4007108733DF50074088600750889
:100568008700200881000130F0007008D607C42AEF
:1005780020080A3A03195228073A03194028A02AE2
:1005880022000E100800CD308600203087003A3057
:100598000106031D0800CE302000AF002030B00057
:1005A8008D31FC258231003A0319F22CD3308600B4
:1005B8002030870041300106031D992BD430860076
:1005C8002030870044300106031D992BD530860062
:1005D8002030870044300106031D992B0A30200083
:1005E800C2004208D7002B2B5708C200C301CD30E8
:1005F800C4002030C5004208440786004308453D32
:1006080087000108C6005708F63EC700FF300318E8
:100618000030C8007730C9002030CA0047084907B1
:10062800CB0048084A3DCC004B0886004C088700A0
:10063800460881000130C2004208D7070130C200D5
:1006480073308600203087005331420881075708ED
:10065800C200C301CD30C4002030C50042084407A1
:1006680086004308453D870030300102031C4D2BAE
:100678005708C200C301CD30C4002030C50042086D
:10068800440786004308453D87003A300102031CB1
:10069800F82A5708F63EC200FF3003180030C3009E
:1006A8007730C4002030C50042084407860043085C
:1006B800453D870081017730AF002030B0007330AE
:1006C80086002030870053310108C2004208B1007B
:1006D8008631B226823120002F083004031D8D2B6D
:1006E8007730B9002030BA00733086002030870098
:1006F80053310108C2004208BB008D31692582319F
:1007080077302000AB002030AC00FF30AD008530E2
:10071800952B77302000AB002030AC001A30AD00AC
:100728008630AE008E3150268231D330860020309C
:10073800870044300106031D4C2CD430860020303D
:10074800870045300106031D4C2CD530860020302B
:1007580087004C300106031D4C2C0A302000C200D3
:100768004208D700EA2B5708C200C301CD30C400A5
:100778002030C5004208440786004308453D8700ED
:100788000108C6005708F63EC700FF3003180030BE
:10079800C8007730C9002030CA0047084907CB0095
:1007A80048084A3DCC004B0886004C08870046089C
:1007B80081000130C2004208D7070130C2007330FF
:1007C8008600203087005331420881075708C2004D
:1007D800C301CD30C4002030C5004208440786005C
:1007E8004308453D870030300102031C0C2C570894
:1007F800C200C301CD30C4002030C5004208440700
:1008080086004308453D87003A300102031CB72B98
:100818005708F63EC200FF3003180030C300773097
:10082800C4002030C5004208440786004308453DFF
:10083800870081017730AF002030B0007330860028
:100848002030870053310108C2004208B1008631C8
:10085800B226823120002F08C3004308CD004D087E
:1008680003194C2C4D08FF3EAB00FF300318003035
:10087800AC008C31F124823177302000AB0020307D
:10088800AC00E230AD008530AE008E3150268231AA
:10089800D33086002030870046300106031D6F2CB8
:1008A800D43086002030870041300106031D6F2CAC
:1008B800D53086002030870043300106031D6F2C99
:1008C8008B31E2238231A4302000A9008630AA00AF
:1008D800873135278231D330860020308700503069
:1008E8000106031D0800D4308600203087004130FF
:1008F8000106031D0800D5308600203087005330DC
:100908000106031D08000A302000C2004208D70073
:10091800B72C5708C200C301CD30C4002030C50031
:100928004208440786004308453D87000108C60081
:100938005708F63EC700FF3003180030C800EB30F8
:10094800C9002030CA0047084907CB0048084A3D7B
:10095800CC004B0886004C0887004608810001300F
:10096800C2004208D7075708C200C301CD30C400EF
:100978002030C5004208440786004308453D8700EB
:1009880030300102031CD92C5708C200C301CD30F6
:10099800C4002030C5004208440786004308453D8E
:1009A80087003A300102031C8D2C5708F63EC2001E
:1009B800FF3003180030C300EB30C4002030C500FE
:1009C8004208440786004308453D87008101EB3013
:1009D800A9002030AA0087313527080005308C315E
:1009E8008E24080008308B31C62384318B3167236D
:1009F800843122000C1273302000A5000030A600BC
:100A08008D31B22584318B313223843122008E140A
:100A18000E140E158F311C27843155302000CE005E
:100A28004E08D9005530CE004E08DA005530CE00B9
:100A38004E08DB005530CE004E08DC005930AF00C0
:100A48000030B0008D31FC258431003A0319342D73
:100A5800A4302000A9008630AA00873135278431C8
:100A680022008E100E100E158B1723001D165D30F8
:100A78002000AB008630AC003430AD008630AE00CC
:100A88008E3150268431D22D23009D1C532D1D12EA
:100A980085302000CE00CE0B4F2D23001D1672305E
:100AA8002000A9008630AA008B31572384311530E5
:100AB8002000D0004B30CF00D130CE00CE0B622DBD
:100AC800CF0B622DD00B622D0000D22D9430200068
:100AD800A9008630AA008B31572384317730200053
:100AE800AF002030B00073308600203087005331CB
:100AF8000108CE004E08B1008631B22684312000AC
:100B08002F0830040319A02D05308C31602484315E
:100B180022000E150C160B302000D0002630CF0016
:100B28006630CE00CE0B962DCF0B962DD00B962D82
:100B3800003222000C12A42D05308C318E24843111
:100B48008E31B5268431D02D05308C313224843154
:100B580088302000AB002030AC008731B3278431C7
:100B680003302000CE004E08D800D22D22000E14EB
:100B78008231C72284318E31B5268431B0302000CD
:100B8800AB008630AC00A730AD008630AE008D31AA
:100B98002825843122000E102000D8012000580892
:100BA800003A0319482D013A03196A2D033A03192B
:100BB800A82D013A0319BA2DD22DD22D59346F34EC
:100BC8007534723420346E3475346D34623465345F
:100BD80072342034683461346434203462346534C7
:100BE80065346E342034643465346C34653474345C
:100BF80065346434003459346F34753472342034B5
:100C08006E3475346D34623465347234203468342B
:100C18006134643420346234653465346E3420348D
:100C280061346434643465346434003459346F3462
:100C38007534723420346E3475346D3462346534EE
:100C48007234203461346C34723465346134643401
:100C58007934203465347834693473347434003426
:100C6800533479347334743465346D3420346534D2
:100C78006E34613462346C34653464340034413425
:100C880054342B3443344D344734463420343D34C3
:100C9800203431340D340A340034413454342B3484
:100CA80043344C34493450343D3431340D340A34EF
:100CB8000034363431343434313436343534343421
:100CC8003834313438340034413454342B344334D8
:100CD8004D34473453343D34223400344134543491
:100CE8002B344334533451340D340A3400344134F2
:100CF80054342B3443344D34473444343D34003475
:100D0800413454342B3443344D34473452343D3415
:100D1800003441345434453430340D340A3400340A
:100D28004134543448340D340A3400344134543492
:100D38000D340A340034413454340A340D34003448
:100D48003134323433343434003422340D340A34F8
:100D580000342D343E340034313400342000BC01DA
:100D6800BD01B801B901BA01BB010930BC000030AE
:100D7800BD000B303102031C132F0A30B2003208B9
:100D8800B100132FB801B9013808013EB200003094
:100D9800393DB300B209B309B20A0319B30A3208DC
:100DA8002F07B4003308303DB500340886003508F5
:100DB80087004A313809B6003909B700B60A03195D
:100DC800B70A3C083607AB003D08373DAC008C310C
:100DD800072486310106031DF72E01302000BA00D2
:100DE8000030BB00FA2E2000BA01BB010130B80761
:100DF8000030B93D3A083B0403190D2F3108B20001
:100E0800B30133083902031D0B2F32083802031CC3
:100E1800C82E3C080A3EBC0000303D3DBD003A08E3
:100E28003B04031D1E2F09303D02BA3003193C0252
:100E3800031CC62E3A033B04031D322F0A30A500BB
:100E48000030A6003D08A8003C08A7008C31BC244F
:100E580020002608B0002508AF000800AF01B00147
:100E68000800DC302000A6001E30A70029088400F6
:100E78002A0885000008AB002B08A8008B318F23B7
:100E880087310D302000AC00FB30AB00AB0B4A2F94
:100E9800AC0B4A2F0032DD302000A6001E30A70020
:100EA8002A08AC002908AB0001302B0784002C0865
:100EB80003182C0A85000008AD002D08A8008B3106
:100EC8008F2387310D302000AC00FB30AB00AB0B1B
:100ED8006B2FAC0B6B2F0032DE302000A6001E30CB
:100EE800A7002A08AC002908AB0002302B078400B1
:100EF8002C0803182C0A85000008AD002D08A8004E
:100F08008B318F2387310D302000AC00FB30AB00D4
:100F1800AB0B8C2FAC0B8C2F0032DF302000A600DF
:100F28001E30A7002A08AC002908AB0003302B07A5
:100F380084002C0803182C0A85000008AD002D0831
:100F4800A8008B318F2387310D302000AC00FB3097
:100F5800AB00AB0BAD2FAC0BAD2F0032080015303A
:100F68002000AF004B30AE00D130AD00AD0BBA2F32
:100F7800AE0BBA2FAF0BBA2F000043302000A900E8
:100F88008630AA008B315723873115302000AF00F7
:100F98004B30AE00D130AD00AD0BD02FAE0BD02F03
:100FA800AF0BD02F000084302000A9008630AA00A3
:100FB8008B315723873120002C08A7002B08A60067
:100FC8008B3178238731AA302000A6008630A7000D
:100FD8008B317823873115302000AF004B30AE00BD
:100FE800D130AD00AD0BF62FAE0BF62FAF0BF62FB1
:040FF80000000800ED
:1016060024001614161C0800052B24001615161D9A
:1016160008000A2B24009614961C08000F2B2400A1
:1016260096161616161E0800152B240016081F39C6
:10163600031D182B141D0800182B2000A500111ED1
:10164600222B250823009A0008002000A500250863
:101656002400910014182D2B8B311823080021002B
:101666008E178D130D172400941728309500093016
:10167600920008006400800101310130FE02003052
:10168600FF3B7F087E04031900343E2B2400961589
:10169600141C4B2B11082000A5002508A6008B3131
:1016A60018232000260808000D308B3120238B31AB
:1016B6000A308B3120238B3120002A08A700290805
:1016C600A6008B317823080021008D130D138E138D
:1016D6000D1623008D0121000E108E100E110E1214
:1016E6008E160E130C128C12080020002608840099
:1016F6002708850012000319080020002608840028
:101706002708850000088B3120238B31013020000B
:10171600A6070030A73D782B22008D138B310323BB
:101726008B31A0308B3128238B31200027088B3159
:1017360028238B31200026088B3128238B3120006B
:1017460028088B3128238B318B3108230800200091
:10175600A901AA01251CB32B2708A9072808AA3D19
:101766000130A735A80D890BB42B0130A636A50C80
:10177600890BB92B25082604031DAD2B2A08A600C4
:101786002908A50008002000A500D52B6A302100F5
:101796009900080072302100990008007A30210073
:1017A6009900080020002508043A0319C92B0C3AB1
:1017B6000319CD2B183A0319D12BE12B0800200071
:1017C600AB01AC0103302C02203003192B020318A5
:1017D60008002C08A7002B08A600FF30A90029083E
:1017E600A8008B318F238B310D302000AA00FB30EF
:1017F600A900A90BFC2BAA0BFC2B00320130200000
:10180600AB070030AC3DE52B2000AE0122008D1366
:101816008B3103238C31A0308B3128238C3120006F
:101826002C088B3128238C3120002B088B31282360
:101836008C318B310D238C31A1308B3128238C31A7
:101846008B3149238C312000AD002D08AE008B3141
:1018560012238C318B31082320002E08080020002B
:10186600A800A901A90128082902031808002200D6
:101876000E1402302000A7000430A600BA30A500DE
:10188600A50B432CA60B432CA70B432C00002200D0
:101896000E1002302000A7000430A600BA30A500C2
:1018A600A50B532CA60B532CA70B532C0000013071
:1018B6002000A5002508A907362C2000A800A901AC
:1018C600A901280829020318080022000E15023073
:1018D6002000A7000430A600BA30A500A50B712C85
:1018E600A60B712CA70B712C000022000E110230E2
:1018F6002000A7000430A600BA30A500A50B812C55
:10190600A60B812CA70B812C000001302000A5001E
:101916002508A907642C2000A800A901A901280808
:1019260029020318080022008E1402302000A700A6
:101936000430A600BA30A500A50B9F2CA60B9F2C41
:10194600A70B9F2C000022008E1002302000A7005B
:101956000430A600BA30A500A50BAF2CA60BAF2C01
:10196600A70BAF2C000001302000A5002508A90711
:10197600922C2000AA01AB01250826040319EC2CA1
:10198600AC01AC0AA61BD12C0130A535A60D890BDE
:10199600C82C0130A9002908AC07C52C0130AA358E
:1019A600AB0D890BD22C26082802031DDC2C25083A
:1019B6002702031CE32C2508A7022608A83B2A14A5
:1019C6000130A636A50C890BE42C0130AC02031DB0
:1019D600D12C2B08A6002A08A50008002000B1017A
:1019E600AF01B0012C08A6002B08A5000A30A700FD
:1019F6000030A8008B31AA238C3120002608B000C5
:101A06002508AF00B1010A30310203180800310879
:101A16002F07A60030080318300AA700FF30AD00D4
:101A26002D08A8008B318F238C310D302000AE009D
:101A3600FB30AD00AD0B1D2DAE0B1D2D0032013060
:101A46002000AD002D08B107062D0B302000B10097
:101A56002630B0006630AF00AF0B2F2DB00B2F2D08
:101A6600B10B2F2D00327B302000A9008630AA0052
:101A76008B3157238D3120002C08A7002B08A60098
:101A86008B3178238D312C308B3120238D31200002
:101A96002E08A7002D08A6008B3178238D31AA3099
:101AA6002000A6008630A7008B3178238D311530B3
:101AB6002000B1004B30B000D130AF00AF0B612D2C
:101AC600B00B612DB10B612D000008002000C00194
:101AD600C101BD01BE01BF014108A6004008A50025
:101AE6000A30A7000030A8008B31AA238D312000D0
:101AF6002608AC002508AB008C3107248D31200068
:101B0600BC003C08BF0030303F02031C8E2D3A302B
:101B16003F02031C922D0130BD000030BE00013093
:101B2600C0070030C13D3D083E04031DA12D003015
:101B36004102FA3003194002031C6F2D3A08AC002B
:101B46003908AB003B08BC003C08AD004008FF3E2E
:101B5600AE00FF30413DAF008F318B270800BF2D0F
:101B66003330BC2D4030BC2D2A30BC2D2430BC2D4A
:101B7600103023009B00EA2D20002608003A0319A6
:101B8600D12D253A0319D62D6E3A0319DB2D3B3A92
:101B96000319E02DF33A0319E52DEA2D2508733ACA
:101BA6000319BB2DEA2D2508803A0319B32DEA2D1A
:101BB6002508003A0319B52DEA2D2508803A0319A0
:101BC600B72DEA2D2508403A0319B92DEA2D220032
:101BD6009D171D1523009F151E139E161E121E15FA
:101BE6009D171D131D169D11210091160B178B179E
:101BF6000800DC302000AB001E30AC008C3107241E
:101C06008D312000B1003108D900DD30AB001E3027
:101C1600AC008C3107248D312000B1003108DA0088
:101C2600DE30AB001E30AC008C3107248D31200035
:101C3600B1003108DB00DF30AB001E30AC008C3168
:101C460007248D312000B1003108DC002F08860002
:101C56003008870001085906031D4E2E2F088600FE
:101C660030088700413101085A06031D4E2E2F0801
:101C7600860030088700423101085B06031D4E2EA0
:101C86002F08860030088700433101085C06031DD3
:101C96004E2E013008000030080015302000B1003B
:101CA6004B30B000D130AF00AF0B572EB00B572ED4
:101CB600B10B572E000043302000A9008630AA0041
:101CC6008B3157238E3115302000B1004B30B000D8
:101CD600D130AF00AF0B6D2EB00B6D2EB10B6D2E4C
:101CE600000068302000A9008630AA008B315723F7
:101CF6008E3120002C08A7002B08A6008B317823F4
:101D06008E31A9302000A6008630A7008B317823BB
:101D16008E3115302000B1004B30B000D130AF000D
:101D2600AF0B932EB00B932EB10B932E0000200019
:101D36002E08A7002D08A6008B3178238E311A3085
:101D46008B3120238E3115302000B1004B30B0008E
:101D5600D130AF00AF0BAD2EB00BAD2EB10BAD2E0B
:101D66000000080073308600203087000030C03F36
:101D76007330860020308700413181017330860040
:101D86002030870053318101733086002030870070
:101D9600423181012000A9010F3029020318E92EE2
:101DA6002908A500A6017730A7002030A80025083D
:101DB600270786002608283D870081010130A500F7
:101DC6002508A9070F302902031CD32EA90140308C
:101DD60029020318042F2908A500A6018D30A700A3
:101DE6002030A8002508270786002608283D8700FA
:101DF60081010130A5002508A90740302902031CEE
:101E0600EE2EA90119302902031808002908A50099
:101E1600A601CD30A7002030A80025082707860098
:101E26002608283D870081010130A5002508A9075D
:101E3600052F22000E171A302000AC00F830AB0038
:101E4600AB0B232FAC0B232F000022000E13063002
:101E56002000AD001330AC00B130AB00AB0B312F1E
:101E6600AC0B312FAD0B312F003222000E1766302E
:101E76002000AD007730AC002430AB00AB0B412F17
:101E8600AC0B412FAD0B412F00009A302000A9006A
:101E96008630AA008B3157238F3115302000AD00D4
:101EA6004B30AC00D130AB00AB0B572FAC0B572FE0
:101EB600AD0B572F00008D302000A9008630AA00F8
:101EC6008B3157238F3115302000AD004B30AC00DD
:101ED600D130AB00AB0B6D2FAC0B6D2FAD0B6D2F57
:101EE600000051302000A9008630AA008B3157230C
:101EF6008F3115302000AD004B30AC00D130AB0037
:101F0600AB0B832FAC0B832FAD0B832F0000080088
:101F16002000B501B6010130B3000030B400B701AE
:101F2600B8012F08A6002E08A5000A30A700003029
:101F3600A8008B31AA238F3120002608B800250877
:101F4600B7003708093EB7000030383DB8000A3000
:101F5600B5000030B60035083604031908002D0810
:101F66000319E32F0130AD022D08B000B10130088E
:101F76002B07860031082C3D870030300102031CF8
:101F8600EC2F2D08B000B10130082B078600310870
:101F96002C3D87003A3001020318EC2F3808A700C1
:101FA6003708A6002D08B000B10130082B078600BF
:101FB60031082C3D87000108B2003208A800E92F3D
:101FC60020003808A7003708A600A8018B318F2308
:101FD6008F3101302000B7020030B83B0D30B10020
:101FE600FB30B000B00BF52FB10BF52F00320130EE
:0A1FF6002000B5020030B63BAE2F0C
:020000040001F9
:04000E0004FEFFFEEF
:00000001FF
