:04000000803116280D
:100008007E14803120007F08FB002100911E1128FA
:100018002000911E1128803132207B082000FF002B
:100028007E10090080311828643084002030850053
:100038008C30FE000030FF0089310E218031FC0138
:1000480053308400003085001030FE000030FF007F
:1000580089310E217E1020008F31042F22000E14CA
:1000680023001908F00070082000A0006430860002
:10007800203087000130C03F5B2B64308600203081
:10008800870041310103031D632B5C08031D632BAB
:10009800643086002030870041318101632B643051
:1000A80086002030870041310108031D6228653031
:1000B80086002030870001308100382B5C08F00072
:1000C800F1018D30F2002030F300700872078600CD
:1000D8007108733D870081016430860020308700F5
:1000E800413181018D308600203087002B30010698
:1000F800031D212B8E3086002030870043300106F7
:10010800031D06298F308600203087004C300106F9
:10011800031D0629903086002030870049300106EB
:10012800031D06290830F0007008A300CE2820001F
:100138002308F000F1018D30F2002030F300700840
:10014800720786007108733D87000108F4002308D0
:10015800F83EF500FF3003180030F6006830F7006D
:100168002030F80075087707F9007608783DFA001E
:10017800790886007A088700740881000130F00049
:100188007008A3070130F000863086002030870011
:10019800700881072308F000F1018D30F20020304B
:1001A800F3007008720786007108733D87002230DB
:1001B80001060319F1282308F83EF000FF30031860
:1001C8000030F1007108803AF20080307202031D9D
:1001D800EF280F307002031C9B2820002308F83EEC
:1001E800F000FF3003180030F1006830F2002030D2
:1001F800F3007008720786007108733D870081015B
:10020800DE01DE0A8E30860020308700433001068A
:10021800031D93298F308600203087004D3001065A
:10022800031D932990308600203087005430010642
:10023800031D93299130860020308700493001063C
:10024800031D93290C30F0007008A40055292408D8
:10025800F000F1018D30F2002030F30070087207D1
:1002680086007108733D87000108F4002408F43EF5
:10027800F500FF3003180030F6008830F700203012
:10028800F80075087707F9007608783DFA007908CC
:1002980086007A088700740881000130F000700831
:1002A800A4072408F000F1018D30F2002030F3009B
:1002B8007008720786007108733D870030300102AC
:1002C800031C77292408F000F1018D30F20020305A
:1002D800F3007008720786007108733D87003A3092
:1002E8000102031C2B292408F43EF000FF300318F8
:1002F8000030F1008830F2002030F30070087207F7
:1003080086007108733D87008101873086002030A0
:100318008700013081000230F0007008DE008E3066
:1003280086002030870043300106031D012A8F30E4
:1003380086002030870053300106031D012A9030C3
:1003480086002030870051300106031D012A06303F
:10035800F0007008A500DA292508F000F1018D30B9
:10036800F2002030F3007008720786007108733DB0
:1003780087000108F4002508FA3EF500FF3003184D
:100388000030F600E630F7002030F80075087707EF
:10039800F9007608783DFA00790886007A0887001F
:1003A800740881000130F0007008A5072508F000E6
:1003B800F1018D30F2002030F300700872078600DA
:1003C8007108733D87002C3001060319EF290830A6
:1003D8002502031CB0292508FA3EF000FF30031857
:1003E8000030F100E630F2002030F30070087207A8
:1003F80086007108733D870081018E3086002030A9
:10040800870043300106031D712A8F308600203093
:1004180087004D300106031D712A90308600203078
:10042800870044300106031D712A0430F00070086B
:10043800A200492A20002208F000F1018D30F200C4
:100448002030F3007008720786007108733D87003A
:100458000108F4002208FC3EF500FF3003180030C4
:10046800F600CD30F7002030F80075087707F9005E
:100478007608783DFA00790886007A0887007408BB
:1004880081000130F0007008A2072208F000F10195
:100498008D30F2002030F300700872078600710872
:1004A800733D87002330010603196C2A2208FC3E9D
:1004B800F000FF3003180030F1007108803AF200B4
:1004C80080307202031D6A2A19307002031C1E2A2A
:1004D8000330F00070082000DE008E3086002030E7
:1004E800870043300106031D372B8F3086002030EC
:1004F80087004D300106031D372B903086002030D1
:10050800870047300106031D372B913086002030C5
:10051800870052300106031D372B1430F000700895
:10052800A600A101AE2A0130F0007008A60726082F
:10053800F000F1018D30F2002030F30070087207EE
:1005480086007108733D870022300106031DAE2A1C
:10055800A101A10A2108031DB52A28302602031C7F
:10056800972A2608F63EF0007008A600ED2A26080D
:10057800F000F1018D30F2002030F30070087207AE
:1005880086007108733D87000108F40086308600F4
:10059800203087000108F500F6017730F700203099
:1005A800F80075087707F9007608783DFA007908A9
:1005B80086007A088700740881000130F00070080E
:1005C800A6070130F00086308600203087007008CA
:1005D80081072608F000F1018D30F2002030F30089
:1005E8007008720786007108733D87002230010683
:1005F8000319092B86308600203087000F3001024E
:100608000318092B2108031DBB2A863086002030D9
:1006180087000108F000F1017730F2002030F30084
:100628007008720786007108733D87008101863063
:100638008600203087008101372B8D3086002030DE
:1006480087004F300106031D372B8E30860020307F
:1006580087004B300106031D372B6630860020309B
:10066800870001308100DC0164308600203087007B
:100678000030C03F632B3F305C020318632B5C08DB
:10068800F000F1018D30F2002030F300700872079D
:10069800F4007108733DF50074088600750887003A
:1006A800200881000130F0007008DC07632B200867
:1006B8000A3A03195328073A031941283F2B220005
:1006C8000E100800CD308600203087003A30010631
:1006D800031D0800CE302000B1002030B2008B315D
:1006E800E1238331003A0319FA2DD33086002030F4
:1006F800870041300106031D5E2CD430860020306F
:10070800870044300106031D5E2CD530860020305A
:10071800870044300106031D5E2C0A302000C40007
:100728004408DD0086308600203087008101CE2B0A
:100738005D08C400C501CD30C6002030C70044089C
:10074800460786004508473D87000108C8005D0840
:10075800F63EC900FF3003180030CA006830CB00ED
:100768002030CC0049084B07CD004A084C3DCE004C
:100778004D0886004E088700480881000130C400F3
:100788004408DD070130C400863086002030870029
:10079800440881075D08C400C501CD30C60020307B
:1007A800C7004408460786004508473D87003030A3
:1007B8000102031CF02B5D08C400C501CD30C60042
:1007C8002030C7004408460786004508473D870093
:1007D8003A300102031C9C2B5D08F63EC400FF3032
:1007E80003180030C5006830C6002030C700440830
:1007F800460786004508473D870081016830B100FB
:100808002030B20086308600203087000108C400FE
:100818004408B30087316B27833120003108320444
:10082800031D3E2C6830BB002030BC00863086009B
:10083800203087000108C4004408BD008B31032321
:10084800833168302000AD002030AE007130AF0039
:100858008630B0006730B1008730B2008C31352463
:10086800833177302000AD002030AE00D830AF00A3
:100878008630562C68302000AD002030AE008C3019
:10088800AF008630B0006730B1008730B2008C31DD
:100898003524833177302000AD002030AE0055304C
:1008A800AF008630B0006830B1002030B2008C3123
:1008B80035248331D3308600203087004430010648
:1008C800031D282DD43086002030870045300106CE
:1008D800031D282DD5308600203087004C300106B6
:1008E800031D282D0A302000C4004408DD0086308E
:1008F8008600203087008101B32C5D08C400C50143
:10090800CD30C6002030C700440846078600450899
:10091800473D87000108C8005D08F63EC900FF3062
:1009280003180030CA006830CB002030CC004908DA
:100938004B07CD004A084C3DCE004D0886004E08B6
:100948008700480881000130C4004408DD070130F1
:10095800C4008630860020308700440881075D087F
:10096800C400C501CD30C6002030C7004408460782
:1009780086004508473D870030300102031CD52C0E
:100988005D08C400C501CD30C6002030C70044084A
:10099800460786004508473D87003A300102031C98
:1009A800812C5D08F63EC400FF3003180030C500F6
:1009B8006830C6002030C70044084607860045084E
:1009C800473D870081016830B1002030B200863091
:1009D8008600203087000108C4004408B30087312E
:1009E8006B27833120003108C5004508CF004F0828
:1009F8000319282D4F08FF3EAD00FF3003180030C3
:100A0800AE008A318C22833168302000AD0020305E
:100A1800AE003830AF008630B0006730B1008730A4
:100A2800B2008C313524833177302000AD0020307E
:100A3800AE00A730AF008630B0006830B10020307B
:100A4800B2008C3135248331D330860020308700C2
:100A580046300106031D4B2DD43086002030870018
:100A680041300106031D4B2DD5308600203087000C
:100A780043300106031D4B2D8931872183315F30B7
:100A88002000AB008730AC008E3186268331D3300E
:100A980086002030870050300106031DD22DD43047
:100AA80086002030870041300106031DD22DD53045
:100AB80086002030870053300106031DD22D0A30EE
:100AC8002000C4004408DD00932D5D08C400C50162
:100AD800CD30C6002030C7004408460786004508C8
:100AE800473D87000108C8005D08F63EC900FF3091
:100AF80003180030CA00EB30CB002030CC00490886
:100B08004B07CD004A084C3DCE004D0886004E08E4
:100B18008700480881000130C4004408DD075D08EB
:100B2800C400C501CD30C6002030C70044084607C0
:100B380086004508473D870030300102031CB52D6B
:100B48005D08C400C501CD30C6002030C700440888
:100B5800460786004508473D87003A300102031CD6
:100B6800692D5D08F63EC400FF3003180030C5004B
:100B7800EB30C6002030C700440846078600450809
:100B8800473D870081010E305D06031DD22DEB30F5
:100B9800AB002030AC008E3186268331D3308600FE
:100BA8002030870043300106031D0800D43086003A
:100BB8002030870053300106031D0800D530860019
:100BC8002030870051300106031D080068302000DE
:100BD800AD002030AE00C030AF008630B000E63047
:100BE800B1002030B2008C3135240800CE308600A8
:100BF800203087004F300106031D342ECF30860089
:100C08002030870050300106031D342ED030860076
:100C18002030870045300106031D342E7730200030
:100C2800B1002030B20086308600203087000108ED
:100C3800C4004408B30087316B2783312000310892
:100C480032040319302E22008C1609308931FF2115
:100C580022008C120E15080005308A312B2208005C
:100C680005308A312B22080059346F3475347234B8
:100C780020346E3475346D34623465347234203403
:100C880068346134733420346234653465346E34C6
:100C98002034643465346C346534743465346434B5
:100CA800003454346834653420346E3475346D340B
:100CB800623465347234203461346C34723465348F
:100CC8006134643479342034653478346934733465
:100CD800743473343A342034003459346F347534EE
:100CE800723420346E3475346D3462346534723441
:100CF80020346834613473342034623465346534A4
:100D08006E342034613464346434653464340034BB
:100D180059346F347534723420346E3475346D340C
:100D2800623465347234203461346C34723465341E
:100D380061346434793420346534783469347334F4
:100D480074347334003459346F3475342034643453
:100D580065346C34653474346534643420347434E4
:100D68006834653420346E3475346D3462346534D7
:100D780072343A34203400345434683465342034BE
:100D88007334693467346E3461346C3420347134AC
:100D9800753461346C34693474347934203469348A
:100DA80073343A342034003459346F347534203471
:100DB800613464346434653464342034743468349D
:100DC800653420346E3475346D346234653472346D
:100DD8003A342034003453347934733474346534F9
:100DE8006D34203465346E34613462346C34653467
:100DF80064340034413454342B3443344D34473450
:100E0800463420343D34203431340D340A3400342F
:100E1800413454342B3443344C34493450343D3405
:100E280031340D340A340034363431343434313406
:100E38003634353434343834313438340034413489
:100E480054342B3443344D34473453343D342234F2
:100E58000034413454342B344334533451340D3436
:100E68000A340034413454342B3443344D34473439
:100E780044343D340034413454342B3443344D34F9
:100E8800473452343D3400344134543445343034DA
:100E98000D340A3400344134543448340D340A349F
:100EA8000034763431342E343134003441345434FF
:100EB8000D340A34003431343234333434340034A9
:100EC80022340D340A3400342D343E3400342000EA
:100ED800BE01BF01C001C101BC01BD010930BE0096
:100EE8000030CD2FC001C1014008013EB4000030E0
:100EF800413DB500B409B509B40A0319B50A330868
:100F0800B600B70136083107B8003708323DB900D6
:100F18003408380786003508393D87004009BA008B
:100F28004109BB00BA0A0319BB0A3E083A07AD00DB
:100F38003F083B3DAE008931D42187310106031DAE
:100F4800AB2F01302000BC000030BD00AE2F2000C8
:100F5800BC01BD010130C0070030C13D3C083D0463
:100F68000319C82F3308B400B50135084102031D21
:100F7800BF2F340840020318C82F003041020A303E
:100F880003194002031C782F3E080A3EBE000030B9
:100F98003F3DBF003C083D04031DD92F11303F02DF
:100FA8008A3003193E02031C762F3C033D04031DBF
:100FB800ED2F0A30A7000030A8003F08AA003E081D
:100FC800A9008A31572220002808B2002708B1005A
:100FD8000800B101B20108000D308831F1208731D5
:100FE8000A308831F120873120002C08A9002B080D
:080FF800A8008931392108002D
:1011A80024001614161C0800D62824001615161D2F
:1011B8000800DB2824009614961C0800E028240068
:1011C80096161616161E0800E628240016081F395B
:1011D800031DE928141D0800E9282000A700111E96
:1011E800F328270823009A0008002000A7002708F2
:1011F800240091001418FE288831E92008002100F5
:101208008E178D130D172400941728309500093078
:10121800920008006400800101310130FE020030B4
:10122800FF3B7F087E04031900340F29240096151C
:10123800141C1C2911082000A7002708A8008831C1
:10124800E92020002808080021008D130D138E13B3
:101258000D1623008D0121000E108E100E110E1296
:101268008E160E130C128C12080020002808840019
:1012780029088500120003190800200028088400A6
:101288002908850000088831F120893101302000C3
:10129800A8070030A93D392922008D138831D420B0
:1012A8008931A0308831F920893120002908883116
:1012B800F9208931200028088831F9208931200057
:1012C8002A088831F92089318831D920080020007E
:1012D800AB01AC01271C74292908AB072A08AC3DCF
:1012E8000130A935AA0D890B75290130A836A70C3C
:1012F800890B7A2927082804031D6E292C08A800C1
:101308002B08A70008002000AD01AE0103302E0213
:10131800203003192D02031808002E08A9002D08F3
:10132800A800FF30AB002B08AA0089315021893171
:1013380034302000AC00F130AB00AB0BA129AC0B72
:10134800A129003201302000AD070030AE3D8A29C6
:101358002000A70021001708C13922389700C429A6
:101368006A302100990008007230210099000800B5
:101378007A30210099000800703021009900080097
:1013880020002708043A0319B4290C3A0319B8298C
:10139800183A0319BC29303A0319C029D32908007F
:1013A8002000B00122008D138831D4208931A0306B
:1013B8008831F920893120002E088831F9208931B7
:1013C80020002D088831F92089318831DE208931C3
:1013D800A1308831F920893189311A2189312000D9
:1013E800AF002F08B0008831E32089318831D92037
:1013F8002000300808002000AA00AB01AB012A0831
:101408002B020318080022000E1505302000A90041
:101418000F30A800F430A700A70B102AA80B102A39
:10142800A90B102A22000E1105302000A9000F3048
:10143800A800F430A700A70B1F2AA80B1F2AA90B86
:101448001F2A01302000A7002708AB07032A200025
:10145800AA00AB01AB012A082B02031808002200DE
:101468008E1405302000A9000F30A800F430A70022
:10147800A70B3C2AA80B3C2AA90B3C2A22008E1059
:1014880005302000A9000F30A800F430A700A70BF2
:101498004B2AA80B4B2AA90B4B2A01302000A70086
:1014A8002708AB072F2A2000AC01AD012708280424
:1014B8000319872AAE01AE0AA81B6C2A0130A7358A
:1014C800A80D890B632A0130AB002B08AE07602AF0
:1014D8000130AC35AD0D890B6D2A28082A02031D91
:1014E800772A27082902031C7E2A2708A902280828
:1014F800AA3B2C140130A836A70C890B7F2A01308F
:10150800AE02031D6C2A2D08A8002C08A7000800AD
:101518002000B301B101B2012E08A8002D08A700D0
:101528000A30A9000030AA0089316B218A312000D5
:101538002808B2002708B100B3010A3033020318A3
:10154800080033083107A80032080318320AA90036
:10155800FF30AF002F08AA00893150218A3134307A
:101568002000B000F130AF00AF0BB82AB00BB82A9A
:10157800003201302000AF002F08B307A12A29301C
:101588002000B3009630B200A630B100B10BCA2AD1
:10159800B20BCA2AB30BCA2A36302000AB008730F8
:1015A800AC008731F0278A3120002E08A9002D08C9
:1015B800A800893139218A312C308831F1208A31CB
:1015C80020003008A9002F08A800893139218A3164
:1015D80065302000A8008730A900893139218A3177
:1015E80052302000B3002C30B2004F30B100B10BA4
:1015F800FB2AB20BFB2AB30BFB2A0032080020009F
:10160800C201C301BF01C001C1014308A8004208CB
:10161800A7000A30A9000030AA0089316B218B315C
:1016280020002808AE002708AD008931D4218B316D
:101638002000BE003E08C10030304102031C282BA8
:101648003A304102031C2C2B0130BF000030C0008F
:101658000130C2070030C33D3F084004031D3B2B47
:1016680001304302C23003194202031C092B3C0813
:10167800AE003B08AD003D08BE003E08AF00420882
:10168800FF3EB000FF30433DB1008D311625080004
:10169800592BCF30562B4030562B2A30562B24301E
:1016A800562B103023009B00842B20002808003A7A
:1016B80003196B2B253A0319702B6E3A0319752BF6
:1016C8003B3A03197A2BF33A03197F2B842B27080B
:1016D800733A0319552B842B2708803A03194D2B8D
:1016E800842B2708003A03194F2B842B2708803AAC
:1016F8000319512B842B2708403A0319532B842BA9
:1017080022009D171D1523009F151E139E161E12DD
:101718001E159D171D131D169D11210091160B17DF
:101728008B17080009302000B1001E30B000EB30E4
:10173800AF00AF0B9D2BB00B9D2BB10B9D2B000069
:10174800FE302000AB008630AC008731F0278B31AB
:1017580009302000B1001E30B000EB30AF00AF0BF5
:10176800B32BB00BB32BB10BB32B00003F302000D1
:10177800AB008730AC008731F0278B3120002E0872
:10178800A9002D08A800893139218B316530200046
:10179800A8008730A900893139218B311930200000
:1017A800B1005A30B000C830AF00AF0BD92BB00B26
:1017B800D92BB10BD92B00320800DC302000AD004A
:1017C8001E30AE008931D4218B312000B30033089C
:1017D800D800DD30AD001E30AE008931D4218B3108
:1017E8002000B3003308D900DE30AD001E30AE0053
:1017F8008931D4218B312000B3003308DA00DF307F
:10180800AD001E30AE008931D4218B312000B300E9
:101818003308DB00310886003208870001085806C3
:10182800031D332C31088600320887004131010836
:101838005906031D332C31088600320887004231CF
:1018480001085A06031D332C310886003208870028
:10185800433101085B06031D332C013008000030BA
:10186800080052302000B5002C30B4004F30B300CF
:10187800B30B3C2CB40B3C2CB50B3C2C0032FE308B
:101888002000AB008630AC008731F0278C31523015
:101898002000B5002C30B4004F30B300B30B522CED
:1018A800B40B522CB50B522C003223302000AB0065
:1018B8008730AC008731F0278C3120002E08A90032
:1018C8002D08A800893139218C3164302000A80006
:1018D8008730A900893139218C3152302000B50078
:1018E8002C30B4004F30B300B30B782CB40B782CE9
:1018F800B50B782C003220003008A9002F08A8006A
:10190800893139218C3120003208A9003108A8001A
:10191800893139218C311A308831F1208C3152309B
:101928002000B5002C30B4004F30B300B30B9A2C14
:10193800B40B9A2CB50B9A2C003208006430860040
:10194800203087000030C03F643086002030870098
:101958004131810186308600203087008101643062
:10196800860020308700423181012000AB010F3012
:101978002B020318E32C2B08A700A8016830A90044
:101988002030AA0027082907860028082A3D870052
:1019980081012B08A700A8017730A9002030AA00F0
:1019A80027082907860028082A3D87008101013079
:1019B800A7002708AB070F302B02031CBF2CAB0175
:1019C80040302B020318FE2C2B08A700A8018D30ED
:1019D800A9002030AA0027082907860028082A3DE0
:1019E800870081010130A7002708AB0740302B0290
:1019F800031CE82CAB0119302B02031808002B0834
:101A0800A700A801CD30A9002030AA00270829077F
:101A1800860028082A3D870081010130A700270891
:101A2800AB07FF2C2000B701B8010130B50000302A
:101A3800B600B901BA013108A8003008A7000A3079
:101A4800A9000030AA0089316B218D3120002808B7
:101A5800BA002708B9003908093EB90000303A3DF4
:101A6800BA000A30B7000030B80037083804031944
:101A780008002F0803196E2D0130AF022F08B2009D
:101A8800B30132082D07860033082E3D8700303019
:101A98000102031C772D2F08B200B30132082D076D
:101AA800860033082E3D87003A3001020318772D4F
:101AB8003A08A9003908A8002F08B200B301320873
:101AC8002D07860033082E3D87000108B40034082E
:101AD800AA00742D20003A08A9003908A800AA0114
:101AE800893150218D3101302000B9020030BA3BD4
:101AF8003430B300F130B200B20B802DB30B802D1F
:101B0800003201302000B7020030B83B392D2200E6
:101B18000E1768302000AE00E430AD00AD0B922DFA
:101B2800AE0B922D000022000E1315302000AF00DE
:101B38004B30AE00D130AD00AD0BA02DAE0BA02DBB
:101B4800AF0BA02D000022000E17CB302000AF00F5
:101B5800ED30AE004C30AD00AD0BB02DAE0BB02D5E
:101B6800AF0BB02D0032CB302000AF00ED30AE000F
:101B78004C30AD00AD0BBE2DAE0BBE2DAF0BBE2D48
:101B880000325A302000AB008730AC008731F02794
:101B98008D3152302000AF002C30AE004F30AD00F8
:101BA800AD0BD42DAE0BD42DAF0BD42D0032483055
:101BB8002000AB008730AC008731F0278D315230E0
:101BC8002000AF002C30AE004F30AD00AD0BEA2D39
:101BD800AE0BEA2DAF0BEA2D00320C302000AB0023
:101BE8008730AC008731F0278D3152302000AF00AC
:101BF8002C30AE004F30AD00AD0B002EAE0B002EDA
:101C0800AF0B002E00320800E0302000A8001E3084
:101C1800A9002B0884002C0885000008AD002D08B9
:101C2800AA00893150218E3134302000AE00F130C5
:101C3800AD00AD0B1D2EAE0B1D2E0032E130200085
:101C4800A8001E30A9002C08AE002B08AD000130FA
:101C58002D0784002E0803182E0A85000008AF00FF
:101C68002F08AA00893150218E3134302000AE006F
:101C7800F130AD00AD0B3E2EAE0B3E2E0032E23001
:101C88002000A8001E30A9002C08AE002B08AD00CB
:101C980002302D0784002E0803182E0A850000083C
:101CA800AF002F08AA00893150218E31343020002E
:101CB800AE00F130AD00AD0B5F2EAE0B5F2E0032E3
:101CC800E3302000A8001E30A9002C08AE002B0825
:101CD800AD0003302D0784002E0803182E0A850056
:101CE8000008AF002F08AA00893150218E31343006
:101CF8002000AE00F130AD00AD0B802EAE0B802E73
:101D080000320800DC302000A8001E30A9002B0893
:101D180084002C0885000008AD002D08AA00893130
:101D280050218E3134302000AE00F130AD00AD0BC3
:101D38009B2EAE0B9B2E0032DD302000A8001E30FB
:101D4800A9002C08AE002B08AD0001302D07840037
:101D58002E0803182E0A85000008AF002F08AA00D5
:101D6800893150218E3134302000AE00F130AD0081
:101D7800AD0BBC2EAE0BBC2E0032DE302000A8000E
:101D88001E30A9002C08AE002B08AD0002302D072C
:101D980084002E0803182E0A85000008AF002F08BB
:101DA800AA00893150218E3134302000AE00F13044
:101DB800AD00AD0BDD2EAE0BDD2E0032DF30200086
:101DC800A8001E30A9002C08AE002B08AD00033077
:101DD8002D0784002E0803182E0A85000008AF007E
:101DE8002F08AA00893150218E3134302000AE00EE
:101DF800F130AD00AD0BFE2EAE0BFE2E003208000A
:101E080020308931AC218F31893128218F3122004E
:101E18000C1280302000A7002530A8008B314C23FD
:101E28008F31893103218F3122008E140E140E1543
:101E38008D318B258F3155302000AB008730AC00B9
:101E48008E3108268F31FF302000D0005008DF0087
:101E5800FF30D0005008E000FF30D0005008E1000B
:101E6800FF30D0005008E2005F30B1000030B2000F
:101E78008B31E1238F31003A03194A2F5F3020005C
:101E8800AB008730AC008E3186268F3122008E1051
:101E98000E100E158B1723001D1618302000AD00EC
:101EA8008730AE00EF30AF008630B0006730B10049
:101EB8008730B2008C3135248F31F02F23009D1CE0
:101EC800712F1D12E4302000D00000320032D00BF8
:101ED800692F0032000023001D162D302000AB00B2
:101EE8008730AC008731F0278F316430860020308E
:101EF800870042310103031D792F643086002030AA
:101F080087004231810152302000D2002C30D100AC
:101F18004F30D000D00B8E2FD10B8E2FD20B8E2F9F
:101F280000326400F02F4F302000AB008730AC0047
:101F38008731F0278F3168302000B1002030B2009F
:101F480086308600203087000108D0005008B30092
:101F580087316B278F312000310832040319BE2FD7
:101F680022000C1605308931FF218F3122000C1216
:101F78000E15C22F05308A312B228F318C31A224C5
:101F88008F31EE2F22000E1488302000AD00203053
:101F9800AE008B3196238F3122000E1003302000C3
:101FA800D0005008DE00F02F833166238F312200E5
:101FB8000E148C31A2248F3158302000AD008730A8
:101FC800AE006230AF008730B0008A31C3228F3153
:101FD80022000E102000DE0120005E08003A0319DE
:101FE800622F013A0319972F033A0319C62F013AB2
:081FF8000319D82FF02FF02F80
:020000040001F9
:04000E001CFEFFDFF6
:00000001FF
