:04000000803116280D
:100008007E14803120007F08FB002100911E1128FA
:100018002000911E1128803131207B082000FF002C
:100028007E1009008031182878308400203085003F
:100038007830FE000030FF008731F42780315130DE
:100048008400003085000C30FE000030FF0087314E
:10005800F4277E10200085313F2D22000E14230046
:100068001908F00070082000A000783086002030C1
:1000780087000130C03FBC2A7830860020308700D6
:1000880041310103031DC42A5A08031DC42A7830CC
:1000980086002030870041318101C42A78308600EB
:1000A8002030870041310108031D6128793086001E
:1000B8002030870001308100992A5A08F000F101A8
:1000C8009230F2002030F300700872078600710841
:1000D800733D8700810178308600203087004131E8
:1000E800810178308600203087005A312B30010694
:1000F800031D802A78308600203087005B3143302A
:100108000106031D0A2978308600203087005C31FB
:100118004C300106031D0A297830860020308700FC
:100128005D3149300106031D0A290830F0007008C6
:10013800A200D22820002208F000F1019230F2003B
:100148002030F3007008720786007108733D87003D
:100158000108F4002208F83EF500FF3003180030CB
:10016800F6007C30F7002030F80075087707F900B2
:100178007608783DFA00790886007A0887007408BE
:1001880081000130F0007008A2070130F0007830DB
:100198008600203087005331700881072208F0005C
:1001A800F1019230F2002030F300700872078600E7
:1001B8007108733D8700223001060319F5282208CB
:1001C800F83EF000FF3003180030F1007108803A63
:1001D800F20080307202031DF3280F307002031CF6
:1001E8009E2820002208F83EF000FF300318003057
:1001F800F1007C30F2002030F300700872078600AE
:100208007108733D87008101DC01DC0A78308600C3
:10021800203087005B3143300106031D9B2978306D
:100228008600203087005C314D300106031D9B2974
:1002380078308600203087005D3154300106031D78
:100248009B2978308600203087005E3149300106CE
:10025800031D9B290C30F0007008A3005D292308BA
:10026800F000F1019230F2002030F30070087207BC
:1002780086007108733D87000108F4002308F43EE6
:10028800F500FF3003180030F6008D30F7002030FD
:10029800F80075087707F9007608783DFA007908BC
:1002A80086007A088700740881000130F000700821
:1002B800A3072308F000F1019230F2002030F30088
:1002C8007008720786007108733D8700303001029C
:1002D800031C7F292308F000F1019230F20020303E
:1002E800F3007008720786007108733D87003A3082
:1002F8000102031C33292308F43EF000FF300318E1
:100308000030F1008D30F2002030F30070087207E1
:1003180086007108733D870081018C30860020308B
:100328008700013081000230F0007008DC0078306E
:100338008600203087005B3143300106031D0C2AFC
:1003480078308600203087005C3153300106031D69
:100358000C2A78308600203087005D315130010644
:10036800031D0C2A0630F0007008A400E5292408B3
:10037800F000F1019230F2002030F30070087207AB
:1003880086007108733D87000108F4002408FA3ECE
:10039800F500FF3003180030F600EB30F70020308E
:1003A800F80075087707F9007608783DFA007908AB
:1003B80086007A088700740881000130F000700810
:1003C800A4072408F000F1019230F2002030F30075
:1003D8007008720786007108733D87002C3001068B
:1003E8000319FA2908302402031CBB292408FA3E01
:1003F800F000FF3003180030F100EB30F20020303D
:10040800F3007008720786007108733D8700810148
:1004180078308600203087005B3143300106031DA9
:10042800982A78308600203087005C314D300106EC
:10043800031D982A78308600203087005D314430CB
:100448000106031D982A0430F0007008A100572AFD
:1004580020002108F000F1019230F2002030F30072
:100468007008720786007108733D87000108F40060
:100478002108FC3EF500FF3003180030F600D230AA
:10048800F7002030F80075087707F9007608783DFE
:10049800FA00790886007A0887007408810001301C
:1004A800F0007008A1072108F000F1019230F20075
:1004B8002030F3007008720786007108733D8700CA
:1004C8002330010603197A2A2108FC3EF000FF3088
:1004D80003180030F1007108803AF200803072028F
:1004E800031D782A19307002031C2C2A0330F000EF
:1004F80070082000DC00982A7830860020308700B9
:100508005A314F300106031D982A78308600203072
:1005180087005B314B300106031D982A7A3086002C
:100528002030870001308100DA01783086002030E1
:1005380087000030C03FC42A3F305A020318C42A3B
:100548005A08F000F1019230F2002030F3007008F0
:100558007207F4007108733DF50074088600750889
:100568008700200881000130F0007008DA07C42AEB
:1005780020080A3A03195228073A03194028A02AE2
:1005880022000E100800D2308600203087003A3052
:100598000106031D0800D3302000AF002030B00052
:1005A8008E31E0268231003A03190800D8308600DF
:1005B8002030870041300106031D992BD930860071
:1005C8002030870044300106031D992BDA3086005D
:1005D8002030870044300106031D992B0A30200083
:1005E800C2004208DB002B2B5B08C200C301D230DB
:1005F800C4002030C5004208440786004308453D32
:1006080087000108C6005B08F63EC700FF300318E4
:100618000030C8007C30C9002030CA0047084907AC
:10062800CB0048084A3DCC004B0886004C088700A0
:10063800460881000130C2004208DB070130C200D1
:1006480078308600203087005331420881075B08E4
:10065800C200C301D230C4002030C500420844079C
:1006680086004308453D870030300102031C4D2BAE
:100678005B08C200C301D230C4002030C500420864
:10068800440786004308453D87003A300102031CB1
:10069800F82A5B08F63EC200FF3003180030C3009A
:1006A8007C30C4002030C500420844078600430857
:1006B800453D870081017C30AF002030B0007830A4
:1006C80086002030870053310108C2004208B1007B
:1006D80086310F26823120002F083004031D8D2B10
:1006E8007C30B9002030BA0078308600203087008E
:1006F80053310108C2004208BB008E310226823104
:100708007C302000AB002030AC008C30AD00843051
:10071800952B7C302000AB002030AC00A730AD001A
:100728008430AE008F3134278231D83086002030B3
:10073800870044300106031D4C2CD9308600203038
:10074800870045300106031D4C2CDA308600203026
:1007580087004C300106031D4C2C0A302000C200D3
:100768004208DB00EA2B5B08C200C301D230C40098
:100778002030C5004208440786004308453D8700ED
:100788000108C6005B08F63EC700FF3003180030BA
:10079800C8007C30C9002030CA0047084907CB0090
:1007A80048084A3DCC004B0886004C08870046089C
:1007B80081000130C2004208DB070130C2007830F6
:1007C8008600203087005331420881075B08C20049
:1007D800C301D230C4002030C50042084407860057
:1007E8004308453D870030300102031C0C2C5B0890
:1007F800C200C301D230C4002030C50042084407FB
:1008080086004308453D87003A300102031CB72B98
:100818005B08F63EC200FF3003180030C3007C308E
:10082800C4002030C5004208440786004308453DFF
:10083800870081017C30AF002030B000783086001E
:100848002030870053310108C2004208B1008631C8
:100858000F26823120002F08C3004308CD004D0821
:1008680003194C2C4D08FF3EAB00FF300318003035
:10087800AC008D318A2582317C302000AB002030DD
:10088800AC006F30AD008430AE008F313427823138
:10089800D83086002030870046300106031D080046
:1008A800D93086002030870041300106031D08003A
:1008B800DA3086002030870043300106031D080027
:1008C8008C317B24823131302000A9008530AA0088
:1008D80086319226080059346F34753472342034C6
:1008E8006E3475346D34623465347234203468344F
:1008F8006134643420346234653465346E342034B1
:10090800643465346C346534743465346434003468
:1009180059346F347534723420346E3475346D3410
:100928006234653472342034683461346434203479
:100938006234653465346E3420346134643464342C
:1009480065346434003459346F3475347234203467
:100958006E3475346D3462346534723420346134E5
:100968006C347234653461346434793420346534D9
:1009780078346934733474340034533479347334C8
:10098800743465346D34203465346E3461346234C3
:100998006C34653464340034413454342B34433477
:1009A8004D344734463420343D34203431340D340A
:1009B8000A340034413454342B3443344C344934ED
:1009C80050343D3431340D340A3400343634313443
:1009D80034343134363435343434383431343834CA
:1009E8000034413454342B3443344D344734533475
:1009F8003D3422340034413454342B34433453349A
:100A080051340D340A340034413454342B344334D3
:100A18004D34473444343D340034413454342B3459
:100A280043344D34473452343D3400344134543423
:100A3800453430340D340A340034413454344834A5
:100A48000D340A340034413454340D340A3400343B
:100A5800413454340A340D340034313432343334AC
:100A68003434003422340D340A3400342D343E3406
:100A780000343134003408308C315F2485318C31B6
:100A88000024853122000C1273302000A5000030AC
:100A9800A6008E314B2685318B31D7238531220034
:100AA8008E140E140E1587318527853131302000BC
:100AB800A9008530AA0086319226853122008E1041
:100AC8000E100E158B1723001D16EA302000AB0000
:100AD8008430AC00C130AD008430AE008F31342793
:100AE8008531FF2D23009D1C812D1D12853020008E
:100AF800CE00CE0B7D2D23001D16FF302000A9004F
:100B08008430AA008B31F023853115302000D000C5
:100B18004B30CF00D130CE00CE0B902DCF0B902D87
:100B2800D00B902D0000FF2D21302000A90085302A
:100B3800AA008B31F02385317C302000AF002030B3
:100B4800B000783086002030870053310108CE008D
:100B58004E08B10086310F26853120002F08300459
:100B68000319CD2D05308C31F924853122000C165E
:100B78000B302000D0002630CF006630CE00CE0BE0
:100B8800C32DCF0BC32DD00BC32D003222000C1266
:100B9800D12D05308D31272585318F319927853124
:100BA800FD2D05308C31CB2485318D302000AB00F4
:100BB8002030AC008E319526853103302000CE00E0
:100BC8004E08DC00FF2D22000E148231C722853129
:100BD8008F31992785313D302000AB008530AC003E
:100BE8003430AD008530AE008D31C125853122000D
:100BF8000E102000DC0120005C08003A0319762D55
:100C0800013A0319982D033A0319D52D013A03190E
:100C1800E72DFF2DFF2D2000BC01BD01B801B90152
:100C2800BA01BB010930BC000030BD000B303102F5
:100C3800031C702E0A30B2003208B100702EB801C1
:100C4800B9013808013EB2000030393DB300B2099D
:100C5800B309B20A0319B30A32082F07B4003308DC
:100C6800303DB50034088600350887004A31380918
:100C7800B6003909B700B60A0319B70A3C0836079F
:100C8800AB003D08373DAC008C31A024863101060D
:100C9800031D542E01302000BA000030BB00572E2F
:100CA8002000BA01BB010130B8070030B93D3A084D
:100CB8003B0403196A2E3108B200B3013308390224
:100CC800031D682E32083802031C252E3C080A3EF4
:100CD800BC0000303D3DBD003A083B04031D7B2E9F
:100CE80009303D02BA3003193C02031C232E3A0393
:100CF8003B04031D8F2E0A30A5000030A6003D08D6
:100D0800A8003C08A7008D31552520002608B00012
:100D18002508AF000800AF01B0010800DC30200052
:100D2800A6001E30A700290884002A0885000008AC
:100D3800AB002B08A8008C31282486310D30200008
:100D4800AC00FB30AB00AB0BA72EAC0BA72E0032D0
:100D5800DD302000A6001E30A7002A08AC002908B4
:100D6800AB0001302B0784002C0803182C0A8500DF
:100D78000008AD002D08A8008C31282486310D30DC
:100D88002000AC00FB30AB00AB0BC82EAC0BC82E60
:100D98000032DE302000A6001E30A7002A08AC0072
:100DA8002908AB0002302B0784002C0803182C0AF2
:100DB80085000008AD002D08A8008C312824863154
:100DC8000D302000AC00FB30AB00AB0BE92EAC0BB8
:100DD800E92E0032DF302000A6001E30A7002A08C6
:100DE800AC002908AB0003302B0784002C0803183B
:100DF8002C0A85000008AD002D08A8008C31282495
:100E080086310D302000AC00FB30AB00AB0B0A2F55
:100E1800AC0B0A2F003208002000B501B6010130E2
:100E2800B3000030B400B701B8012F08A6002E089F
:100E3800A5000A30A7000030A8008C314324873170
:100E480020002608B8002508B7003708093EB70073
:100E58000030383DB8000A30B5000030B60035081B
:100E68003604031908002D080319682F0130AD0254
:100E78002D08B000B10130082B07860031082C3D41
:100E8800870030300102031C712F2D08B000B1011A
:100E980030082B07860031082C3D87003A300102C4
:100EA8000318712F3808A7003708A6002D08B000CE
:100EB800B10130082B07860031082C3D8700010856
:100EC800B2003208A8006E2F20003808A7003708A3
:100ED800A600A8018C312824873101302000B702F0
:100EE8000030B83B0D30B100FB30B000B00B7A2FAA
:100EF800B10B7A2F003201302000B5020030B63B2A
:100F0800332F22000E171A302000AC00F830AB0047
:100F1800AB0B8C2FAC0B8C2F000022000E1306306D
:100F28002000AD001330AC00B130AB00AB0B9A2FF2
:100F3800AC0B9A2FAD0B9A2F003222000E17663099
:100F48002000AD007730AC002430AB00AB0BAA2FEB
:100F5800AC0BAA2FAD0BAA2F000027302000A90048
:100F68008530AA008B31F023873115302000AD0081
:100F78004B30AC00D130AB00AB0BC02FAC0BC02F4B
:100F8800AD0BC02F00001A302000A9008530AA0040
:100F98008B31F023873115302000AD004B30AC0089
:100FA800D130AB00AB0BD62FAC0BD62FAD0BD62F59
:100FB8000000DE302000A9008430AA008B31F02325
:100FC800873115302000AD004B30AC00D130AB007C
:100FD800AB0BEC2FAC0BEC2FAD0BEC2F000008008B
:100FE8006400800101310130FE020030FF3B7F08C0
:080FF8007E0403190034F52FFB
:1017500024001614161C0800AA2B24001615161DAA
:101760000800AF2B24009614961C0800B42B24000C
:1017700096161616161E0800BA2B240016081F39D6
:10178000031DBD2B141D0800BD2B2000A500111E3C
:10179000C72B250823009A0008002000A500250873
:1017A000240091001418D22B8B31BD230800210096
:1017B0008E178D130D1724009417283095000930CB
:1017C0009200080024009615141CE42B1108200038
:1017D000A5002508A6008B31BD232000260808009F
:1017E0000D308B31C5238B310A308B31C5238B31C2
:1017F00020002A08A7002908A6008C31112408001F
:1018000021008D130D138E130D1623008D01210061
:101810000E108E100E110E128E160E130C128C124C
:1018200008002000260884002708850012000319FC
:1018300008002000260884002708850000088B3156
:10184000C5238C3101302000A6070030A73D112CA4
:1018500022008D138B31A8238C31A0308B31CD2306
:101860008C31200027088B31CD238C3120002608B5
:101870008B31CD238C31200028088B31CD238C3146
:101880008B31AD2308002000A901AA01251C4C2C96
:101890002708A9072808AA3D0130A735A80D890BFC
:1018A0004D2C0130A636A50C890B522C2508260498
:1018B000031D462C2A08A6002908A50008002000C0
:1018C000A5006E2C6A3021009900080072302100BA
:1018D000990008007A3021009900080020002508AE
:1018E000043A0319622C0C3A0319662C183A0319AE
:1018F0006A2C7A2C08002000AB01AC0103302C02CA
:10190000203003192B02031808002C08A7002B080D
:10191000A600FF30A9002908A8008C3128248C31AA
:101920000D302000AA00FB30A900A90B952CAA0BB2
:10193000952C003201302000AB070030AC3D7E2CEE
:101940002000AE0122008D138B31A8238C31A030F2
:101950008B31CD238C3120002C088B31CD238C3161
:1019600020002B088B31CD238C318B31B2238C316D
:10197000A1308B31CD238C318B31E2238C3120008F
:10198000AD002D08AE008B31B7238C318B31AD23E8
:1019900020002E0808002000A800A901A90128089D
:1019A00029020318080022000E1402302000A700AC
:1019B0000430A600BA30A500A50BDC2CA60BDC2C4D
:1019C000A70BDC2C000022000E1002302000A70024
:1019D0000430A600BA30A500A50BEC2CA60BEC2C0D
:1019E000A70BEC2C000001302000A5002508A9075A
:1019F000CF2C2000A800A901A9012808290203185A
:101A0000080022000E1502302000A7000430A600B6
:101A1000BA30A500A50B0A2DA60B0A2DA70B0A2D7F
:101A2000000022000E1102302000A7000430A600A2
:101A3000BA30A500A50B1A2DA60B1A2DA70B1A2D2F
:101A4000000001302000A5002508A907FD2C20007A
:101A5000A800A901A90128082902031808002200EA
:101A60008E1402302000A7000430A600BA30A50072
:101A7000A50B382DA60B382DA70B382D0000220002
:101A80008E1002302000A7000430A600BA30A50056
:101A9000A50B482DA60B482DA70B482D00000130A3
:101AA0002000A5002508A9072B2D2000AA01AB01C5
:101AB000250826040319852DAC01AC0AA61B6A2D46
:101AC0000130A535A60D890B612D0130A90029082B
:101AD000AC075E2D0130AA35AB0D890B6B2D2608A6
:101AE0002802031D752D25082702031C7C2D2508BF
:101AF000A7022608A83B2A140130A636A50C890B9C
:101B00007D2D0130AC02031D6A2D2B08A6002A088A
:101B1000A50008002000B101AF01B0012C08A6000B
:101B20002B08A5000A30A7000030A8008C31432400
:101B30008D3120002608B0002508AF00B1010A3021
:101B400031020318080031082F07A60030080318D7
:101B5000300AA700FF30AD002D08A8008C312824E2
:101B60008D310D302000AE00FB30AD00AD0BB62D39
:101B7000AE0BB62D003201302000AD002D08B107AC
:101B80009F2D0B302000B1002630B0006630AF0032
:101B9000AF0BC82DB00BC82DB10BC82D00320830CB
:101BA0002000A9008530AA008B31F0238D31200060
:101BB0002C08A7002B08A6008C3111248D312C3065
:101BC0008B31C5238D3120002E08A7002D08A600DB
:101BD0008C3111248D3137302000A6008530A700CC
:101BE0008C3111248D3115302000B1004B30B00004
:101BF000D130AF00AF0BFA2DB00BFA2DB10BFA2D8F
:101C0000000008002000C001C101BD01BE01BF01EC
:101C10004108A6004008A5000A30A7000030A8002F
:101C20008C3143248E3120002608AC002508AB00FF
:101C30008C31A0248E312000BC003C08BF00303025
:101C40003F02031C272E3A303F02031C2B2E01308B
:101C5000BD000030BE000130C0070030C13D3D086E
:101C60003E04031D3A2E00304102FA3003194002AF
:101C7000031C082E3A08AC003908AB003B08BC0036
:101C80003C08AD004008FF3EAE00FF30413DAF00D4
:101C9000873110270800582E3330552E4030552EEE
:101CA0002A30552E2430552E103023009B00832ED1
:101CB00020002608003A03196A2E253A03196F2ED0
:101CC0006E3A0319742E3B3A0319792EF33A03192D
:101CD0007E2E832E2508733A0319542E832E250851
:101CE000803A03194C2E832E2508003A03194E2EF4
:101CF000832E2508803A0319502E832E2508403A5A
:101D00000319522E832E22009D171D1523009F15A7
:101D10001E139E161E121E159D171D131D169D11B6
:101D2000210091160B178B17080015302000AF000B
:101D30004B30AE00D130AD00AD0B9C2EAE0B9C2EC7
:101D4000AF0B9C2E0000D0302000A9008430AA00E8
:101D50008B31F0238E3115302000AF004B30AE00B8
:101D6000D130AD00AD0BB22EAE0BB22EAF0BB22EFA
:101D7000000011302000A9008530AA008B31F0232B
:101D80008E3120002C08A7002B08A6008C311124CE
:101D90008E3137302000A6008530A7008C31112409
:101DA0008E3115302000AF004B30AE00D130AD0089
:101DB000AD0BD82EAE0BD82EAF0BD82E00000800DE
:101DC000DC302000AB001E30AC008C31A0248E3102
:101DD0002000B1003108D600DD30AB001E30AC0071
:101DE0008C31A0248E312000B1003108D700DE30C4
:101DF000AB001E30AC008C31A0248E312000B1002D
:101E00003108D800DF30AB001E30AC008C31A0248C
:101E10008E312000B1003108D9002F08860030082B
:101E2000870001085606031D322F2F088600300850
:101E30008700413101085706031D322F2F08860005
:101E400030088700423101085806031D322F2F0841
:101E5000860030088700433101085906031D322FE0
:101E6000013008000030080015302000B1004B3070
:101E7000B000D130AF00AF0B3B2FB00B3B2FB10BFD
:101E80003B2F0000D0302000A9008430AA008B3105
:101E9000F0238F3115302000B1004B30B000D1302D
:101EA000AF00AF0B512FB00B512FB10B512F0000D2
:101EB000F5302000A9008430AA008B31F0238F3147
:101EC00020002C08A7002B08A6008C3111248F318C
:101ED00036302000A6008530A7008C3111248F31C8
:101EE00015302000B1004B30B000D130AF00AF0B47
:101EF000772FB00B772FB10B772F000020002E0823
:101F0000A7002D08A6008C3111248F311A308B3197
:101F1000C5238F3115302000B1004B30B000D130D7
:101F2000AF00AF0B912FB00B912FB10B912F000091
:101F3000080078308600203087000030C03F7830BD
:101F400086002030870041318101783086002030C2
:101F5000870053318101783086002030870042317C
:101F600081012000A9010F3029020318CD2F290873
:101F7000A500A6017C30A7002030A800250827076F
:101F800086002608283D870081010130A50025082C
:101F9000A9070F302902031CB72FA90140302902DD
:101FA0000318E82F2908A500A6019230A7002030C9
:101FB000A8002508270786002608283D87008101FC
:101FC0000130A5002508A90740302902031CD22FA3
:101FD000A90119302902031808002908A500A60143
:101FE000D230A7002030A800250827078600260841
:101FF000283D870081010130A5002508A907E92FA8
:020000040001F9
:04000E0004FEFFFEEF
:00000001FF
