:04000000803116280D
:100008007E14803120007F08FB002100911E1128FA
:100018002000911E112880312E207B082000FF002F
:100028007E1009008031182878308400203085003F
:100038007830FE000030FF008E319B26CF01D001C2
:10004800D101D201D301D401D501D6017E102000FF
:100058008231B32A22000E1423001908F000700818
:100068002000A00078308600203087000130C03F93
:10007800A82A783086002030870041310108013AEB
:10008800031DB02AD408031DB02A7830860020301A
:10009800870041318101B02A7830860020308700FE
:1000A80041310108031D5F28793086002030870020
:1000B80001308100852A5408F000F1019230F200E5
:1000C8002030F3007008720786007108733D8700BE
:1000D80081017830860020308700413181017830F5
:1000E8008600203087005A3101082B3A031D6C2AFC
:1000F80078308600203087005B310108433A031DC1
:10010800F62878308600203087005C3101084C3AA8
:10011800031DF62878308600203087005D310108FD
:10012800493A031DF6280830F0007008A100E228BB
:100138002108F83EF000FF3003180030F100710884
:10014800803AF20080307202031DAC280F30700232
:100158000318F32820002108F000F1019230F20082
:100168002030F3007008720786007108733D87001D
:100178000108F4002108F83EF500FF3003180030AC
:10018800F6007C30F7002030F80075087707F90092
:100198007608783DFA00790886007A08870074089E
:1001A80081000130F0007008A1070130F0007830BC
:1001B8008600203087005331700881072108F0003D
:1001C800F1019230F2002030F300700872078600C7
:1001D8007108733D87000108223A031D9C282000FE
:1001E800D601D60A78308600203087005B310108B6
:1001F800433A031D872978308600203087005C3118
:1002080001084D3A031D8729783086002030870081
:100218005D310108543A031D872978308600203063
:1002280087005E310108493A031D87290C30F00028
:100238007008A30049292308F000F1019230F20068
:100248002030F3007008720786007108733D87003C
:100258000108F4002308F43EF500FF3003180030CD
:10026800F6008D30F7002030F80075087707F900A0
:100278007608783DFA00790886007A0887007408BD
:1002880081000130F0007008A3072308F000F10195
:100298009230F2002030F30070087207860071086F
:1002A800733D870030300102031C6B292308F000DE
:1002B800F1019230F2002030F300700872078600D6
:1002C8007108733D87003A300102031C1F29230877
:1002D800F43EF000FF3003180030F1008D30F200DA
:1002E8002030F3007008720786007108733D87009C
:1002F80081018C3086002030870001308100023077
:10030800F0007008D60078308600203087005B3116
:100318000108433A031DF829783086002030870009
:100328005C310108533A031DF829783086002030E3
:1003380087005D310108513A031DF8290630F000A5
:100348007008A400D1292408F000F1019230F200CD
:100358002030F3007008720786007108733D87002B
:100368000108F4002408FA3EF500FF3003180030B5
:10037800F600EB30F7002030F80075087707F90031
:100388007608783DFA00790886007A0887007408AC
:1003980081000130F0007008A4072408F000F10182
:1003A8009230F2002030F30070087207860071085E
:1003B800733D870001082C3A0319E6290830240206
:1003C800031CA7292408FA3EF000FF300318003068
:1003D800F100EB30F2002030F3007008720786005D
:1003E8007108733D870081017830860020308700CE
:1003F8005B310108433A031D842A78308600203097
:1004080087005C3101084D3A031D842A7830860044
:10041800203087005D310108443A031D842A0430E6
:10042800F0007008A200432A20002208F000F10121
:100438009230F2002030F3007008720786007108CD
:10044800733D87000108F4002208FC3EF500FF30E8
:1004580003180030F600D230F7002030F800750895
:100468007707F9007608783DFA00790886007A0857
:100478008700740881000130F0007008A207220884
:10048800F000F1019230F2002030F300700872079A
:1004980086007108733D87000108233A0319662A0C
:1004A8002208FC3EF000FF3003180030F10071080C
:1004B800803AF20080307202031D642A19307002FB
:1004C800031C182A0330F00070082000D600842A84
:1004D80078308600203087005A3101084F3A031DD2
:1004E800842A78308600203087005B3101084B3A37
:1004F800031D842A7A30860020308700013081006D
:10050800D40178308600203087000030C03FB02A00
:100518003F3054020318B02A5408F000F101923019
:10052800F2002030F30070087207F4007108733D80
:10053800F5007408860075088700200881000130DE
:10054800F0007008D407B02A20080A3A0319502886
:10055800073A03193D288C2A22000E10080008309B
:100568008F311027823173302000A5000030A6009B
:100578008731912782318E31A726823186319F2695
:10058800823122000E108E108B1723001D163F2B70
:1005980049302000A8008530A9008E31B726823165
:1005A80015302000CE004B30CD00D130CC00CC0B24
:1005B800DB2ACD0BDB2ACE0BDB2A00003F2B593080
:1005C8002000A8008530A9008E31B72682317C3002
:1005D8002000B0002030B10078308600203087003D
:1005E80053310108CC004C08B200843151248231C7
:1005F800003A0319122B22000C160B302000CE00F3
:100608002630CD006630CC00CC0B082BCD0B082B48
:10061800CE0B082B003222000C123A2B05308F31FA
:10062800A42782313A2B05308F31762782318D30DD
:100638002000AA002030AB008631F8268231033032
:100648002000CC004C08D6003F2B22000E1483312A
:100658004F2382311F302000AA008530AB000030C4
:10066800AC008530AD0085316D2582318731452755
:1006780082312000D60120005608003A0319CC2AFE
:10068800013A0319E32A033A0319172B013A03190C
:10069800292B3F2B3F2BD2308600203087000108C2
:1006A8003A3A031D0800D33086002030870001083D
:1006B800413A031D0800D430860020308700010825
:1006C800443A031D0800D530860020308700010811
:1006D800443A031D080005302000C1004108D50038
:1006E800A82B5508C100C2019230C3002030C400B5
:1006F8004108430786004208443D87000108C500B9
:100708005508FB3EC600FF3003180030C7007C3098
:10071800C8002030C90046084807CA004708493DB4
:10072800CB004A0886004B08870045088100013045
:10073800C1004108D5070130C1007830860020305B
:1007480087005331410881075508C100C201D230E2
:10075800C3002030C4004108430786004208443DD6
:10076800870030300102031CCA2B5508C100C201A2
:10077800D230C3002030C400410843078600420835
:10078800443D87003A300102031C752B7C30BB00C6
:100798002030BC00783086002030870053310108B3
:1007A800C1004108BD0086313C2608002000B80180
:1007B800B701B70AB901BA013308A601A60732087A
:1007C800A501A5070A30A7000030A8008F312C2703
:1007D800833120002608BA01BA072508B901B907EC
:1007E8003908093EB90000303A3DBA000A30B40071
:1007F8003408B800B8080319080031080319342C64
:100808000130B1023108B400B50134082F07860061
:100818003508303D870030300102031C3F2C310879
:10082800B400B50134082F0786003508303D87002D
:100838003A30010203183F2C3A08AD01AD073908D8
:10084800AC01AC073108B400B50134082F078600A5
:100858003508303D87000108B6003608AE003C2C4C
:1008680020003A08AD01AD073908AC01AC07AE016C
:100878008731DB27833101302000B9020030BA3BD1
:100888000D30B500FB30B400B40B482CB50B482C28
:10089800003201302000B802FE2B2000BB01BC0151
:1008A800B901BA010930BB000030BC000B3032027C
:1008B800031CA62C0A30B3003308B200A62CB901D9
:1008C8003908013EB300003003180130B400B30901
:1008D800B409B30A0319B40A33083007B500340859
:1008E800313DB60035088600360887004A31390898
:1008F800B700B801B709B809B70A0319B80A3B081D
:100908003707AC003C08383DAD008E31F426843101
:100918000106031D932C2000BA01BA0A952C200069
:10092800BA010130B3003308B9073A080319A02CFB
:1009380032083902031C642C3B080A3EBB00003015
:100948003C3DBC00BA08031DB02C01303C022230EB
:1009580003193B02031C632C3A08013A031DC42CFB
:100968000A30A5000030A6003C08A801A8073B08EB
:10097800A701A7078431C62420002508013E0800E6
:10098800003008002000AA01AB012608250403193D
:10099800F62CAC01AC0AA61BDB2C0130A535A60D44
:1009A800890BD22C0130A9002908AC07CF2C0130C3
:1009B800AA35AB0D890BDC2C26082802031DE62C72
:1009C80025082702031CED2C2508A7022608A83BAA
:1009D8002A140130A636A50C890BEE2C0130AC0286
:1009E800031DDB2C2B08A601A6072A08A501A507CD
:0209F8000800F5
:100A000043346F346D346D3461346E346434203467
:100A100072346534633465346934763465346434EF
:100A20000034413454342B3443344D344734463449
:100A300020343D34203431340D340A3400342B3426
:100A40003534323436343134343431343634353468
:100A500034343834313438340034413454342B3461
:100A600043344D34473453343D342234003441341C
:100A700054342B3443344D34473444343D340034FF
:100A8000413454342B3443344D34473452343D34A0
:100A90000034413454342B344334533451340D3402
:100AA0000A34003441345434453430340D340A347B
:100AB00000344134543448340D340A340034413461
:100AC00054340D340A340034413454340A340D346F
:100AD000003422340D340A34003415302000B000C4
:100AE0004B30AF00D130AE00AE0B742DAF0B742D78
:100AF000B00B742D000011302000A8008530A90033
:100B00008E31B726853115302000B0004B30AF0054
:100B1000D130AE00AE0B8A2DAF0B8A2DB00B8A2DD3
:100B200000002D302000A8008530A9008E31B726A6
:100B3000853120002B08A701A7072A08A601A607D0
:100B40008E31DC26853169302000A6008530A70073
:100B50008E31DC26853115302000B0004B30AF00DF
:100B6000D130AE00AE0BB22DAF0BB22DB00BB22D0B
:100B7000000020002D08A701A7072C08A601A60742
:100B80008E31DC2685311A308E318A26853115303A
:100B90002000B0004B30AF00D130AE00AE0BCE2DF8
:100BA000AF0BCE2DB00BCE2D000008002000AA0008
:100BB000AB012A360139A700A70CA70C22000E08AA
:100BC000200027067F39270622008E0000320032DF
:100BD00022000D17003200320032003222000D13C5
:100BE0000032003220002A080139A700A70CA70C08
:100BF00022000E08200027067F39270622008E00DB
:100C00000032003222000D17003200320032003272
:100C100022000D13003200320A302000A7002708FE
:100C2000AB00AB1B08002608A8002508A7002B0A6C
:100C30001B2EA836A70C890B192E27080139A900ED
:100C4000A90CA90C22000E08200029067F392906CC
:100C500022008E000032003222000D1700320032D6
:100C60000032003222000D1300320032FF3020002B
:100C7000A7002708AB07112E2000BF01C0014008C4
:100C8000A601A6073F08A501A5070A30A700003066
:100C9000A8008F312C27863120002608AD01AD0732
:100CA0002508AC01AC078E31F42686312000BE0049
:100CB00030303E02031C792E4008A601A6073F08EB
:100CC000A501A5070A30A7000030A8008F312C2706
:100CD000863120002608AD01AD072508AC01AC0720
:100CE0008E31F42686312000BE003A303E02031CCD
:100CF0007D2E0130BF000030C0000130BF07003042
:100D0000C03D40083F04031D8C2E013040022C30B2
:100D100003193F02031C3F2E3C08B001B0073B08FB
:100D2000AF01AF073D08BE003E08B1004008B30167
:100D3000B3073F08B201B2078331DA23080022006B
:100D40000E171A302000AB00F830AA00AA0BA62E0E
:100D5000AB0BA62E000022000E1306302000AC00C4
:100D60001330AB00B130AA00AA0BB42EAB0BB42EDB
:100D7000AC0BB42E003222000E1766302000AC00FF
:100D80007730AB002430AA00AA0BC42EAB0BC42EC4
:100D9000AC0BC42E00005F302000A8008530A900F5
:100DA0008E31B726863115302000AC004B30AB00B9
:100DB000D130AA00AA0BDA2EAB0BDA2EAC0BDA2E4E
:100DC000000052302000A8008530A9008E31B726DF
:100DD000863115302000AC004B30AB00D130AA007A
:100DE000AA0BF02EAB0BF02EAC0BF02E000008007F
:100DF00015302000AE004B30AD00D130AC00AC0B54
:100E0000FF2EAD0BFF2EAE0BFF2E00001130200089
:100E1000A8008530A9008E31B72686311530200014
:100E2000AE004B30AD00D130AC00AC0B152FAD0B8C
:100E3000152FAE0B152F000040302000A800853084
:100E4000A9008E31B726863120002B08A701A707FD
:100E50002A08A601A6078E31DC2686316A302000DA
:100E6000A6008530A7008E31DC26863115302000A3
:100E7000AE004B30AD00D130AC00AC0B3D2FAD0B14
:100E80003D2FAE0B3D2F000008007830860020304B
:100E900087000030C03F7830860020308700413125
:100EA000810178308600203087005331810178300D
:100EB000860020308700423181012000A9010F30D7
:100EC00029020318792F2908A500A6017C30A70064
:100ED0002030A8002508270786002608283D87001F
:100EE00081010130A5002508A9070F302902031C44
:100EF000632FA90140302902031808002908A50022
:100F0000A6019230A7002030A800250827078600F8
:100F10002608283D870081010130A5002508A90782
:100F20007A2F9E2F33309B2F40309B2F2A309B2FC0
:100F300024309B2F103023009B00C92F200026084F
:100F4000003A0319B02F253A0319B52F6E3A031949
:100F5000BA2F3B3A0319BF2FF33A0319C42FC92FF5
:100F60002508733A03199A2FC92F2508803A0319C7
:100F7000922FC92F2508003A0319942FC92F25084D
:100F8000803A0319962FC92F2508403A0319982F44
:100F9000C92F22009D171D1523009F151E139E1695
:100FA0001E121E159D171D131D169D112100911651
:100FB0000B178B1708008E31C926873100302000AF
:100FC000A5000630A60004308531D62587318E3144
:100FD000922687318E31C926873120002D08A6013F
:100FE000A6072C08A501A50705308531D625873130
:100FF00020002E088F31D22787318E3192260800AB
:101D14002000A500111E8C2E250823009A0008001F
:101D240022000D138D138E13003200320032003264
:101D340008006400800101310130FE020030FF3BE5
:101D44007F087E04031900349C2E21008D130D138B
:101D54008E130D1623008D0121000E108E100E110E
:101D64000E128E160E130C1208000D308E318A26B8
:101D74008E310A308E318A268E3120002908A7013F
:101D8400A7072808A601A6078E31DC260800220032
:101D94000D138D178E1700320032003200322200EC
:101DA4000D17003200320032003222000D130032CF
:101DB4000032080020002608840027088500000857
:101DC400003803190800200026088400270885002D
:101DD40000088E318A268E3101302000A60700309B
:101DE400A73DDC2E2000AF018E31C9268E312000A4
:101DF4002D08A601A6072C08A501A50706308531E4
:101E0400D6258E318F314A278E312000AE002E0820
:101E1400AF008E31922620002F0808002000A50074
:101E24001F2F6A30210099000800723021009900A8
:101E340008007A3021009900080020002508043A9F
:101E44000319132F0C3A0319172F183A03191B2FD0
:101E54002B2F08002000A901AA01251C352F2708D3
:101E6400A9072808AA3D0130A735A80D890B362FEC
:101E74000130A636A50C890B3B2F26082504031D2B
:101E84002F2F2A08A601A6072908A501A5070800DF
:101E94002000A701A8010730A5002508A800A81B59
:101EA400742F0032003222000D170032003220005D
:101EB4000D0E0139A500280A602FA535890B5F2F67
:101EC40025082707A6002608A700003200322200B2
:101ED4000D1300320032FF302000A5002508A807AA
:101EE400A81F532F270808002000A800A901A90152
:101EF400280829020318080022008E14023020004A
:101F0400A7000430A600BA30A500A50B872FA60BA6
:101F1400872FA70B872F000022008E10023020008D
:101F2400A7000430A600BA30A500A50B972FA60B76
:101F3400972FA70B972F000001302000A50025083C
:101F4400A9077A2F2000A800A901A90128082902BD
:101F54000318080022000E1402302000A7000430E9
:101F6400A600BA30A500A50BB52FA60BB52FA70B5D
:101F7400B52F000022000E1002302000A70004300C
:101F8400A600BA30A500A50BC52FA60BC52FA70B1D
:101F9400C52F000001302000A5002508A907A82F9F
:101FA4002000A700A8010730A5002508A800A81B49
:101FB40008002708A500280AE02FA536890BDF2F83
:101FC4002508A600A60CA60C22000E082000260652
:101FD4007F39260622008E000032003222000D17BF
:101FE400003200320032003222000D13003200327F
:0C1FF400FF302000A5002508A807D92F09
:020000040001F9
:04000E00A4F9FFFE54
:00000001FF
