:04000000803116280D
:100008007E14803120007F08FB002100911E1128FA
:100018002000911E1128803132207B082000FF002B
:100028007E10090080311828643084002030850053
:100038008C30FE000030FF0088316C208031FC01DC
:1000480053308400003085001630FE000030FF0079
:1000580088316C207E1020008E31DB2E22000E1499
:1000680023001908F00070082000A0006430860002
:10007800203087000130C03F5B2B64308600203081
:10008800870041310103031D632B5C08031D632BAB
:10009800643086002030870041318101632B643051
:1000A80086002030870041310108031D6228653031
:1000B80086002030870001308100382B5C08F00072
:1000C800F1018D30F2002030F300700872078600CD
:1000D8007108733D870081016430860020308700F5
:1000E800413181018D308600203087002B30010698
:1000F800031D212B8E3086002030870043300106F7
:10010800031D06298F308600203087004C300106F9
:10011800031D0629903086002030870049300106EB
:10012800031D06290830F0007008A300CE2820001F
:100138002308F000F1018D30F2002030F300700840
:10014800720786007108733D87000108F4002308D0
:10015800F83EF500FF3003180030F6006830F7006D
:100168002030F80075087707F9007608783DFA001E
:10017800790886007A088700740881000130F00049
:100188007008A3070130F000863086002030870011
:10019800700881072308F000F1018D30F20020304B
:1001A800F3007008720786007108733D87002230DB
:1001B80001060319F1282308F83EF000FF30031860
:1001C8000030F1007108803AF20080307202031D9D
:1001D800EF280F307002031C9B2820002308F83EEC
:1001E800F000FF3003180030F1006830F2002030D2
:1001F800F3007008720786007108733D870081015B
:10020800DF01DF0A8E308600203087004330010688
:10021800031D93298F308600203087004D3001065A
:10022800031D932990308600203087005430010642
:10023800031D93299130860020308700493001063C
:10024800031D93290C30F0007008A40055292408D8
:10025800F000F1018D30F2002030F30070087207D1
:1002680086007108733D87000108F4002408F43EF5
:10027800F500FF3003180030F6008830F700203012
:10028800F80075087707F9007608783DFA007908CC
:1002980086007A088700740881000130F000700831
:1002A800A4072408F000F1018D30F2002030F3009B
:1002B8007008720786007108733D870030300102AC
:1002C800031C77292408F000F1018D30F20020305A
:1002D800F3007008720786007108733D87003A3092
:1002E8000102031C2B292408F43EF000FF300318F8
:1002F8000030F1008830F2002030F30070087207F7
:1003080086007108733D87008101873086002030A0
:100318008700013081000230F0007008DF008E3065
:1003280086002030870043300106031D012A8F30E4
:1003380086002030870053300106031D012A9030C3
:1003480086002030870051300106031D012A06303F
:10035800F0007008A500DA292508F000F1018D30B9
:10036800F2002030F3007008720786007108733DB0
:1003780087000108F4002508FA3EF500FF3003184D
:100388000030F600E630F7002030F80075087707EF
:10039800F9007608783DFA00790886007A0887001F
:1003A800740881000130F0007008A5072508F000E6
:1003B800F1018D30F2002030F300700872078600DA
:1003C8007108733D87002C3001060319EF290830A6
:1003D8002502031CB0292508FA3EF000FF30031857
:1003E8000030F100E630F2002030F30070087207A8
:1003F80086007108733D870081018E3086002030A9
:10040800870043300106031D712A8F308600203093
:1004180087004D300106031D712A90308600203078
:10042800870044300106031D712A0430F00070086B
:10043800A200492A20002208F000F1018D30F200C4
:100448002030F3007008720786007108733D87003A
:100458000108F4002208FC3EF500FF3003180030C4
:10046800F600CD30F7002030F80075087707F9005E
:100478007608783DFA00790886007A0887007408BB
:1004880081000130F0007008A2072208F000F10195
:100498008D30F2002030F300700872078600710872
:1004A800733D87002330010603196C2A2208FC3E9D
:1004B800F000FF3003180030F1007108803AF200B4
:1004C80080307202031D6A2A19307002031C1E2A2A
:1004D8000330F00070082000DF008E3086002030E6
:1004E800870043300106031D372B8F3086002030EC
:1004F80087004D300106031D372B903086002030D1
:10050800870047300106031D372B913086002030C5
:10051800870052300106031D372B1430F000700895
:10052800A600A101AE2A0130F0007008A60726082F
:10053800F000F1018D30F2002030F30070087207EE
:1005480086007108733D870022300106031DAE2A1C
:10055800A101A10A2108031DB52A28302602031C7F
:10056800972A2608F63EF0007008A600ED2A26080D
:10057800F000F1018D30F2002030F30070087207AE
:1005880086007108733D87000108F40086308600F4
:10059800203087000108F500F6017730F700203099
:1005A800F80075087707F9007608783DFA007908A9
:1005B80086007A088700740881000130F00070080E
:1005C800A6070130F00086308600203087007008CA
:1005D80081072608F000F1018D30F2002030F30089
:1005E8007008720786007108733D87002230010683
:1005F8000319092B86308600203087000F3001024E
:100608000318092B2108031DBB2A863086002030D9
:1006180087000108F000F1017730F2002030F30084
:100628007008720786007108733D87008101863063
:100638008600203087008101372B8D3086002030DE
:1006480087004F300106031D372B8E30860020307F
:1006580087004B300106031D372B6630860020309B
:10066800870001308100DC0164308600203087007B
:100678000030C03F632B3F305C020318632B5C08DB
:10068800F000F1018D30F2002030F300700872079D
:10069800F4007108733DF50074088600750887003A
:1006A800200881000130F0007008DC07632B200867
:1006B8000A3A03195328073A031941283F2B220005
:1006C8000E100800CD308600203087003A30010631
:1006D800031D0800CE302000B1002030B2008B315D
:1006E80033238331003A03194F2ED330860020304C
:1006F800870041300106031D5E2CD430860020306F
:10070800870044300106031D5E2CD530860020305A
:10071800870044300106031D5E2C0A302000C40007
:100728004408DE0086308600203087008101CE2B09
:100738005E08C400C501CD30C6002030C70044089B
:10074800460786004508473D87000108C8005E083F
:10075800F63EC900FF3003180030CA006830CB00ED
:100768002030CC0049084B07CD004A084C3DCE004C
:100778004D0886004E088700480881000130C400F3
:100788004408DE070130C400863086002030870028
:10079800440881075E08C400C501CD30C60020307A
:1007A800C7004408460786004508473D87003030A3
:1007B8000102031CF02B5E08C400C501CD30C60041
:1007C8002030C7004408460786004508473D870093
:1007D8003A300102031C9C2B5E08F63EC400FF3031
:1007E80003180030C5006830C6002030C700440830
:1007F800460786004508473D870081016830B100FB
:100808002030B20086308600203087000108C400FE
:100818004408B3008E315626833120003108320453
:10082800031D3E2C6830BB002030BC00863086009B
:10083800203087000108C4004408BD008A315522D1
:10084800833168302000AD002030AE00C630AF00E4
:100858008630B000D630B1008730B2008B318723A4
:10086800833177302000AD002030AE004730AF0034
:100878008730562C68302000AD002030AE00E130C3
:10088800AF008630B000D630B1008730B2008B316F
:100898008723833177302000AD002030AE00AA30A6
:1008A800AF008630B0006830B1002030B2008B3124
:1008B80087238331D33086002030870044300106F7
:1008C800031D282DD43086002030870045300106CE
:1008D800031D282DD5308600203087004C300106B6
:1008E800031D282D0A302000C4004408DE0086308D
:1008F8008600203087008101B32C5E08C400C50142
:10090800CD30C6002030C700440846078600450899
:10091800473D87000108C8005E08F63EC900FF3061
:1009280003180030CA006830CB002030CC004908DA
:100938004B07CD004A084C3DCE004D0886004E08B6
:100948008700480881000130C4004408DE070130F0
:10095800C4008630860020308700440881075E087E
:10096800C400C501CD30C6002030C7004408460782
:1009780086004508473D870030300102031CD52C0E
:100988005E08C400C501CD30C6002030C700440849
:10099800460786004508473D87003A300102031C98
:1009A800812C5E08F63EC400FF3003180030C500F5
:1009B8006830C6002030C70044084607860045084E
:1009C800473D870081016830B1002030B200863091
:1009D8008600203087000108C4004408B3008E3127
:1009E8005626833120003108C5004508CF004F083E
:1009F8000319282D4F08FF3EAD00FF3003180030C3
:100A0800AE008931DE21833168302000AD0020300E
:100A1800AE008D30AF008630B000D630B1008730E0
:100A2800B2008B318723833177302000AD0020302E
:100A3800AE001630AF008730B0006830B10020300B
:100A4800B2008B3187238331D33086002030870072
:100A580046300106031D4B2DD43086002030870018
:100A680041300106031D4B2DD5308600203087000C
:100A780043300106031D4B2D8831D9208331CE30F8
:100A88002000AB008730AC008D31D8258331D330BE
:100A980086002030870050300106031DD22DD43047
:100AA80086002030870041300106031DD22DD53045
:100AB80086002030870053300106031DD22D0A30EE
:100AC8002000C4004408DE00932D5E08C400C50160
:100AD800CD30C6002030C7004408460786004508C8
:100AE800473D87000108C8005E08F63EC900FF3090
:100AF80003180030CA00EB30CB002030CC00490886
:100B08004B07CD004A084C3DCE004D0886004E08E4
:100B18008700480881000130C4004408DE075E08E9
:100B2800C400C501CD30C6002030C70044084607C0
:100B380086004508473D870030300102031CB52D6B
:100B48005E08C400C501CD30C6002030C700440887
:100B5800460786004508473D87003A300102031CD6
:100B6800692D5E08F63EC400FF3003180030C5004A
:100B7800EB30C6002030C700440846078600450809
:100B8800473D870081010E305E06031DD22DEB30F4
:100B9800AB002030AC008D31D8258331D3308600AE
:100BA8002030870043300106031DFA2DD43086001B
:100BB8002030870053300106031DFA2DD5308600FA
:100BC8002030870051300106031DFA2D77302000B0
:100BD800AD002030AE002F30AF008730B000E630D7
:100BE800B1002030B2008B3187238331D3308600A7
:100BF8002030870056300106031D0800D4308600D7
:100C08002030870045300106031D0800D5308600D6
:100C18002030870052300106031D0800E030200014
:100C2800AD001E30AE008931262183312000C4007A
:100C38004408E000E130AD001E30AE0089312621C5
:100C480083312000C4004408E100E230AD001E30CA
:100C5800AE008931262183312000C4004408E20017
:100C6800E330AD001E30AE008931262183312000EB
:100C7800C4004408E300E4017730AD002030AE0042
:100C8800FC30AF008630B0006030B1000030B200F8
:100C98008B3187230800CE308600203087004F3004
:100CA8000106031D892ECF30860020308700503082
:100CB8000106031D892ED03086002030870045307C
:100CC8000106031D892E77302000B1002030B200C4
:100CD80086308600203087000108C4004408B3002D
:100CE8008E31562683312000310832040319852EAF
:100CF80022008C1609308931512122008C120E15E0
:100D08000800053089317D210800053089317D21B1
:100D1800080059346F347534723420346E347534A5
:100D28006D34623465347234203468346134733419
:100D380020346234653465346E3420346434653468
:100D48006C34653474346534643400345434683431
:100D5800653420346E3475346D34623465347234DD
:100D6800203461346C3472346534613464347934D9
:100D780020346534783469347334743473343A34D1
:100D88002034003459346F347534723420346E345E
:100D980075346D34623465347234203468346134A7
:100DA800733420346234653465346E3420346134ED
:100DB8006434643465346434003459346F347534BD
:100DC800723420346E3475346D3462346534723460
:100DD800203461346C347234653461346434793469
:100DE800203465347834693473347434733400349B
:100DF80054346834653420346634693472346D345C
:100E0800773461347234653420347634653472341E
:100E1800733469346F346E342034693473343A343B
:100E28002034003459346F347534203464346534D4
:100E38006C34653474346534643420347434683400
:100E4800653420346E3475346D34623465347234EC
:100E58003A342034003454346834653420347334DC
:100E6800693467346E3461346C34203471347534C9
:100E780061346C34693474347934203469347334AB
:100E88003A342034003459346F34753420346134A2
:100E980064346434653464342034743468346534B8
:100EA80020346E3475346D346234653472343A34B7
:100EB80020340034533479347334743465346D34E5
:100EC800203465346E34613462346C34653464348F
:100ED8000034413454342B3443344D34473446348D
:100EE80020343D34203431340D340A340034413454
:100EF80054342B3443344C34493450343D34313435
:100F08000D340A3400343634313434343134363420
:100F1800353434343834313438340034413454348A
:100F28002B3443344D34473453343D342234003465
:100F3800413454342B344334533451340D340A344B
:100F48000034413454342B3443344D34473444341E
:100F58003D340034413454342B3443344D34473415
:100F680052343D34003441345434453430340D3433
:100F78000A3400344134543448340D340A340034CB
:100F8800763431342E3433340034413454340D340F
:100F98000A340034313432343334343400342234B3
:100FA8000D340A3400342D343E34003431340034E6
:100FB8002000AB01AC01271CE52F2908AB072A0844
:100FC800AC3D0130A935AA0D890BE62F0130A836B2
:100FD800A70C890BEB2F27082804031DDF2F2C08EB
:100FE800A8002B08A70008002000A700111EFA2F50
:080FF800270823009A000800FD
:1010740024001614161C08003C2824001615161DFE
:101084000800412824009614961C080046282400D1
:1010940096161616161E08004C28240016081F392A
:1010A400031D4F28141D08004F282000A7002708FF
:1010B4002400910014185C2888314F200800210076
:1010C4008E178D130D1724009417283095000930BE
:1010D400920008006400800101310130FE020030FA
:1010E400FF3B7F087E04031900346D282400961505
:1010F400141C7A2811082000A7002708A8008831AA
:101104004F202000280808000D308731F827883147
:101114000A308731F827883120002C08A9002B08D1
:10112400A8008831A720080021008D130D138E1309
:101134000D1623008D0121000E108E100E110E12BB
:101144008E160E130C128C1208002000280884003E
:1011540029088500120003190800200028088400CB
:101164002908850000088731F827883101302000DC
:10117400A8070030A93DA72822008D1388313A2002
:101184008831A030883157208831200029088831DF
:1011940057208831200028088831572088312000C2
:1011A4002A0888315720883188313F2008002000E0
:1011B400AD01AE0103302E02203003192D020318B5
:1011C40008002E08A9002D08A800FF30AB002B084A
:1011D400AA008831BE20883134302000AC00F130C0
:1011E400AB00AB0BF328AC0BF3280032013020002A
:1011F400AD070030AE3DDC282000A7002100170811
:10120400C1392238970016296A3021009900080054
:1012140072302100990008007A30210099000800FA
:10122400703021009900080020002708043A0319AF
:1012340006290C3A03190A29183A03190E29303AD7
:1012440003191229252908002000B00122008D135A
:1012540088313A208931A0308831572089312000E3
:101264002E0888315720893120002D0888315720D5
:101274008931883144208931A1308831572089311E
:101284008831782089312000AF002F08B0008831E0
:101294004920893188313F2020003008080020008F
:1012A400AA00AB01AB012A082B0203180800220094
:1012B4000E1505302000A9000F30A800F430A70057
:1012C400A70B6229A80B6229A90B622922000E111F
:1012D40005302000A9000F30A800F430A700A70BA8
:1012E4007129A80B7129A90B712901302000A700CD
:1012F4002708AB0755292000AA00AB01AB012A0837
:101304002B020318080022008E1405302000A900C7
:101314000F30A800F430A700A70B8E29A80B8E2944
:10132400A90B8E2922008E1005302000A9000F3051
:10133400A800F430A700A70B9D29A80B9D29A90B91
:101344009D2901302000A7002708AB078129200030
:10135400AC01AD01270828040319D929AE01AE0A4E
:10136400A81BBE290130A735A80D890BB52901306A
:10137400AB002B08AE07B2290130AC35AD0D890B9B
:10138400BF2928082A02031DC92927082902031C8A
:10139400D0292708A9022808AA3B2C140130A83612
:1013A400A70C890BD1290130AE02031DBE292D08DB
:1013B400A8002C08A70008002000B301B101B20165
:1013C4002E08A8002D08A7000A30A9000030AA00A2
:1013D4008731DC27893120002808B2002708B100B2
:1013E400B3010A3033020318080033083107A80098
:1013F40032080318320AA900FF30AF002F08AA00F0
:101404008831BE20893134302000B000F130AF0083
:10141400AF0B0A2AB00B0A2A003201302000AF00B9
:101424002F08B307F32929302000B3009630B20007
:10143400A630B100B10B1C2AB20B1C2AB30B1C2A18
:10144400A5302000AB008730AC00883186208A317B
:1014540020002E08A9002D08A8008831A7208A3171
:101464002C308731F8278A3120003008A9002F0852
:10147400A8008831A7208A31D4302000A800873002
:10148400A9008831A7208A3152302000B3002C30C3
:10149400B2004F30B100B10B4D2AB20B4D2AB30B41
:1014A4004D2A003208002000C201C301BF01C0015F
:1014B400C1014308A8004208A7000A30A90000306F
:1014C400AA008731DC278A3120002808AE002708CB
:1014D400AD00893126218A312000BE003E08C100BA
:1014E40030304102031C7A2A3A304102031C7E2A1E
:1014F4000130BF000030C0000130C2070030C33DDE
:101504003F084004031D8D2A01304302C2300319F1
:101514004202031C5B2A3C08AE003B08AD003D08B8
:10152400BE003E08AF004208FF3EB000FF30433D1E
:10153400B1008C3168240800AB2ACF30A82A40308F
:10154400A82A2A30A82A2430A82A103023009B0075
:10155400D62A20002808003A0319BD2A253A03197F
:10156400C22A6E3A0319C72A3B3A0319CC2AF33A22
:101574000319D12AD62A2708733A0319A72AD62A87
:101584002708803A03199F2AD62A2708003A031904
:10159400A12AD62A2708803A0319A32AD62A27087B
:1015A400403A0319A52AD62A22009D171D152300A7
:1015B4009F151E139E161E121E119D171D131D1618
:1015C4009D11210091160B178B170800093020007C
:1015D400B1001E30B000EB30AF00AF0BEF2AB00B00
:1015E400EF2AB10BEF2A00006D302000AB008730EA
:1015F400AC00883186208A3109302000B1001E30C9
:10160400B000EB30AF00AF0B052BB00B052BB10BCB
:10161400052B0000AE302000AB008730AC008831D1
:1016240086208A3120002E08A9002D08A8008831C0
:10163400A7208A31D4302000A8008730A90088313F
:10164400A7208A3119302000B1005A30B000C830C8
:10165400AF00AF0B2B2BB00B2B2BB10B2B2B003272
:101664000800DC302000AD001E30AE008931262198
:101674008B312000B3003308D800DD30AD001E30BC
:10168400AE00893126218B312000B3003308D90004
:10169400DE30AD001E30AE00893126218B312000B2
:1016A400B3003308DA00DF30AD001E30AE008931FC
:1016B40026218B312000B3003308DB00310886007B
:1016C4003208870001085806031D852B310886005F
:1016D40032088700413101085906031D852B310862
:1016E400860032088700423101085A06031D852B03
:1016F4003108860032088700433101085B06031D68
:10170400852B013008000030080052302000B5005D
:101714002C30B4004F30B300B30B8E2BB40B8E2B94
:10172400B50B8E2B00326D302000AB008730AC003F
:10173400883186208B3152302000B5002C30B40023
:101744004F30B300B30BA42BB40BA42BB50BA42BB9
:10175400003292302000AB008730AC008831862004
:101764008B3120002E08A9002D08A8008831A7205D
:101774008B31D3302000A8008730A9008831A720FE
:101784008B3152302000B5002C30B4004F30B30000
:10179400B30BCA2BB40BCA2BB50BCA2B00322000D7
:1017A4003008A9002F08A8008831A7208B31200019
:1017B4003208A9003108A8008831A7208B311A30DB
:1017C4008731F8278B3152302000B5002C30B4001B
:1017D4004F30B300B30BEC2BB40BEC2BB50BEC2B51
:1017E4000032080064308600203087000030C03F9B
:1017F40064308600203087004131810186308600C4
:101804002030870081016430860020308700423117
:1018140081012000AB010F302B020318352C2B085B
:10182400A700A8016830A9002030AA0027082907CA
:10183400860028082A3D870081012B08A700A801FB
:101844007730A9002030AA00270829078600280835
:101854002A3D870081010130A7002708AB070F301C
:101864002B02031C112CAB0140302B020318502C0B
:101874002B08A700A8018D30A9002030AA00270852
:101884002907860028082A3D870081010130A70026
:101894002708AB0740302B02031C3A2CAB0119304C
:1018A4002B02031808002B08A700A801CD30A900BB
:1018B4002030AA0027082907860028082A3D870027
:1018C40081010130A7002708AB07512C2000B70184
:1018D400B8010130B5000030B600B901BA013108D1
:1018E400A8003008A7000A30A9000030AA008731F8
:1018F400DC278C3120002808BA002708B9003908F1
:10190400093EB90000303A3DBA000A30B700003051
:10191400B80037083804031908002F080319C02C2D
:101924000130AF022F08B200B30132082D07860040
:1019340033082E3D870030300102031CC92C2F08C8
:10194400B200B30132082D07860033082E3D87000C
:101954003A3001020318C92C3A08A9003908A80032
:101964002F08B200B30132082D07860033082E3D3C
:1019740087000108B4003408AA00C62C20003A08E5
:10198400A9003908A800AA018831BE208C31013091
:101994002000B9020030BA3B3430B300F130B20059
:1019A400B20BD22CB30BD22C003201302000B70280
:1019B4000030B83B8B2C22000E1768302000AE009C
:1019C400E430AD00AD0BE42CAE0BE42C000022009F
:1019D4000E1315302000AF004B30AE00D130AD00F7
:1019E400AD0BF22CAE0BF22CAF0BF22C000022004C
:1019F4000E17CB302000AF00ED30AE004C30AD0000
:101A0400AD0B022DAE0B022DAF0B022D0032CB30ED
:101A14002000AF00ED30AE004C30AD00AD0B102D0A
:101A2400AE0B102DAF0B102D0032C9302000AB00CF
:101A34008730AC00883186208C3152302000AF00D2
:101A44002C30AE004F30AD00AD0B262DAE0B262D45
:101A5400AF0B262D0032B7302000AB008730AC002E
:101A6400883186208C3152302000AF002C30AE00FB
:101A74004F30AD00AD0B3C2DAE0B3C2DAF0B3C2DD0
:101A840000327B302000AB008730AC0088318620E8
:101A94008C3152302000AF002C30AE004F30AD00FE
:101AA400AD0B522DAE0B522DAF0B522D0032080050
:101AB400E0302000A8001E30A9002B0884002C0868
:101AC40085000008AD002D08AA008831BE208D31A4
:101AD40034302000AE00F130AD00AD0B6F2DAE0BF5
:101AE4006F2D0032E1302000A8001E30A9002C0820
:101AF400AE002B08AD0001302D0784002E0803181A
:101B04002E0A85000008AF002F08AA008831BE20E5
:101B14008D3134302000AE00F130AD00AD0B902D8E
:101B2400AE0B902D0032E2302000A8001E30A90038
:101B34002C08AE002B08AD0002302D0784002E08BF
:101B440003182E0A85000008AF002F08AA00883168
:101B5400BE208D3134302000AE00F130AD00AD0B2D
:101B6400B12DAE0BB12D0032E3302000A8001E30A1
:101B7400A9002C08AE002B08AD0003302D0784000B
:101B84002E0803182E0A85000008AF002F08AA00AB
:101B94008831BE208D3134302000AE00F130AD00EC
:101BA400AD0BD22DAE0BD22D00320800DC3020005C
:101BB400A8001E30A9002B0884002C08850000080A
:101BC400AD002D08AA008831BE208D3134302000AC
:101BD400AE00F130AD00AD0BED2DAE0BED2D0032AE
:101BE400DD302000A8001E30A9002C08AE002B0810
:101BF400AD0001302D0784002E0803182E0A85003D
:101C04000008AF002F08AA008831BE208D3134307F
:101C14002000AE00F130AD00AD0B0E2EAE0B0E2E3B
:101C24000032DE302000A8001E30A9002C08AE00CF
:101C34002B08AD0002302D0784002E0803182E0A4D
:101C440085000008AF002F08AA008831BE208D311E
:101C540034302000AE00F130AD00AD0B2F2EAE0BB2
:101C64002F2E0032DF302000A8001E30A9002C08DF
:101C7400AE002B08AD0003302D0784002E08031896
:101C84002E0A85000008AF002F08AA008831BE2064
:101C94008D3134302000AE00F130AD00AD0B502E4C
:101CA400AE0B502E003208002000BE01BF01C0015F
:101CB400C101BC01BD010930BE000030B82EC00115
:101CC400C1014008013EB4000030413DB500B409F3
:101CD400B509B40A0319B50A3308B600B7013608C2
:101CE4003107B8003708323DB90034083807860098
:101CF4003508393D87004009BA004109BB00BA0ADA
:101D04000319BB0A3E083A07AD003F083B3DAE004D
:101D1400893126218E310106031D962E01302000C3
:101D2400BC000030BD00992E2000BC01BD01013073
:101D3400C0070030C13D3C083D040319B32E3308ED
:101D4400B400B50135084102031DAA2E340840022F
:101D54000318B32E003041020A3003194002031C59
:101D6400632E3E080A3EBE0000303F3DBF003C08E3
:101D74003D04031DC42E11303F028A3003193E0274
:101D8400031C612E3C033D04031DD82E0A30A7001A
:101D94000030A8003F08AA003E08A9008931A92103
:101DA40020002808B2002708B1000800B101B201E0
:101DB400080020308831FE208E31883196208E3103
:101DC40022000C1280302000A7002530A8008A31A0
:101DD4009E228E31883161208E3122008E140E14A1
:101DE4000E158C31DD248E31C4302000AB008730D9
:101DF400AC008D315A258E31FF302000D0005008C0
:101E0400E500FF30D0005008E600FF30D000500855
:101E1400E700FF30D0005008E8006530B100003022
:101E2400B2008B3133238E31003A0319212FCE3087
:101E34002000AB008730AC008D31D8258E312200D4
:101E44008E100E100E158B1723001D1687302000E0
:101E5400AD008730AE005E30AF008730B000D630C2
:101E6400B1008730B2008B3187238E31F02F2300ED
:101E74009D1C482F1D12E4302000D0000032003297
:101E8400D00B402F0032000023001D160930200023
:101E9400D2001E30D100EB30D000D00B4F2FD10B2D
:101EA4004F2FD20B4F2F0000C83020005D020318C3
:101EB400602F0130D0005008DD07952FDD019C30E4
:101EC400AB008730AC00883186208E31153020007D
:101ED400D2004B30D100D130D000D00B6F2FD10BBA
:101EE4006F2FD20B6F2F00006430860020308700E4
:101EF4004231010303198F2F9C302000AB0087303F
:101F0400AC00883186208E31643086002030870012
:101F1400423101030319952F862F64308600203047
:101F24008700423181016400F02FBE302000AB00F5
:101F34008730AC00883186208E3168302000B100B3
:101F44002030B20086308600203087000108D0009F
:101F54005008B3008E3156268E31200031083204E9
:101F64000319BE2F22000C160530893151218E3100
:101F740022000C120E15C22F053089317D218E31BD
:101F84008B31F4238E31EE2F22000E148830200082
:101F9400AD002030AE008A31E8228E3122000E10CE
:101FA40003302000D0005008DF00F02F8331662377
:101FB4008E3122000E148B31F4238E31DA3020005E
:101FC400AD008730AE00D130AF008730B0008A3129
:101FD40015228E3122000E102000DF0120005F0840
:101FE400003A0319392F013A0319972F033A0319B9
:0C1FF400C62F013A0319D82FF02FF02F50
:020000040001F9
:04000E001CFEFFDFF6
:00000001FF
