:04000000803116280D
:100008007E14803120007F08FB002100911E1128FA
:100018002000911E1128803132207B082000FF002B
:100028007E10090080311828643084002030850053
:100038008C30FE000030FF008831E3208031FC0165
:1000480053308400003085001130FE000030FF007E
:100058008831E3207E1020008E31DB2E22000E1422
:1000680023001908F00070082000A0006430860002
:10007800203087000130C03F5B2B64308600203081
:10008800870041310103031D632B5C08031D632BAB
:10009800643086002030870041318101632B643051
:1000A80086002030870041310108031D6228653031
:1000B80086002030870001308100382B5C08F00072
:1000C800F1018D30F2002030F300700872078600CD
:1000D8007108733D870081016430860020308700F5
:1000E800413181018D308600203087002B30010698
:1000F800031D212B8E3086002030870043300106F7
:10010800031D06298F308600203087004C300106F9
:10011800031D0629903086002030870049300106EB
:10012800031D06290830F0007008A300CE2820001F
:100138002308F000F1018D30F2002030F300700840
:10014800720786007108733D87000108F4002308D0
:10015800F83EF500FF3003180030F6006830F7006D
:100168002030F80075087707F9007608783DFA001E
:10017800790886007A088700740881000130F00049
:100188007008A3070130F000863086002030870011
:10019800700881072308F000F1018D30F20020304B
:1001A800F3007008720786007108733D87002230DB
:1001B80001060319F1282308F83EF000FF30031860
:1001C8000030F1007108803AF20080307202031D9D
:1001D800EF280F307002031C9B2820002308F83EEC
:1001E800F000FF3003180030F1006830F2002030D2
:1001F800F3007008720786007108733D870081015B
:10020800DF01DF0A8E308600203087004330010688
:10021800031D93298F308600203087004D3001065A
:10022800031D932990308600203087005430010642
:10023800031D93299130860020308700493001063C
:10024800031D93290C30F0007008A40055292408D8
:10025800F000F1018D30F2002030F30070087207D1
:1002680086007108733D87000108F4002408F43EF5
:10027800F500FF3003180030F6008830F700203012
:10028800F80075087707F9007608783DFA007908CC
:1002980086007A088700740881000130F000700831
:1002A800A4072408F000F1018D30F2002030F3009B
:1002B8007008720786007108733D870030300102AC
:1002C800031C77292408F000F1018D30F20020305A
:1002D800F3007008720786007108733D87003A3092
:1002E8000102031C2B292408F43EF000FF300318F8
:1002F8000030F1008830F2002030F30070087207F7
:1003080086007108733D87008101873086002030A0
:100318008700013081000230F0007008DF008E3065
:1003280086002030870043300106031D012A8F30E4
:1003380086002030870053300106031D012A9030C3
:1003480086002030870051300106031D012A06303F
:10035800F0007008A500DA292508F000F1018D30B9
:10036800F2002030F3007008720786007108733DB0
:1003780087000108F4002508FA3EF500FF3003184D
:100388000030F600E630F7002030F80075087707EF
:10039800F9007608783DFA00790886007A0887001F
:1003A800740881000130F0007008A5072508F000E6
:1003B800F1018D30F2002030F300700872078600DA
:1003C8007108733D87002C3001060319EF290830A6
:1003D8002502031CB0292508FA3EF000FF30031857
:1003E8000030F100E630F2002030F30070087207A8
:1003F80086007108733D870081018E3086002030A9
:10040800870043300106031D712A8F308600203093
:1004180087004D300106031D712A90308600203078
:10042800870044300106031D712A0430F00070086B
:10043800A200492A20002208F000F1018D30F200C4
:100448002030F3007008720786007108733D87003A
:100458000108F4002208FC3EF500FF3003180030C4
:10046800F600CD30F7002030F80075087707F9005E
:100478007608783DFA00790886007A0887007408BB
:1004880081000130F0007008A2072208F000F10195
:100498008D30F2002030F300700872078600710872
:1004A800733D87002330010603196C2A2208FC3E9D
:1004B800F000FF3003180030F1007108803AF200B4
:1004C80080307202031D6A2A19307002031C1E2A2A
:1004D8000330F00070082000DF008E3086002030E6
:1004E800870043300106031D372B8F3086002030EC
:1004F80087004D300106031D372B903086002030D1
:10050800870047300106031D372B913086002030C5
:10051800870052300106031D372B1430F000700895
:10052800A600A101AE2A0130F0007008A60726082F
:10053800F000F1018D30F2002030F30070087207EE
:1005480086007108733D870022300106031DAE2A1C
:10055800A101A10A2108031DB52A28302602031C7F
:10056800972A2608F63EF0007008A600ED2A26080D
:10057800F000F1018D30F2002030F30070087207AE
:1005880086007108733D87000108F40086308600F4
:10059800203087000108F500F6017730F700203099
:1005A800F80075087707F9007608783DFA007908A9
:1005B80086007A088700740881000130F00070080E
:1005C800A6070130F00086308600203087007008CA
:1005D80081072608F000F1018D30F2002030F30089
:1005E8007008720786007108733D87002230010683
:1005F8000319092B86308600203087000F3001024E
:100608000318092B2108031DBB2A863086002030D9
:1006180087000108F000F1017730F2002030F30084
:100628007008720786007108733D87008101863063
:100638008600203087008101372B8D3086002030DE
:1006480087004F300106031D372B8E30860020307F
:1006580087004B300106031D372B6630860020309B
:10066800870001308100DC0164308600203087007B
:100678000030C03F632B3F305C020318632B5C08DB
:10068800F000F1018D30F2002030F300700872079D
:10069800F4007108733DF50074088600750887003A
:1006A800200881000130F0007008DC07632B200867
:1006B8000A3A03195328073A031941283F2B220005
:1006C8000E100800CD308600203087003A30010631
:1006D800031D0800CE302000B1002030B2008B315D
:1006E800B8238331003A0319FA2DD330860020301D
:1006F800870041300106031D5E2CD430860020306F
:10070800870044300106031D5E2CD530860020305A
:10071800870044300106031D5E2C0A302000C40007
:100728004408DE0086308600203087008101CE2B09
:100738005E08C400C501CD30C6002030C70044089B
:10074800460786004508473D87000108C8005E083F
:10075800F63EC900FF3003180030CA006830CB00ED
:100768002030CC0049084B07CD004A084C3DCE004C
:100778004D0886004E088700480881000130C400F3
:100788004408DE070130C400863086002030870028
:10079800440881075E08C400C501CD30C60020307A
:1007A800C7004408460786004508473D87003030A3
:1007B8000102031CF02B5E08C400C501CD30C60041
:1007C8002030C7004408460786004508473D870093
:1007D8003A300102031C9C2B5E08F63EC400FF3031
:1007E80003180030C5006830C6002030C700440830
:1007F800460786004508473D870081016830B100FB
:100808002030B20086308600203087000108C400FE
:100818004408B30087316D27833120003108320442
:10082800031D3E2C6830BB002030BC00863086009B
:10083800203087000108C4004408BD008A31DA224C
:10084800833168302000AD002030AE007130AF0039
:100858008630B0006730B1008730B2008C310C248C
:10086800833177302000AD002030AE00D830AF00A3
:100878008630562C68302000AD002030AE008C3019
:10088800AF008630B0006730B1008730B2008C31DD
:100898000C24833177302000AD002030AE00553075
:1008A800AF008630B0006830B1002030B2008C3123
:1008B8000C248331D3308600203087004430010671
:1008C800031D282DD43086002030870045300106CE
:1008D800031D282DD5308600203087004C300106B6
:1008E800031D282D0A302000C4004408DE0086308D
:1008F8008600203087008101B32C5E08C400C50142
:10090800CD30C6002030C700440846078600450899
:10091800473D87000108C8005E08F63EC900FF3061
:1009280003180030CA006830CB002030CC004908DA
:100938004B07CD004A084C3DCE004D0886004E08B6
:100948008700480881000130C4004408DE070130F0
:10095800C4008630860020308700440881075E087E
:10096800C400C501CD30C6002030C7004408460782
:1009780086004508473D870030300102031CD52C0E
:100988005E08C400C501CD30C6002030C700440849
:10099800460786004508473D87003A300102031C98
:1009A800812C5E08F63EC400FF3003180030C500F5
:1009B8006830C6002030C70044084607860045084E
:1009C800473D870081016830B1002030B200863091
:1009D8008600203087000108C4004408B30087312E
:1009E8006D27833120003108C5004508CF004F0826
:1009F8000319282D4F08FF3EAD00FF3003180030C3
:100A0800AE008A316322833168302000AD00203087
:100A1800AE003830AF008630B0006730B1008730A4
:100A2800B2008C310C24833177302000AD002030A7
:100A3800AE00A730AF008630B0006830B10020307B
:100A4800B2008C310C248331D330860020308700EB
:100A580046300106031D4B2DD43086002030870018
:100A680041300106031D4B2DD5308600203087000C
:100A780043300106031D4B2D89315E2183315F30E0
:100A88002000AB008730AC008E315D268331D33037
:100A980086002030870050300106031DD22DD43047
:100AA80086002030870041300106031DD22DD53045
:100AB80086002030870053300106031DD22D0A30EE
:100AC8002000C4004408DE00932D5E08C400C50160
:100AD800CD30C6002030C7004408460786004508C8
:100AE800473D87000108C8005E08F63EC900FF3090
:100AF80003180030CA00EB30CB002030CC00490886
:100B08004B07CD004A084C3DCE004D0886004E08E4
:100B18008700480881000130C4004408DE075E08E9
:100B2800C400C501CD30C6002030C70044084607C0
:100B380086004508473D870030300102031CB52D6B
:100B48005E08C400C501CD30C6002030C700440887
:100B5800460786004508473D87003A300102031CD6
:100B6800692D5E08F63EC400FF3003180030C5004A
:100B7800EB30C6002030C700440846078600450809
:100B8800473D870081010E305E06031DD22DEB30F4
:100B9800AB002030AC008E315D268331D330860027
:100BA8002030870043300106031D0800D43086003A
:100BB8002030870053300106031D0800D530860019
:100BC8002030870051300106031D080068302000DE
:100BD800AD002030AE00C030AF008630B000E63047
:100BE800B1002030B2008C310C240800CE308600D1
:100BF800203087004F300106031D342ECF30860089
:100C08002030870050300106031D342ED030860076
:100C18002030870045300106031D342E7730200030
:100C2800B1002030B20086308600203087000108ED
:100C3800C4004408B30087316D2783312000310890
:100C480032040319302E22008C1609308931D6213E
:100C580022008C120E15080005308A310222080085
:100C680005308A310222080059346F3475347234E1
:100C780020346E3475346D34623465347234203403
:100C880068346134733420346234653465346E34C6
:100C98002034643465346C346534743465346434B5
:100CA800003454346834653420346E3475346D340B
:100CB800623465347234203461346C34723465348F
:100CC8006134643479342034653478346934733465
:100CD800743473343A342034003459346F347534EE
:100CE800723420346E3475346D3462346534723441
:100CF80020346834613473342034623465346534A4
:100D08006E342034613464346434653464340034BB
:100D180059346F347534723420346E3475346D340C
:100D2800623465347234203461346C34723465341E
:100D380061346434793420346534783469347334F4
:100D480074347334003459346F3475342034643453
:100D580065346C34653474346534643420347434E4
:100D68006834653420346E3475346D3462346534D7
:100D780072343A34203400345434683465342034BE
:100D88007334693467346E3461346C3420347134AC
:100D9800753461346C34693474347934203469348A
:100DA80073343A342034003459346F347534203471
:100DB800613464346434653464342034743468349D
:100DC800653420346E3475346D346234653472346D
:100DD8003A342034003453347934733474346534F9
:100DE8006D34203465346E34613462346C34653467
:100DF80064340034413454342B3443344D34473450
:100E0800463420343D34203431340D340A3400342F
:100E1800413454342B3443344C34493450343D3405
:100E280031340D340A340034363431343434313406
:100E38003634353434343834313438340034413489
:100E480054342B3443344D34473453343D342234F2
:100E58000034413454342B344334533451340D3436
:100E68000A340034413454342B3443344D34473439
:100E780044343D340034413454342B3443344D34F9
:100E8800473452343D3400344134543445343034DA
:100E98000D340A3400344134543448340D340A349F
:100EA8000034763431342E343234003441345434FE
:100EB8000D340A34003431343234333434340034A9
:100EC80022340D340A3400342D343E3400343134A5
:100ED80000342000BE01BF01C001C101BC01BD0139
:100EE8000930BE000030CF2FC001C1014008013ECB
:100EF800B4000030413DB500B409B509B40A03197E
:100F0800B50A3308B600B70136083107B800370804
:100F1800323DB9003408380786003508393D870066
:100F28004009BA004109BB00BA0A0319BB0A3E08C6
:100F38003A07AD003F083B3DAE008931AB21873110
:100F48000106031DAD2F01302000BC000030BD009C
:100F5800B02F2000BC01BD010130C0070030C13DE9
:100F68003C083D040319CA2F3308B400B5013508FD
:100F78004102031DC12F340840020318CA2F003054
:100F880041020A3003194002031C7A2F3E080A3E28
:100F9800BE0000303F3DBF003C083D04031DDB2F71
:100FA80011303F028A3003193E02031C782F3C039C
:100FB8003D04031DEF2F0A30A7000030A8003F08AA
:100FC800AA003E08A9008A312E2220002808B20073
:100FD8002708B1000800B101B201080024009615E5
:100FE800141CF42F11082000A7002708A800883136
:080FF800BE20200028080800BB
:1011520024001614161C0800AB2824001615161DB0
:101162000800B02824009614961C0800B528240014
:1011720096161616161E0800BB28240016081F39DC
:10118200031DBE28141D0800BE282000A700111E42
:10119200C828270823009A0008002000A700270873
:1011A200240091001418D3288831BE2008002100A1
:1011B2008E178D130D1724009417283095000930CF
:1011C200920008006400800101310130FE0200300B
:1011D200FF3B7F087E0403190034E4280D30883178
:1011E200C62088310A308831C620883120002C0878
:1011F200A9002B08A80089311021080021008D13B5
:101202000D138E130D1623008D0121000E108E106A
:101212000E110E128E160E130C128C1208002000E4
:1012220028088400290885001200031908002000FC
:10123200280884002908850000088831C6208931E1
:1012420001302000A8070030A93D102922008D138B
:101252008831A9208931A0308831CE2089312000FF
:1012620029088831CE208931200028088831CE20F3
:10127200893120002A088831CE2089318831AE2078
:1012820008002000AB01AC01271C4B292908AB0741
:101292002A08AC3D0130A935AA0D890B4C29013031
:1012A200A836A70C890B512927082804031D4529B4
:1012B2002C08A8002B08A70008002000AD01AE01F1
:1012C20003302E02203003192D02031808002E08C5
:1012D200A9002D08A800FF30AB002B08AA00893115
:1012E2002721893134302000AC00F130AB00AB0B48
:1012F2007829AC0B7829003201302000AD0700308C
:10130200AE3D61292000A70021001708C13922380B
:1013120097009B296A302100990008007230210051
:10132200990008007A3021009900080070302100ED
:101332009900080020002708043A03198B290C3A67
:1013420003198F29183A03199329303A0319972957
:10135200AA2908002000B00122008D138831A9209B
:101362008931A0308831CE20893120002E08883181
:10137200CE20893120002D088831CE208931883154
:10138200B3208931A1308831CE2089318731F227CB
:1013920089312000AF002F08B0008831B820893190
:1013A2008831AE202000300808002000AA00AB01DE
:1013B200AB012A082B020318080022000E15053083
:1013C2002000A9000F30A800F430A700A70BE729DE
:1013D200A80BE729A90BE72922000E1105302000EE
:1013E200A9000F30A800F430A700A70BF629A80B1C
:1013F200F629A90BF62901302000A7002708AB0720
:10140200DA292000AA00AB01AB012A082B0203183B
:10141200080022008E1405302000A9000F30A80019
:10142200F430A700A70B132AA80B132AA90B132A1F
:1014320022008E1005302000A9000F30A800F430E1
:10144200A700A70B222AA80B222AA90B222A0130C5
:101452002000A7002708AB07062A2000AC01AD0137
:101462002708280403195E2AAE01AE0AA81B432AE4
:101472000130A735A80D890B3A2A0130AB002B08A1
:10148200AE07372A0130AC35AD0D890B442A280846
:101492002A02031D4E2A27082902031C552A27085F
:1014A200A9022808AA3B2C140130A836A70C890BE4
:1014B200562A0130AE02031D432A2D08A8002C082B
:1014C200A70008002000B301B101B2012E08A80054
:1014D2002D08A7000A30A9000030AA008931422154
:1014E2008A3120002808B2002708B100B3010A306F
:1014F20033020318080033083107A8003208031822
:10150200320AA900FF30AF002F08AA008931272133
:101512008A3134302000B000F130AF00AF0B8F2A97
:10152200B00B8F2A003201302000AF002F08B30722
:10153200782A29302000B3009630B200A630B100DC
:10154200B10BA12AB20BA12AB30BA12A363020007B
:10155200AB008730AC008831EF208A3120002E08A2
:10156200A9002D08A800893110218A312C30883138
:10157200C6208A3120003008A9002F08A80089312E
:1015820010218A3165302000A8008730A9008931F6
:1015920010218A3152302000B3002C30B2004F307B
:1015A200B100B10BD22AB20BD22AB30BD22A00322B
:1015B20008002000C201C301BF01C001C1014308EC
:1015C200A8004208A7000A30A9000030AA00893109
:1015D20042218A3120002808AE002708AD00893157
:1015E200AB218A312000BE003E08C10030304102EA
:1015F200031CFF2A3A304102031C032B0130BF00B7
:101602000030C0000130C2070030C33D3F08400433
:10161200031D122B01304302C23003194202031C84
:10162200E02A3C08AE003B08AD003D08BE003E0883
:10163200AF004208FF3EB000FF30433DB1008C31A5
:10164200ED240800302BCF302D2B40302D2B2A30AB
:101652002D2B24302D2B103023009B005B2B2000E0
:101662002808003A0319422B253A0319472B6E3AF0
:1016720003194C2B3B3A0319512BF33A0319562BFE
:101682005B2B2708733A03192C2B5B2B2708803A14
:101692000319242B5B2B2708003A0319262B5B2BFB
:1016A2002708803A0319282B5B2B2708403A031995
:1016B2002A2B5B2B22009D171D1523009F151E133D
:1016C2009E161E121E119D171D131D169D1121001F
:1016D20091160B178B17080009302000B1001E303D
:1016E200B000EB30AF00AF0B742BB00B742BB10B0F
:1016F200742B0000FE302000AB008630AC00883135
:10170200EF208B3109302000B1001E30B000EB30E9
:10171200AF00AF0B8A2BB00B8A2BB10B8A2B0000C8
:101722003F302000AB008730AC008831EF208B3196
:1017320020002E08A9002D08A800893110218B3124
:1017420065302000A8008730A900893110218B3133
:1017520019302000B1005A30B000C830AF00AF0BD2
:10176200B02BB00BB02BB10BB02B00320800DC3029
:101772002000AD001E30AE008931AB218B3120003C
:10178200B3003308D800DD30AD001E30AE00893121
:10179200AB218B312000B3003308D900DE30AD001D
:1017A2001E30AE008931AB218B312000B3003308EB
:1017B200DA00DF30AD001E30AE008931AB218B3153
:1017C2002000B3003308DB003108860032088700AE
:1017D20001085806031D0A2C3108860032088700CA
:1017E200413101085906031D0A2C310886003208CE
:1017F2008700423101085A06031D0A2C310886006F
:1018020032088700433101085B06031D0A2C0130B0
:1018120008000030080052302000B5002C30B4001F
:101822004F30B300B30B132CB40B132CB50B132C8A
:101832000032FE302000AB008630AC008831EF2051
:101842008C3152302000B5002C30B4004F30B30040
:10185200B30B292CB40B292CB50B292C00322330C5
:101862002000AB008730AC008831EF208C312000A3
:101872002E08A9002D08A800893110218C3164306E
:101882002000A8008730A900893110218C31523004
:101892002000B5002C30B4004F30B300B30B4F2CF6
:1018A200B40B4F2CB50B4F2C003220003008A9008E
:1018B2002F08A800893110218C3120003208A9009C
:1018C2003108A800893110218C311A308831C620A4
:1018D2008C3152302000B5002C30B4004F30B300B0
:1018E200B30B712CB40B712CB50B712C00320800A8
:1018F20064308600203087000030C03F64308600AC
:1019020020308700413181018630860020308700F7
:10191200810164308600203087004231810120003D
:10192200AB010F302B020318BA2C2B08A700A80119
:101932006830A9002030AA00270829078600280855
:101942002A3D870081012B08A700A8017730A90052
:101952002030AA0027082907860028082A3D870088
:1019620081010130A7002708AB070F302B02031CAF
:10197200962CAB0140302B020318D52C2B08A70064
:10198200A8018D30A9002030AA0027082907860067
:1019920028082A3D870081010130A7002708AB07EC
:1019A20040302B02031CBF2CAB0119302B02031851
:1019B20008002B08A700A801CD30A9002030AA00FA
:1019C20027082907860028082A3D8700810101305F
:1019D200A7002708AB07D62C2000B701B8010130B9
:1019E200B5000030B600B901BA013108A8003008CC
:1019F200A7000A30A9000030AA00893142218C31A7
:101A020020002808BA002708B9003908093EB900A1
:101A120000303A3DBA000A30B7000030B80037084B
:101A22003804031908002F080319452D0130AF02AD
:101A32002F08B200B30132082D07860033082E3D6D
:101A4200870030300102031C4E2D2F08B200B30173
:101A520032082D07860033082E3D87003A300102F6
:101A620003184E2D3A08A9003908A8002F08B20021
:101A7200B30132082D07860033082E3D8700010886
:101A8200B4003408AA004B2D20003A08A9003908F6
:101A9200A800AA01893127218C3101302000B90226
:101AA2000030BA3B3430B300F130B200B20B572DE4
:101AB200B30B572D003201302000B7020030B83B83
:101AC200102D22000E1768302000AE00E430AD0069
:101AD200AD0B692DAE0B692D000022000E131530DF
:101AE2002000AF004B30AE00D130AD00AD0B772DF2
:101AF200AE0B772DAF0B772D000022000E17CB30E7
:101B02002000AF00ED30AE004C30AD00AD0B872DA4
:101B1200AE0B872DAF0B872D0032CB302000AF00EC
:101B2200ED30AE004C30AD00AD0B952DAE0B952DCA
:101B3200AF0B952D00325A302000AB008730AC003D
:101B42008831EF208D3152302000AF002C30AE00B2
:101B52004F30AD00AD0BAB2DAE0BAB2DAF0BAB2DA4
:101B6200003248302000AB008730AC008831EF20D3
:101B72008D3152302000AF002C30AE004F30AD001E
:101B8200AD0BC12DAE0BC12DAF0BC12D00320C30F0
:101B92002000AB008730AC008831EF208D3152300D
:101BA2002000AF002C30AE004F30AD00AD0BD72D72
:101BB200AE0BD72DAF0BD72D00320800E03020003E
:101BC200A8001E30A9002B0884002C0885000008FC
:101BD200AD002D08AA00893127218D313430200033
:101BE200AE00F130AD00AD0BF42DAE0BF42D003292
:101BF200E1302000A8001E30A9002C08AE002B08FE
:101C0200AD0001302D0784002E0803182E0A85002E
:101C12000008AF002F08AA00893127218D31343006
:101C22002000AE00F130AD00AD0B152EAE0B152E1F
:101C32000032E2302000A8001E30A9002C08AE00BD
:101C42002B08AD0002302D0784002E0803182E0A3F
:101C520085000008AF002F08AA00893127218D31A5
:101C620034302000AE00F130AD00AD0B362EAE0B9D
:101C7200362E0032E3302000A8001E30A9002C08C6
:101C8200AE002B08AD0003302D0784002E08031888
:101C92002E0A85000008AF002F08AA0089312721EB
:101CA2008D3134302000AE00F130AD00AD0B572E37
:101CB200AE0B572E00320800DC302000A8001E3088
:101CC200A9002B0884002C0885000008AD002D080F
:101CD200AA00893127218E3134302000AE00F13044
:101CE200AD00AD0B722EAE0B722E0032DD30200035
:101CF200A8001E30A9002C08AE002B08AD00013050
:101D02002D0784002E0803182E0A85000008AF0054
:101D12002F08AA00893127218E3134302000AE00ED
:101D2200F130AD00AD0B932EAE0B932E0032DE30B0
:101D32002000A8001E30A9002C08AE002B08AD0020
:101D420002302D0784002E0803182E0A8500000891
:101D5200AF002F08AA00893127218E3134302000AC
:101D6200AE00F130AD00AD0BB42EAE0BB42E00328E
:101D7200DF302000A8001E30A9002C08AE002B087E
:101D8200AD0003302D0784002E0803182E0A8500AB
:101D92000008AF002F08AA00893127218E31343084
:101DA2002000AE00F130AD00AD0BD52EAE0BD52E1E
:101DB200003208002030893183218E318831FF20A2
:101DC2008E3122000C1280302000A7002530A8009E
:101DD2008B3123238E318831D8208E3122008E140C
:101DE2000E140E158D3162258E3155302000AB0058
:101DF2008730AC008D31DF258E31FF302000D000DE
:101E02005008E000FF30D0005008E100FF30D00061
:101E12005008E200FF30D0005008E3006030B1000B
:101E22000030B2008B31B8238E31003A0319212FD2
:101E32005F302000AB008730AC008E315D268E31E2
:101E420022008E100E100E158B1723001D1618304F
:101E52002000AD008730AE00EF30AF008630B0001A
:101E62006730B1008730B2008C310C248E31F02FF4
:101E720023009D1C482F1D12E4302000D0000032A8
:101E82000032D00B402F0032000023001D16093013
:101E92002000D2001E30D100EB30D000D00B4F2FEB
:101EA200D10B4F2FD20B4F2F0000C83020005D0204
:101EB2000318602F0130D0005008DD07952FDD0197
:101EC2002D30AB008730AC008831EF208E311530D9
:101ED2002000D2004B30D100D130D000D00B6F2F78
:101EE200D10B6F2FD20B6F2F000064308600203091
:101EF20087004231010303198F2F2D302000AB00E0
:101F02008730AC008831EF208E316430860020307B
:101F12008700423101030319952F862F6430860012
:101F220020308700423181016400F02F4F302000C1
:101F3200AB008730AC008831EF208E316830200052
:101F4200B1002030B20086308600203087000108C0
:101F5200D0005008B30087316D278E312000310840
:101F620032040319BE2F22000C1605308931D62106
:101F72008E3122000C120E15C22F05308A31022238
:101F82008E318C3179248E31EE2F22000E1488305E
:101F92002000AD002030AE008B316D238E31220047
:101FA2000E1003302000D0005008DF00F02F8331E4
:101FB20066238E3122000E148C3179248E316B30DF
:101FC2002000AD008730AE006230AF008730B00035
:101FD2008A319A228E3122000E102000DF01200069
:101FE2005F08003A0319392F013A0319972F033A70
:0E1FF2000319C62F013A0319D82FF02FF02F34
:020000040001F9
:04000E001CFEFFDFF6
:00000001FF
